:020000040800F2
:1000000000000220C5260008DD0D0008DF0D0008F5
:10001000E10D0008E30D0008E50D000800000000F8
:10002000000000000000000000000000E70D0008D4
:10003000E90D000800000000EB0D0008ED0D0008C0
:1000400015270008152700081527000815270008A0
:1000500015270008152700085D0600081527000869
:100060001527000815270008152700081527000880
:100070001527000815270008152700081527000870
:10008000F50D00081527000815270008152700089A
:100090001527000815270008152700081527000850
:1000A0001527000815270008152700081527000840
:1000B0001527000815270008152700081527000830
:1000C0001527000815270008152700081527000820
:1000D0001527000815270008152700081527000810
:1000E0001527000815270008152700081527000800
:1000F00015270008152700081527000815270008F0
:1001000015270008152700081527000815270008DF
:1001100015270008152700081527000815270008CF
:1001200015270008152700081527000815270008BF
:100130001527000800000000000000001527000837
:10014000152700081527000815270008152700089F
:10015000152700081527000815270008152700088F
:10016000152700081527000815270008152700087F
:1001700015270008152700081527000800000000B3
:10018000000000001527000800000000000000002B
:1001900015270008000000000000000015270008D7
:1001A000000000000000000000000000152700080B
:1001B000152700081527000815270008152700082F
:0401C00015270008F7
:1001C40010B5054C237833B9044B13B10448AFF38D
:1001D40000800123237010BD1406002000000000DD
:1001E4007027000808B5034B1BB103490348AFF35C
:1001F400008008BD000000001806002070270008D9
:1002040053B94AB9002908BF00281CBF4FF0FF3179
:100214004FF0FF3000F088B9ADF1080C6DE904CE61
:1002240000F006F8DDF804E0DDE9022304B07047CD
:100234002DE9F047089D8E4604468846002B4AD196
:100244008A42174662D9B2FA82F64EB1C6F1200349
:1002540001FA06F820FA03F3B74043EA0808B44069
:100264004FEA174E1FFA87FCB8FBFEF1230C0EFB76
:10027400118843EA084301FB0CF29A4209D9FB189E
:1002840001F1FF3080F0EA809A4240F2E7800239BF
:100294003B449A1AA3B2B2FBFEF00EFB102243EACF
:1002A400024300FB0CFC9C4509D9FB1800F1FF320A
:1002B40080F0D6809C4540F2D3803B44023840EA2B
:1002C4000140A3EB0C0300211DB1F3400022C5E95A
:1002D4000032BDE8F0878B4205D90DB1C5E90001B4
:1002E40000210846F5E7B3FA83F1002946D17345A6
:1002F40002D3824200F20581841A6EEB03020120CC
:100304009046002DE5D0C5E90048E2E7002A00F058
:100314009080B2FA82F6002E40F0A4808A1A030C70
:100324004FEA174E80B2BCB20121B2FBFEFC0EFBB9
:100334001C2243EA024304FB0CF29A4207D9FB183D
:100344000CF1FF3802D29A4200F2E080C4469B1AB4
:10035400B3FBFEF20EFB123340EA034302FB04F448
:100364009C4207D9FB1802F1FF3002D29C4200F2F2
:10037400CA8002461B1B42EA0C40A5E7C1F12006D5
:100384008B4022FA06F71F430EFA01F420FA06F313
:100394002EFA06FE4FEA1749234300FA01F81FFA22
:1003A40087FCBEFBF9F01C0C09FB10EE44EA0E447A
:1003B40000FB0CFEA64502FA01F209D93C1900F132
:1003C400FF3A80F09C80A64540F2998002383C4474
:1003D400A4EB0E041FFA83FEB4FBF9F309FB1344E8
:1003E4004EEA044403FB0CFCA44508D93C1903F170
:1003F400FF3E80F08280A4457FD9023B3C4443EA1F
:100404000040A4EB0C04A0FB02EC64457346E146F7
:1004140062D35FD05DB1B8EB030264EB090404FA64
:1004240006F622FA01F31E43CC40C5E9006400211C
:100434004FE7B1FBF2FC010C41EA0E4180B240EA05
:1004440001423B4638463C46B846BE462026B1FBF0
:10045400F7F1A2EB080241EA0C4166E7014618E70E
:1004640010462CE7C6F120022EFA02F3B740B14041
:1004740020FA02F24FEA174E0A43B3FBFEF8BCB26D
:100484000EFB1833110C41EA034108FB04F9B04098
:1004940089454FEA104380B23ED9791808F1FF3CF0
:1004A40001D289451FD8A1EB0901B1FBFEF909FB73
:1004B40004F80EFB191192B242EA0142424529D2D4
:1004C400BA1809F1FF31C4D24245C2D2A9F10201DE
:1004D4003A44BEE7F0459DD2BEEB02036CEB070C39
:1004E4000138E14696E7A7EB09094944A8F1020C53
:1004F400B1FBFEF909FB04F8DBE773467FE75046DE
:1005040066E70846FDE63B44023A33E7ACF1020CE9
:100514003B441CE749469CE7A1EB0901C446B1FBF7
:10052400FEF909FB04F8C4E7704700BF2DE9F04F5A
:100534008BB00024059406940794089409940194BC
:10054400344B1A6B42F080021A631A6B02F0800279
:100554000192019A02941A6B42F001021A631A6B17
:1005640002F001020292029A03941A6B42F0020210
:100574001A631A6B02F002020392039A04941A6B30
:1005840042F004021A631B6B03F004030493049BFC
:100594004FF4404BCDF814B001260696DFF87CA04A
:1005A40005A9504601F096FC4FF44079CDF814901B
:1005B400DFF86C8005A9404601F08CFC4FF410472D
:1005C4000597154D05A9284601F084FC2246594695
:1005D400504601F06FFD22464946404601F06AFD4F
:1005E40022463946284601F065FD05964FF48813E6
:1005F4000693079605A9284601F06CFC22460221C1
:10060400062001F0D9FF062001F0E6FF0BB0BDE89B
:10061400F08F00BF00380240000002400008024092
:100624000004024000B583B000210191094B1A6B0C
:1006340042F400121A631B6B03F400130193019B31
:100644000A46102001F0B8FF102001F0C5FF03B0E6
:100654005DF804FB0038024010B502F021F8584B55
:100664001B68C01AC7281FD902F01AF8544B186027
:10067400544B1A68D36823F40073D360524801F0D2
:1006840046FE52490A680132514BA3FB02039B0800
:1006940003EB4303A2EB43030B60052B1CD8DFE8F9
:1006A40003F0071F34496077012001F00BFD16E0C9
:1006B400444C2268474BD362E3608023464A126865
:1006C4004649414801F0EEFD2268D36843F40073C3
:1006D400D360434800F072FB012001F0F3FC10BD2D
:1006E400384C22683B4BD362E36080233A4A126859
:1006F4003C49354801F0D6FD2268D36843F40073C1
:10070400D360394800F05AFBE6E72E4C2268314B9F
:10071400D362E3608023304A126834492A4801F0E6
:10072400C1FD2268D36843F40073D360304800F0FD
:1007340045FBD1E7234C226845F6B523D362E36039
:1007440043F2C423244A12682A491F4801F0AAFD2F
:100754002268D36843F40073D360274800F02EFB6B
:10076400BAE7184C226845F6B523D362E36041F634
:100774008463194A12682149134801F093FD2268E1
:10078400D36843F40073D3601D4800F017FBA3E75C
:100794000C4C226845F6B523D362E36041F67A43F4
:1007A4000D4A12681749084801F07CFD2268D36895
:1007B40043F40073D360144800F000FB8CE700BFDF
:1007C40034060020E0060020380600203006002011
:1007D400ABAAAAAA8FD003000000002008040020BE
:1007E400882700080802002090270008080000203D
:1007F40094270008C4130108A0270008B49900082E
:10080400A8270008CC270008B027000872B6FEE726
:1008140000B58FB000230A930B930C930D930893A8
:100824000993019302930393049305930693079307
:1008340036484FF08042026043608360344A126855
:10084400013AC26003618023836100F09FFC0028A9
:1008540050D14FF480530A930AA92C4800F0FCFDB0
:10086400002849D1294800F0BDFC002846D10023C6
:100874000893099308A9254800F080FF00283FD178
:100884000022019202920392059201A91F4800F0EE
:1008940039FD002836D1002300931E4A116B41F420
:1008A40000111163126B02F400120092009A1A48AC
:1008B4001A4A02604FF0C062426040228260C36004
:1008C4004FF4806202614FF4805242614FF48042DF
:1008D40082614FF48072C2614FF40032026243625B
:1008E40001F07AFC80B9094A0B4B53629A630FB04A
:1008F4005DF804FBFFF78AFFFFF788FFFFF786FF29
:10090400FFF784FFFFF782FFFFF780FFE006002078
:1009140004000020003802403806002088600240AD
:1009240000B58FB000230A930B930C930D93089397
:1009340009930193029303930493059306930793F6
:100944001E481F4A02604360836040F6FF72C26023
:100954000361836100F01AFC28BB4FF480530A93AF
:100964000AA9164800F078FDF8B9144800F066FCAE
:10097400E8B900230893099308A9104800F0FEFE83
:10098400B8B96023019300230293039305930822CB
:1009940001A90A4800F0E5FC68B9084800F098FA93
:1009A4000FB05DF804FBFFF731FFFFF72FFFFFF7F0
:1009B4002DFFFFF72BFFFFF729FF00BF980600204C
:1009C4000004004000B595B03422002107A801F0CE
:1009D400A0FE0023029303930493059306930093CC
:1009E400194A116C41F080511164126C02F080526A
:1009F4000092009A019315490A6822F4404242F495
:100A040080420A600A6802F440420192019A02227A
:100A1400079201220A9210220B920D9307A801F06B
:100A240037F868B90F2302930021039104910591CB
:100A3400069102A800F0E8FE20B915B05DF804FBA9
:100A4400FFF7E4FEFFF7E2FE0038024000700040CA
:100A540008B501F0FFFDFFF7B5FFFFF767FDFFF7EE
:100A6400E1FDFFF7D5FEFFF75BFF00F067F90C48E7
:100A740000F0D0F808210B4800F0FEFD0A4C0021DC
:100A8400204600F077FD8023084A12680849094887
:100A940001F008FC2268D36843F40073D360FEE7D6
:100AA4008827000898060020E006002000000020A7
:100AB400080400203806002082B000EB4000002328
:100AC400019304E000BF00BF019B01330193019B2C
:100AD4008342F7D302B0704710B51420FFF7ECFF40
:100AE400094CA36943F40043A3611420FFF7E4FF16
:100AF400A36943F00043A3611420FFF7DDFFA3695A
:100B040043F40043A36110BD0008024010B504463D
:100B14003D4A936943F48043936110F0800F41D1BF
:100B24003A4A936943F00043936114F0400F40D074
:100B3400364A936943F48053936114F0200F3ED0F6
:100B4400334A936943F40073936114F0100F3CD05B
:100B54002F4A936943F480739361FFF7BDFF14F048
:100B6400080F38D0294A936943F40043936114F081
:100B7400040F36D0254A936943F48053936114F0EB
:100B8400020F34D0224A936943F40073936114F042
:100B9400010F32D01E4A936943F480739361FFF7C7
:100BA4009BFF10BDA2F50062936943F40043936177
:100BB400BBE7164A936943F080539361BDE7144A37
:100BC400936943F000739361BFE7114A936943F05B
:100BD40080739361C1E70D4A936943F000439361C5
:100BE400C5E70A4A936943F080539361C7E7084A0B
:100BF400936943F000739361C9E7054A936943F02D
:100C040080739361CBE700BF0008024000000240FC
:100C14000004024038B50546002403E0FFF776FFE0
:100C24000134E4B2285D0028F8D138BD10B504467B
:100C34003F4A936943F08043936110F0800F45D19C
:100C44003C4A936943F00043936114F0400F44D04D
:100C5400384A936943F48053936114F0200F42D0CF
:100C6400354A936943F40073936114F0100F40D034
:100C7400314A936943F480739361FFF72DFF14F0B5
:100C8400080F3CD02B4A936943F40043936114F05A
:100C9400040F3AD0274A936943F48053936114F0C4
:100CA400020F38D0244A936943F40073936114F01B
:100CB400010F36D0204A936943F480739361FFF7A0
:100CC4000BFF40F6B830FFF7F7FE10BDA2F5006247
:100CD400936943F400439361B7E7164A936943F079
:100CE40080539361B9E7144A936943F000739361A5
:100CF400BBE7114A936943F080739361BDE70D4AE2
:100D0400936943F000439361C1E70A4A936943F04E
:100D140080539361C3E7084A936943F00073936176
:100D2400C5E7054A936943F080739361C7E700BF41
:100D340000080240000002400004024008B5194BBC
:100D44001A6B42F001021A631A6B42F002021A6330
:100D54001A6B42F004021A63134A136843F0824385
:100D6400136002F58062136843F4A023136002F554
:100D74008062136843F0A043136047F23050FFF7DA
:100D84009BFE3320FFF752FF3220FFF74FFF0C206A
:100D9400FFF74CFF2820FFF749FF0120FFF746FF2C
:100DA40008BD00BF003802400000024008B50248F8
:100DB400FFF730FF08BD00BFB827000810B5044690
:100DC4008020FFF733FFFFF7F1FF8020FFF72EFFAE
:100DD4002046FFF71FFF10BDFEE7FEE7FEE7FEE734
:100DE400FEE770477047704708B501F04DFC08BD39
:100DF40008B5024801F09EFA08BD00BF380600207D
:100E040082B0002100910B4B5A6C42F480425A6428
:100E14005A6C02F480420092009A01911A6C42F0DA
:100E240080521A641B6C03F080530193019B02B03F
:100E3400704700BF0038024010B582B00368B3F1B8
:100E4400804F04D01E4A93422CD002B010BD0446F9
:100E5400002300931B4A116C41F001011164126CD0
:100E640002F001020092009A1748184A02604FF0FB
:100E7400C06242608360C3604FF4806202614FF4D9
:100E8400805242614FF480428261C36103624362D3
:100E940001F0A2F918B90C4B63629C63D5E7FFF724
:100EA400B5FCF8E700230193064B1A6C42F00202EA
:100EB4001A641B6C03F002030193019BC5E700BF96
:100EC40000040040003802403806002088600240D8
:100ED40000B587B000230193029303930493059311
:100EE40002680E4B9A4202D007B05DF804FB00235F
:100EF40000930B4B1A6B42F002021A631B6B03F054
:100F040002030093009B01230193022302930593A0
:100F140001A9044800F0DEFFE6E700BF000400403A
:100F2400003802400004024030B4036A026A22F02E
:100F3400010202624268846924F0730C0C6844EA7A
:100F44000C0423F0020C8B6843EA0C03114DA842F5
:100F540003D005F58065A84205D123F00803CD68C8
:100F64002B4323F004030B4DA84203D005F5806501
:100F7400A84207D122F440724D6945EA020C8A69FD
:100F840042EA0C02426084614A684263036230BCF4
:100F9400704700BF0000014030B4036A026A22F4C3
:100FA400807202624268C46924F0730C0C6844EADB
:100FB4000C0523F400738C6843EA0423114CA0420B
:100FC40003D004F58064A04206D123F40063CC6806
:100FD40043EA042323F480630A4CA04203D004F5BB
:100FE4008064A04207D122F440524C6942EA0412C0
:100FF4008C6942EA04124260C5614A68C2630362B2
:1010040030BC70470000014030B4036A026A22F425
:10101400805202624468C26922F4E6420D6842EAE0
:10102400052223F400538D6843EA0533094DA84291
:1010340003D005F58065A84204D124F480444D69A9
:1010440044EA85144460C2614A680264036230BCA5
:10105400704700BF0000014010B4036A046A24F022
:1010640001040462846924F0F00C4CEA021223F0B7
:101074000A030B43826103625DF8044B704710B4AA
:10108400036A046A24F010040462846924F4704C32
:101094004CEA023223F0A00343EA011382610362A3
:1010A4005DF8044B7047836823F070030B4343F0EF
:1010B4000703836070477047704700000368324A33
:1010C400904212D0B0F1804F0FD0A2F57C429042F2
:1010D4000BD002F58062904207D002F58062904204
:1010E40003D002F57842904203D123F070034A689A
:1010F4001343254A90422AD0B0F1804F27D0A2F55D
:101104007C42904223D002F5806290421FD002F5C7
:10111400806290421BD002F57842904217D002F5CB
:101124007052904213D002F5806290420FD002F5C3
:10113400806290420BD0A2F59832904207D002F51B
:101144008062904203D002F58062904203D123F47E
:101154004073CA68134323F080034A6913438A68BF
:10116400C2620A688262084A904203D002F5806231
:10117400904201D10A690263026842F004020260EB
:1011840001224261036070470000014040B310B582
:10119400044690F83D30F3B1022384F83D302146F3
:1011A40051F8040BFFF78AFF012384F8463084F8D2
:1011B4003E3084F83F3084F8403084F8413084F87D
:1011C400423084F8433084F8443084F8453084F85D
:1011D4003D30002010BD80F83C30FFF72DFEDBE7EA
:1011E4000120704740B310B5044690F83D30F3B188
:1011F400022384F83D30214651F8040BFFF75EFFCB
:10120400012384F8463084F83E3084F83F3084F873
:10121400403084F8413084F8423084F8433084F814
:10122400443084F8453084F83D30002010BD80F807
:101234003C30FFF740FFDBE70120704740B310B5B7
:10124400044690F83D30F3B1022384F83D30214642
:1012540051F8040BFFF732FF012384F8463084F879
:101264003E3084F83F3084F8403084F8413084F8CC
:10127400423084F8433084F8443084F8453084F8AC
:101284003D30002010BD80F83C30FFF715FFDBE750
:101294000120704730B4036A026A22F0100202622D
:1012A4004468826922F4E6420D6842EA052223F08A
:1012B40020038D6843EA0513114DA84203D005F5B8
:1012C4008065A84206D123F08003CD6843EA051364
:1012D40023F040030A4DA84203D005F58065A842D7
:1012E40007D124F440644D6944EA85048D6944EAD5
:1012F4008504446082614A688263036230BC70473B
:101304000000014090F83C30012B28D010B5044671
:10131400012380F83C300C2A1CD8DFE802F0071BBC
:101324001B1B0C1B1B1B111B1B1B16000068FFF750
:10133400FBFD00200FE00068FFF7ACFF00200AE08F
:101344000068FFF729FE002005E00068FFF75CFE57
:10135400002000E00120002384F83C3010BD02206E
:10136400704738B590F83C30012B66D004460D46E2
:10137400012380F83C300C2A5AD8DFE802F00759E0
:1013840059591B5959593059595944000068FFF7A4
:10139400CBFD2268936943F0080393612268936943
:1013A40023F0040393612268936929690B439361D1
:1013B40000203EE00068FFF76DFF2268936943F464
:1013C400006393612268936923F4806393612268C4
:1013D4009369296943EA01239361002029E00068A5
:1013E400FFF7DAFD2268D36943F00803D36122686A
:1013F400D36923F00403D3612268D36929690B43B9
:10140400D361002015E00068FFF7FEFD2268D36970
:1014140043F40063D3612268D36923F48063D36106
:101424002268D369296943EA0123D361002000E0DB
:101434000120002384F83C3038BD0220FCE710B4BE
:10144400846824F47F4C42EA03220A4342EA0C02F1
:1014540082605DF8044B704790F83C30012B78D0E3
:1014640010B50446012380F83C30022380F83D3057
:101474000268936823F47F4323F0770393600B6837
:10148400602B4CD023D8402B54D011D8202B03D020
:101494000AD80BB1102B05D119462068FFF703FEBB
:1014A400002028E0012026E0302BF5D0012022E0A6
:1014B400502B0AD1CA6849680068FFF7CDFD502156
:1014C4002068FFF7F0FD002015E0012013E0B3F5DC
:1014D400805F3AD0B3F5005F14D0702B37D1CB685E
:1014E4004A6889680068FFF7AAFF2268936843F096
:1014F400770393600020012384F83D30002384F8AF
:101504003C3010BDCB684A6889680068FFF797FFD4
:101514002268936843F4804393600020EBE7CA6831
:1015240049680068FFF7ABFD60212068FFF7BBFD49
:101534000020E0E7CA6849680068FFF78DFD402194
:101544002068FFF7B0FD0020D5E70020D3E7012095
:10155400D1E70220704701F01F014FF0010C0CFA93
:1015640001FC036A23EA0C030362036A8A401343FF
:101574000362704710B504460846002942D194F826
:101584003E30DBB2013B18BF0123002B6ED1002893
:1015940051D1022384F83E30012201462068FFF72E
:1015A400DAFF2368334A934203D002F58062934200
:1015B40003D15A6C42F400425A6423682D4A934280
:1015C40049D0B3F1804F46D0A2F57C42934242D039
:1015D40002F5806293423ED002F5806293423AD093
:1015E40002F57842934236D002F57052934232D0DB
:1015F400A2F5943293422ED01A6842F001021A6086
:10160400002032E0042908D008290DD094F8413094
:10161400DBB2013B18BF0123B7E794F83F30DBB2DC
:10162400013B18BF0123B0E794F84030DBB2013B23
:1016340018BF0123A9E7042805D0082807D00223EE
:1016440084F84130A8E7022384F83F30A4E702235A
:1016540084F84030A0E79A6802F00702062A07D00F
:101664001A6842F001021A60002010BD0120FCE754
:101674000020FAE70000014010B50446084600299E
:1016840042D194F83E30DBB2013B18BF0123002B5A
:101694006ED1002851D1022384F83E300122014644
:1016A4002068FFF758FF2368334A934203D002F5BA
:1016B4008062934203D15A6C42F400425A64236814
:1016C4002D4A934249D0B3F1804F46D0A2F57C42D3
:1016D400934242D002F5806293423ED002F580628A
:1016E40093423AD002F57842934236D002F57052D2
:1016F400934232D0A2F5943293422ED01A6842F02B
:1017040001021A60002032E0042908D008290DD013
:1017140094F84130DBB2013B18BF0123B7E794F8DA
:101724003F30DBB2013B18BF0123B0E794F84030EF
:10173400DBB2013B18BF0123A9E7042805D0082820
:1017440007D0022384F84130A8E7022384F83F300D
:10175400A4E7022384F84030A0E79A6802F0070265
:10176400062A07D01A6842F001021A60002010BD50
:101774000120FCE70020FAE70000014090F83C203B
:10178400012A3DD010B40346012280F83C200222F5
:1017940080F83D2002685068946820F0700C086856
:1017A40040EA0C0050601A68164882421AD0B2F11E
:1017B400804F17D0A0F57C40824213D000F58060A2
:1017C40082420FD000F5806082420BD000F5784051
:1017D400824207D000F57050824203D0A0F59430C5
:1017E400824204D124F0800449682143916001229B
:1017F40083F83D20002083F83C005DF8044B7047DB
:101804000220704700000140002800F09B8070B562
:101814000D4604464F4B1B6803F00F038B4208D25E
:10182400CBB24C4A1370136803F00F038B4240F0A1
:101834008B80236813F0020F17D013F0040F04D029
:10184400454A936843F4E0539360236813F0080F08
:1018540004D0414A936843F4604393603E4A9368DA
:1018640023F0F003A1680B439360236813F0010F86
:1018740032D06368012B21D09A1E012A25D9364A19
:10188400126812F0020F61D033498A6822F0030211
:1018940013438B6000F004FF06462F4B9B6803F054
:1018A4000C036268B3EB820F16D000F0F9FE801BC4
:1018B40041F288339842F0D9032042E0264A126864
:1018C40012F4003FE0D101203BE0234A126812F0F9
:1018D400007FD9D1012034E01E4B1B6803F00F03B5
:1018E400AB4207D9EAB21B4B1A701B6803F00F0313
:1018F400AB422DD1236813F0040F06D0164A936827
:1019040023F4E053E1680B439360236813F0080F5A
:1019140007D0114A936823F46043216943EAC10361
:10192400936000F021F80C4B9B68C3F303130B4A3C
:10193400D35CD8400A4B18600A4B186800F064FE68
:10194400002070BD012070470120FAE70120F8E76C
:101954000120F6E7003C024000380240DCDE0108CA
:10196400100600200C06002008B5464B9B6803F0C7
:101974000C03082B05D00C2B43D0042B7FD14248F9
:1019840019E0404B5A6802F03F025B6813F4800F81
:1019940012D03C4B5968C1F388113B480023A1FB8A
:1019A4000001FEF72DFC374B5B68C3F301430133A1
:1019B4005B00B0FBF3F008BD324B5868C0F38810ED
:1019C4004FEA401CBCEB000C6EEB0E0E4FEA8E137C
:1019D40043EA9C634FEA8C11B1EB0C0163EB0E03F9
:1019E400DB0043EA5173C90011EB000C43F100031F
:1019F400990200234FEA8C2041EA9C51FEF700FC37
:101A0400D1E7204B5A6802F03F025B6813F4800F61
:101A140010D01C4B5968C1F388111B480023A1FB4B
:101A24000001FEF7EDFB174B5B68C3F30273B0FBD9
:101A3400F3F0C0E7134B5868C0F388104FEA401C1A
:101A4400BCEB000C6EEB0E0E4FEA8E1343EA9C6364
:101A54004FEA8C11B1EB0C0163EB0E03DB0043EA9C
:101A64005173C90011EB000C43F1000399020023E8
:101A74004FEA8C2041EA9C51FEF7C2FBD3E70348AE
:101A840099E700BF0038024040787D010024F4004B
:101A9400002800F0018270B582B00446036813F098
:101AA400010F41D0994B9B6803F00C03042B32D0F7
:101AB400964B9B6803F00C03082B27D0934B9B6831
:101AC40003F00C030C2B59D06368B3F5803F5BD053
:101AD400B3F5A02F5ED08D4B1A6822F480321A60C1
:101AE4001A6822F480221A606368002B5CD000F02C
:101AF400D7FD0546854B1B6813F4003F14D100F055
:101B0400CFFD401B6428F5D90320CCE17F4B5B68F3
:101B140013F4800FD2D07D4B1B6813F4003F03D025
:101B24006368002B00F0BA81236813F0020F60D0C1
:101B3400764B9B6813F00C0F4AD0744B9B6803F0F0
:101B44000C03082B3FD0714B9B6803F00C030C2B48
:101B540069D0E368002B75D06D4B01221A6000F048
:101B64009FFD0546694B1B6813F0020F61D100F01D
:101B740097FD401B0228F5D9032094E1634B5B6871
:101B840013F4800FA0D0C6E7604A136843F480338F
:101B94001360A9E75D4B1A6842F480221A601A6840
:101BA40042F480321A609FE700F07AFD0546574BF5
:101BB4001B6813F4003FB7D000F072FD401B64288B
:101BC400F5D903206FE1514B5B6813F4800FBAD150
:101BD4004E4B1B6813F0020F03D0E368012B40F057
:101BE4005F814A4A136823F0F803216943EAC10379
:101BF4001360236813F0080F49D06369002B33D0B6
:101C0400434B0122C3F8802E00F04AFD05463F4BAA
:101C14005B6F13F0020F3AD100F042FD401B022823
:101C2400F5D903203FE1394B5B6813F4800F90D161
:101C3400CEE7364A136823F0F803216943EAC10367
:101C44001360D6E7324B00221A6000F029FD0546E6
:101C54002E4B1B6813F0020FCBD000F021FD401B6C
:101C64000228F5D903201EE1294B0022C3F8802E57
:101C740000F016FD0546254B5B6F13F0020F06D0EE
:101C840000F00EFD401B0228F5D903200BE1236868
:101C940013F0040F76D01D4B1B6C13F0805F33D10F
:101CA40000230193194B1A6C42F080521A641B6C86
:101CB40003F080530193019B0125164B1B6813F419
:101CC400807F29D0A368012B3AD0052B3ED00F4B3F
:101CD4001A6F22F001021A671A6F22F004021A67BF
:101CE400A368002B3CD000F0DBFC0646074B1B6FBF
:101CF40013F0020F45D100F0D3FC801B41F288336E
:101D04009842F3D90320CEE00025D6E700380240FC
:101D140000004742007000406B4A136843F480732C
:101D2400136000F0BDFC0646674B1B6813F4807F0C
:101D3400C8D100F0B5FC801B0228F5D90320B2E01D
:101D4400624A136F43F001031367C9E75F4B1A6FCD
:101D540042F004021A671A6F42F001021A67BFE7E1
:101D640000F09EFC0646594B1B6F13F0020F08D07F
:101D740000F096FC801B41F288339842F3D903208B
:101D840091E0EDB9A369002B00F08C804F4A926872
:101D940002F00C02082A54D0022B17D04C4B00221C
:101DA4001A6600F07DFC0446484B1B6813F0007F64
:101DB40045D000F075FC001B0228F5D9032072E021
:101DC400424A136C23F080531364DBE7404B002238
:101DD4001A6600F065FC05463C4B1B6813F0007F57
:101DE40006D000F05DFC401B0228F5D903205AE020
:101DF400E369226A1343626A43EA8213A26A5208BD
:101E0400013A43EA0243E26A43EA0263226B43EA89
:101E140002732E4A53602E4B01221A6600F040FCD6
:101E240004462A4B1B6813F0007F06D100F038FCEF
:101E3400001B0228F5D9032035E0002033E0002000
:101E440031E0012B31D0214B5B6803F48001E2695E
:101E540091422CD103F03F02216A8A4229D1616A5E
:101E640047F6C0721A40B2EB811F24D103F440310B
:101E7400A26A5208013AB1EB024F1ED103F070621C
:101E8400E16AB2EB016F1AD103F0E043226BB3EBCA
:101E9400027F16D1002006E001207047012002E0F5
:101EA400012000E0002002B070BD0120FBE701200A
:101EB400F9E70120F7E70120F5E70120F3E7012026
:101EC400F1E70120EFE700BF007000400038024056
:101ED4000000474200230F2B00F2E38070B582B06C
:101EE40065E085684FEA430E032404FA0EF425EAFC
:101EF4000405CC6804FA0EF42C438460446824EA94
:101F040002044A68C2F300129A40224342605CE031
:101F1400DC08083450F8242003F00705AD004FF026
:101F24000F0E0EFA05FE22EA0E0E0A69AA4042EAD4
:101F34000E0240F824205CE0062200E0002202FAAF
:101F44000EF22A430234574D45F82420564A946829
:101F54006FEA0C0224EA0C054E6816F4801F01D0C7
:101F64004CEA0405504CA560E46802EA04054E6896
:101F740016F4001F01D04CEA04054B4CE56064687C
:101F840002EA04054E6816F4003F01D04CEA040549
:101F9400454C6560246822404D6815F4803F01D0AB
:101FA4004CEA0402404C226001330F2B77D8012203
:101FB4009A400C6804EA020C32EA0404F4D14C6836
:101FC40004F00304013C012C8BD94A6802F003029B
:101FD400032A09D0C4685D000322AA4024EA02044B
:101FE4008A68AA402243C2604A6802F00302022AB5
:101FF4008ED004684FEA430E032202FA0EF224EA5A
:1020040002044A6802F0030202FA0EF2224302605A
:102014004A6812F4403FC7D000220192234A546C0C
:1020240044F480445464526C02F480420192019A54
:102034009C08A51C1B4A52F8255003F0030E4FEAD6
:102044008E0E0F2202FA0EF225EA0205184A904279
:102054003FF474AF02F58062904216D002F58062BC
:10206400904214D002F58062904212D002F5806250
:10207400904210D002F5806290420ED002F5806248
:1020840090423FF459AF072259E7012257E7022251
:1020940055E7032253E7042251E705224FE702B034
:1020A40070BD704700380140003C014000380240D8
:1020B400000002400AB181617047090481617047E0
:1020C4007047000008B5054B5B69034200D108BDA9
:1020D400024B5861FFF7F4FFF9E700BF003C0140F1
:1020E40030B405682C6824F480242C600468636090
:1020F4008368402B05D0036899600368DA6030BCBC
:10210400704703689A600368D960F8E710B40368FD
:10211400D9B210390A4AA2FB01421209094CA25C45
:10212400C2655F2907D96FF3090304338365806DA2
:102134005DF8044B70476FF309038365F7E700BF4D
:10214400ABAAAAAAD4DE0108836A826992B9012BD8
:102154000AD0022B02D00BB100207047C36A13F0DF
:10216400807F28D100207047C36AB3F1C07F24D098
:1021740000207047B2F5005F09D0022B25D9032B4C
:1021840025D1C36A13F0807F23D100207047032B2D
:1021940003D8DFE803F01404140A00207047C36A6C
:1021A40013F0807F0DD100207047C36AB3F1C07F64
:1021B40009D000207047012070470120704701209A
:1021C40070470120704701207047012070470020AC
:1021D400704701207047000070B5044600F060FAB3
:1021E400002C5BD00546022384F83530002384F8A4
:1021F40034302268136823F00103136023681A68DB
:1022040012F0010F0AD000F04BFA431B052BF5D94D
:1022140020236365032084F8350070BD1A682049C3
:1022240011406268A0680243E068024320690243E7
:1022340060690243A0690243E0690243206A0243E1
:102244000A43616A04291ED01A602668756925F05C
:102254000705636A1D43042B07D1A36A1D43E36A80
:102264001BB12046FFF770FF90B975612046FFF758
:102274004DFFE26D3F23934083600020606501239E
:1022840084F83530C9E7E16A206B01430A43DBE790
:1022940040236365012084F83500BEE70120BCE7D4
:1022A4003F8010F038B50446856D90F8340001285D
:1022B4002BD0012084F8340094F83500C0B20128F2
:1022C40004D0002384F83430022038BD022084F87E
:1022D4003500002060652046FFF702FFE26D3F23D2
:1022E4009340AB602268136843F016031360236CB9
:1022F40023B12268136843F008031360226813684B
:1023040043F0010313600020DFE70220DDE790F8CB
:102314003530DBB2022B03D08023436501207047A4
:10232400052380F835300268136823F00103136035
:1023340000207047F0B583B0044600230193724B2C
:102344001D68724BA3FB0535AD0A876D3E68C26DEF
:1023540008239340334210D003681A6812F0040F24
:102364000BD01A6822F004021A60C26D082393404D
:10237400BB60436D43F001034365E26D0123934069
:10238400334209D02268526912F0800F04D0BB6036
:10239400636D43F002036365E26D042393403342AB
:1023A40009D02268126812F0020F04D0BB60636D7A
:1023B40043F004036365E26D10239340334224D059
:1023C4002268126812F0080F1FD0BB6023681A68D5
:1023D40012F4802F0DD01B6813F4002F04D1236C4A
:1023E4009BB12046984710E0A36C73B120469847F0
:1023F4000BE01A6812F4807F03D11A6822F00802F5
:102404001A60236C0BB120469847E26D2023934059
:10241400334255D02268126812F0100F50D0BB60BE
:1024240094F83530DBB2052B0ED023681A6812F409
:10243400802F33D01B6813F4002F2AD1636C002B38
:102444003ED0204698473BE02268136823F01603E9
:1024540013602268536923F080035361236CA3B192
:102464002268136823F008031360E26D3F2393404E
:10247400BB60012384F83530002384F83430236DA5
:10248400002B3FD0204698473CE0A36C002BE7D1BB
:10249400EBE7E36BA3B12046984711E01A6812F406
:1024A400807F09D11A6822F010021A60012384F88F
:1024B4003530002384F83430E36B0BB12046984761
:1024C400636DFBB1636D13F0010F17D0052384F81E
:1024D40035302268136823F001031360019B013334
:1024E4000193AB4204D823681B6813F0010FF5D1A4
:1024F400012384F83530002384F83430E36C0BB1C5
:102504002046984703B0F0BD10060020B5814E1B4D
:10251400002807DB00F01F02400901239340024A10
:1025240042F82030704700BF00E100E0002808DBDB
:102534000901C9B200F1604000F5614080F8001360
:10254400704700F00F000901C9B2014B19547047DC
:1025540014ED00E000B500F00700C0F1070CBCF179
:10256400040F28BF4FF0040C031D062B0FD9C31E04
:102574004FF0FF3E0EFA0CF021EA000199400EFAEA
:1025840003FE22EA0E0241EA02005DF804FB002386
:10259400EEE70000074AD36823F4E0631B041B0C36
:1025A400000200F4E060034343F0BF6343F40033EC
:1025B400D360704700ED00E010B50446054BD868C1
:1025C400C0F30220FFF7C6FF01462046FFF7AEFF27
:1025D40010BD00BF00ED00E008B5FFF799FF08BD8E
:1025E4000138B0F1807F0BD24FF0E0235861054AE7
:1025F400F02182F823100020986107221A617047A5
:102604000120704700ED00E010B504460E4B1A7827
:102614004FF47A73B3FBF2F30C4A1068B0FBF3F097
:10262400FFF7DEFF68B90F2C01D901200AE0002270
:1026340021464FF0FF30FFF7BFFF054B1C60002021
:1026440000E0012010BD00BF080600201006002095
:102654000C06002008B50B4B1A6842F400721A608D
:102664001A6842F480621A601A6842F480721A602E
:102674000320FFF78FFF0F20FFF7C6FFFEF7C0FB15
:10268400002008BD003C0240034A1168034B1B783C
:102694000B441360704700BF280700200806002081
:1026A400014B1868704700BF28070020034AD2F87E
:1026B400883043F47003C2F88830704700ED00E0BE
:1026C400DFF834D0FFF7F2FF0C480D490D4A002320
:1026D40002E0D458C4500433C4188C42F9D30A4AD3
:1026E4000A4C002301E013600432A242FBD300F041
:1026F40019F8FEF7ADF97047000002200000002031
:1027040014060020FCDE0108140600202C0700201B
:10271400FEE702440346934200D1704703F8011BCD
:10272400F9E7000070B50D4D0D4C641BA410002694
:10273400A64209D10B4D0C4C00F018F8641BA410F0
:102744000026A64205D170BD55F8043B98470136D2
:10275400EEE755F8043B98470136F2E7F4DE01084A
:10276400F4DE0108F4DE0108F8DE0108F8B500BF64
:10277400F8BC08BC9E467047F8B500BFF8BC08BC5E
:042784009E467047B6
:1027880053696E65000000005361770054726961F7
:102798006E676C65000000005069616E6F00000094
:1027A8004472756D0000000047756974617200001D
:1027B8002020202020202020202020202020202011
:1027C80000000000FF070000FF070000FF070000EF
:1027D800FF070000FF070000FF070000FF070000D9
:1027E800FF070000FF070000FF070000FF070000C9
:1027F800FF070000FF070000FF070000FF070000B9
:10280800FF070000FF070000FF070000FF070000A8
:102818002D08000016080000F20700002908000033
:1028280014080000220800005D0800001F080000CE
:102838005A0700003109000009090000B30600002A
:10284800A806000025090000910A0000BB05000049
:1028580059070000FD080000BD090000F20400004F
:10286800F30700009B090000BE080000690600008D
:102878001A080000D60900004B060000DB0700001C
:1028880086070000CA0900003D060000050900008F
:102898005908000013080000AA060000B20800004A
:1028A800DB080000EB060000250800004E080000C9
:1028B8001D09000024060000A5080000A707000065
:1028C800C10800008F0600003A09000072080000E5
:1028D800A90700002D070000340800003609000091
:1028E8005006000067080000DD07000088090000A6
:1028F800E60500007308000045080000D60800003F
:10290800CD0600002F08000039090000AA070000C2
:102918007B07000087070000A4090000B506000037
:1029280039080000BA0700004E09000069060000D7
:1029380084080000390800003A0800007207000007
:10294800150800001D090000A90600003508000050
:10295800740700005709000051060000BC08000079
:10296800260800008D080000DC0600005D08000055
:10297800B508000060070000FF070000F507000029
:10298800360900007D06000069080000CE07000037
:10299800EC08000077060000CF080000810800005E
:1029A80008080000380700002C0800000009000093
:1029B800C20600004D080000A90700003909000000
:1029C8006F060000A9080000F10700006E0800006B
:1029D800240700006B080000970800006807000043
:1029E80017080000C2070000F3080000B306000043
:1029F800AE080000AF070000BF080000DB060000BB
:102A0800C608000015080000EE0700009507000042
:102A18002C080000C5080000E70600006708000051
:102A2800A6070000F608000083060000E30800007F
:102A3800F3070000430800002D0700008508000088
:102A48007F0800003C07000017080000ED070000A1
:102A5800FB080000B506000097080000D00700003A
:102A68009A080000D6060000D708000033080000C6
:102A7800D80700009C07000036080000AC080000DA
:102A8800E00600006F080000A4070000E808000046
:102A9800AA060000E9080000D20700002808000084
:102AA800580700008E0800004D0800003407000099
:102AB80050080000E5070000BD080000BC06000043
:102AC800CD080000B80700007F08000002070000DA
:102AD800E1080000FD070000BE070000BD07000078
:102AE800530800008D080000E60600009508000065
:102AF800BB070000C1080000AE060000ED0800009A
:102B0800C9070000350800005907000093080000B5
:102B18003D080000380700004F080000E4070000E7
:102B2800B5080000BF060000D8080000B307000081
:102B38006A08000010070000EF080000ED07000019
:102B4800B9070000D90700005D080000640800000C
:102B5800F2060000A6080000C9070000A30800004C
:102B6800B706000003090000C30700001A080000A8
:102B78005B070000AE0800002C08000039070000C1
:102B88005B080000F40700008F080000D30600006F
:102B9800E4080000A507000063080000180700000B
:102BA800EB080000E1070000AE070000E2070000A4
:102BB800600800004F080000FC060000A80800009C
:102BC800D607000091080000C60600000A090000A8
:102BD800C7070000150800005A070000C1080000D8
:102BE800170800003D07000048080000150800000D
:102BF8007C080000C80600000A090000C60700009B
:102C08002D080000C1060000C90800003A080000AD
:102C1800DE070000070800009A080000CA08000044
:102C2800560600009C070000E9070000560800004F
:102C3800A106000039090000A20700001F080000D3
:102C48004507000064080000D9070000DC07000001
:102C5800D2080000BF0700008E080000EE06000042
:102C68009708000076070000940800009C07000001
:102C78000B090000E3070000CE070000B1070000C1
:102C88003F080000C4080000280700008208000070
:102C9800500800006B0800004E060000680900009C
:102CA800EA070000C607000041080000D708000036
:102CB80047070000EC0700005A080000470700001B
:102CC800530900001E070000270800001C08000028
:102CD800190800005106000083090000F6070000EB
:102CE800120700009E080000550800003907000080
:102CF80050070000B408000045070000F60800006F
:102D0800010700004F08000008080000DE07000067
:102D1800AF0600006509000041080000BC0600007D
:102D2800E408000006080000AE0700003D070000A8
:102D3800FA08000050070000C10800004907000019
:102D48007A080000F2070000AF070000BB07000088
:102D5800AD0800006908000014070000CC08000056
:102D6800C70700006E0800000F070000F008000009
:102D78000408000043080000960700009F080000B0
:102D8800160800001B0700002808000004080000BF
:102D9800F40700005508000050070000590600001D
:102DA800CB0A0000CF0600006B08000020050000D9
:102DB800C806000068090000D40900007304000078
:102DC8004E010000BB090000BA0C000073080000A7
:102DD8004D030000E2090000ED0500005309000062
:102DE800040700002A070000110B0000BD080000BE
:102DF8008C090000A00400008C0400006308000097
:102E0800210D00001B0A000082030000CE02000012
:102E1800340B000047090000900B0000C6040000B6
:102E2800F0020000A70A0000D5070000700A0000A1
:102E3800B4050000A2050000140900009C09000068
:102E4800780800002606000083050000B80B000083
:102E5800E0070000D90500008F070000B305000057
:102E6800390C000073080000BA060000DA050000FB
:102E7800140600004A0A0000B40B0000BD0500005B
:102E88007A060000C10600008D090000CB0A000088
:102E9800D1050000EF0600007B0900009909000039
:102EA800A80700007B06000004060000AE0A000028
:102EB800CD0A000086080000820400003A050000E0
:102EC800910A0000920A0000450800005C05000015
:102ED800F0040000AD090000C60A000088060000E2
:102EE8001D080000BF04000071080000B90A0000B6
:102EF800D00700004606000068050000DC09000055
:102F080040090000420800002E0600008806000064
:102F180055090000EE0900007706000006080000C9
:102F28007D060000F9080000DB0900007B070000AF
:102F380006070000850700003E090000420800005F
:102F48000408000075070000A1080000FE07000043
:102F580045080000A2070000B00800009308000020
:102F6800C40700000D0800007A070000B60800003A
:102F7800F4080000EA0700009C070000B7070000FB
:102F880008080000F8080000DC070000C00700007F
:102F9800D1070000100800005308000016080000C0
:102FA800A7070000E60700003908000057080000DE
:102FB800EB07000092070000EE070000440800003D
:102FC80067080000B5070000CA070000D607000020
:102FD800540800001008000002080000E90700007B
:102FE800CF070000380800001B0800000E0800008A
:102FF800DB07000007080000E90700003E080000A2
:10300800F8070000E2070000E107000025080000BB
:103018001008000015080000C2070000C4070000DF
:103028005408000020080000FA070000A907000063
:10303800070800001B08000029080000D707000047
:10304800D10700001508000032080000EB07000057
:10305800E7070000E6070000DE0700006908000037
:10306800FD070000D8070000C50700000808000099
:10307800320800001D080000D9070000C80700003A
:103088000E080000320800000F080000CB070000FF
:10309800E9070000FA0700004E080000E6070000F4
:1030A800E0070000DD0700001B0800003D080000E5
:1030B800F4070000E3070000E30700002008000011
:1030C8000708000020080000D7070000F5070000E7
:1030D800F30700002C080000FD070000F2070000BD
:1030E800F8070000F607000022080000E5070000C6
:1030F800FE070000F60700001E080000EF070000AA
:1031080010080000D8070000F807000013080000A6
:103118001308000001080000EA0700000208000088
:10312800F207000027080000E90700000A0800006D
:10313800E607000012080000F30700000808000076
:10314800F6070000FD0700001C080000F807000053
:10315800FF070000DC07000017080000FD0700005B
:103168001C080000D7070000010800000F08000035
:1031780014080000F2070000010800000808000019
:10318800E307000020080000F30700000108000022
:10319800ED070000FF070000EA0700001C08000018
:1031A800F3070000F107000012080000F107000013
:1031B800F8070000F0070000F5070000E10700002D
:1031C8003108000012080000EF070000DB070000CC
:1031D800FD070000E807000035080000FE070000B2
:1031E800ED07000006080000D307000029080000CA
:1031F80000080000EB070000FA0700001F080000A5
:10320800E707000006080000DE07000003080000CA
:10321800160800000408000001080000DF0700008D
:103228000E080000EC070000250800000008000058
:10323800EA070000F307000016080000ED07000089
:1032480018080000F4070000EC0700002A08000036
:10325800F0070000F10700000F0800000D0800004B
:10326800E30700001F080000DF070000EF07000069
:10327800160800001E080000E9070000EC0700001F
:10328800FD070000ED0700003A080000F007000005
:10329800DF0700000708000004080000EF0700002F
:1032A80023080000D9070000F30700001A080000EF
:1032B80005080000FC070000E7070000FE07000003
:1032C800F807000024080000DB070000E8070000FA
:1032D80004080000EA070000F407000033080000B3
:1032E800D4070000A007000075080000E7060000EA
:1032F800C80700007F090000B8080000C5060000E4
:103308000B0800003809000098070000AC0800000E
:1033180043080000B4070000D6080000E4070000D6
:103328004A070000B30800001908000096070000CB
:10333800E30800009C0800003307000001080000B3
:103348004A080000E6070000D6080000260800002A
:103358007A070000470800001D080000A0070000C9
:1033680065080000BE070000B3070000B3080000AE
:10337800030800006607000063080000C507000096
:10338800A6070000F9080000C30700004D07000069
:103398009A080000990700000A070000F2080000D8
:1033A800DC07000044070000610800007207000005
:1033B80095070000B70800009307000063070000A6
:1033C8009C080000970700005F07000085080000C0
:1033D800AA0700004307000093080000DD0700006B
:1033E8000808000032080000230700001D0800003C
:1033F800CD080000CF070000ED07000057080000C7
:1034080094070000390800008C0800009A070000A3
:10341800E60700007E080000190800007608000092
:1034280015080000830700006308000082080000F8
:103438001A080000380800000D0800009007000076
:103448005808000050080000B307000025080000D5
:10345800F4070000D00700009B080000D90700000F
:103468006D07000089080000DC070000D007000095
:1034780085080000940700003E0700008808000047
:10348800F30700007B07000068080000D007000071
:103498007307000060080000EE0700009F070000A7
:1034A80059080000CE070000C30700003E080000CE
:1034B800D3070000C707000031080000FA07000022
:1034C800D90700001B080000EE070000ED07000008
:1034D80028080000F1070000E707000025080000A1
:1034E800F6070000F10700001A080000F6070000C0
:1034F800F307000019080000FA070000F3070000AE
:1035080017080000F5070000F20700002108000076
:10351800F8070000E807000015080000FD07000094
:10352800F90700000F080000EF070000F807000087
:1035380013080000FA070000F40700000A0800005A
:10354800F8070000FE0700000D080000EA07000069
:103558000008000010080000EC0700000108000047
:1035680008080000E9070000020800000F08000032
:10357800EC0700000608000007080000EA07000042
:103588000908000007080000EE070000080800000E
:1035980000080000F30700000C080000F607000010
:1035A800F30700000E08000003080000F4070000FD
:1035B80003080000FC070000FB07000011080000DA
:1035C800F9070000F407000013080000FC070000DA
:1035D800ED0700000F080000FF070000F8070000D3
:1035E8000A080000F9070000FB07000007080000B0
:1035F800F8070000FD0700000A080000FB070000AC
:10360800FC07000001080000FE0700000108000098
:10361800FC070000F9070000010800000608000088
:10362800FE07000000080000FC070000F807000083
:103638000608000003080000FA070000040800005C
:10364800DF0700000A090000DF0600000E0800007E
:103658002A0A000018080000A00600009F060000C3
:10366800990A00009707000041060000D90A0000E7
:10367800E9070000CC070000B6070000D5070000E6
:103688009107000058080000820900006706000042
:103698002B060000B80A00001A070000D106000037
:1036A800C7080000C4080000DA0600008B07000005
:1036B800D2090000210700005A050000500A000046
:1036C800B1070000FB0600008C090000B0080000EC
:1036D8003F06000079070000DB09000042070000F0
:1036E800DD050000780A0000DA070000B7060000D0
:1036F8006D0900009D080000DD0600000D070000B0
:10370800790900006B08000052060000AC090000AF
:103718007D070000A4060000D3090000500800003F
:1037280004070000D007000035090000500700001A
:10373800A5060000D9090000730700003D06000037
:10374800D50900001208000089070000FF070000E3
:10375800730800002107000029070000D6090000AF
:10376800940700001F060000050A0000BE070000BD
:1037780044070000A0080000B40800000E0700007D
:103788004A070000B7090000800700005F06000034
:10379800F5090000760700002F0700002B0900003C
:1037A800B00800000E0700002B0700006C0900009D
:1037B80078070000A5060000180A00007807000036
:1037C8008C0600005E09000095080000370700001D
:1037D800670700001C09000060070000F0060000F1
:1037E800DC09000058070000840600006A09000090
:1037F8002F080000B2070000CB070000CC0800002B
:1038080011070000F4060000D10900008807000035
:1038180079060000B1090000ED0700007A070000F2
:103828003F080000BD080000FC0600002E0700004D
:10383800AD09000095070000C8060000C709000090
:10384800750700002C070000D4080000A408000039
:103858000B0700005607000063090000620700001C
:10386800E7060000D3090000650700000107000013
:10387800EC080000860800007507000073070000C8
:103888001E0900001A07000008070000FE090000D2
:1038980089070000AE0600002E0900006908000034
:1038A80066070000B20700002B090000E1060000CF
:1038B80012070000E609000093070000BD0600009B
:1038C8004C090000ED0700008407000026080000EE
:1038D800F80800000B0700000E0700007C09000034
:1038E800C3070000DD0600006F090000DE070000C6
:1038F800480700004C080000070900001B070000EB
:10390800170700008B09000063070000E0060000AD
:10391800DB0900009C070000EC060000AA08000074
:10392800B3080000510700006F07000022090000DB
:103938002607000017070000A3090000B2070000CF
:103948000A070000BD0800005108000082070000B7
:10395800A1070000260900000F070000F906000073
:10396800B0090000D3070000E606000009090000BE
:103978000E08000058070000FF0700003D0900007E
:10398800FC060000080700008C090000A4070000DE
:10399800FE0600005B090000D20700004B0700008C
:1039A8003A0800000E090000300700002407000054
:1039B8004409000089070000160700007B09000081
:1039C800E6070000260700004C080000DC0800009D
:1039D800510700004807000054090000490700008B
:1039E800F3060000A6090000E20700000307000034
:1039F800A0080000740800005307000099070000A1
:103A0800480900002E070000000700009109000087
:103A1800C80700001D070000F4080000490800005E
:103A28003B070000BE0700007809000038070000C7
:103A38000C070000CB080000430800000508000040
:103A4800B308000068070000F206000068080000DC
:103A5800A1090000F6060000C007000047090000A1
:103A68000F070000DC060000DD080000BF080000AA
:103A7800C1070000CB070000040900002007000070
:103A880018070000E3080000E0060000D507000062
:103A9800AD0900009D07000098070000F807000026
:103AA80058080000850700001C070000C409000032
:103AB8004B07000004070000D00900004F07000072
:103AC8006307000021090000F3070000AA070000AF
:103AD800560700003B090000AB0700006B0600001A
:103AE8007F09000020080000EF0600003C090000E4
:103AF8008D07000062070000260800006A08000021
:103B0800A907000079070000FA080000FC07000078
:103B1800980600005509000090080000BF06000044
:103B28005A080000AF0800005B070000B807000053
:103B38008E080000E707000068070000B9080000C9
:103B480079080000E406000040080000BE080000F4
:103B5800D6060000D5070000560900001F07000020
:103B6800B2070000B5080000FB0700008B07000043
:103B7800FC070000A5080000660700007E0700009B
:103B8800B5090000E30600007D0700004B090000AE
:103B98004D070000A1070000920800004608000039
:103BA8008A0700001B0700001C09000060060000CF
:103BB800430800003C0900003E080000CE05000054
:103BC800360A0000DA070000AC0800005A080000B6
:103BD8008B070000BD06000055080000C209000060
:103BE800390600003C0700000D0A0000E30A000047
:103BF800A905000075070000C4060000D2080000EF
:103C08009B0A0000E9060000640500005B04000050
:103C1800A4090000B808000098080000300A000055
:103C2800650900008C050000FB050000830A000000
:103C3800A70900009B070000D60700000108000044
:103C480039080000F9080000BB0700003B06000027
:103C580057080000C0070000D1060000E806000071
:103C6800270B00008A08000089070000980600005A
:103C7800F807000008090000CC070000D10900007F
:103C88003D06000085080000ED0600002108000040
:103C98009E0700002B0B0000E505000092060000BF
:103CA8008B0700001F080000A90800003A06000062
:103CB8007A0A000079070000EA08000021080000DD
:103CC80040080000A1070000140A0000490600008F
:103CD800600600002F080000C6090000FE0800006A
:103CE800760500000609000065070000D3070000FC
:103CF800720900009A070000620700009807000098
:103D080058080000DE070000760800007709000068
:103D1800E20700009E050000F40800009C0800006F
:103D280082050000FB070000DC0700009608000081
:103D3800D9060000FF080000F00700003B0800005B
:103D480014080000F1070000990700003908000076
:103D58006A0A00009E0500002308000066080000AB
:103D6800DB0800003D070000A50800000907000067
:103D78003F0800000208000011080000B307000017
:103D8800A0070000D1080000B507000007080000E0
:103D98009C080000DF0700006307000067080000B8
:103DA80052080000D5070000AF0700001308000004
:103DB800E90700003D080000E5070000CD07000006
:103DC800E50700004808000011080000B9070000D6
:103DD800E1070000FF070000090800002E080000A6
:103DE8003108000092070000F80700004E080000A4
:103DF800E5070000C90700001908000032080000A4
:103E0800CD0700000A080000EA070000FE070000CE
:103E1800FF0700005D080000C9070000AF070000A9
:103E28004E0800000808000014080000DE07000023
:103E380008080000C907000028080000450800001D
:103E4800ED070000A2070000140800001C0800008D
:103E5800E107000045080000CC070000E607000065
:103E68000C08000033080000EB070000D50700002D
:103E78003308000007080000E2070000FE07000002
:103E880000080000CB070000330800000E080000FF
:103E9800ED070000FE0700000A08000012080000F5
:103EA800B707000027080000ED070000ED07000035
:103EB800310800002C080000DA070000D9070000CC
:103EC80024080000F307000014080000EC070000B5
:103ED800FC070000D5070000280800001C080000A7
:103EE800D5070000FC0700001D0800000A080000B4
:103EF800DA07000019080000E607000008080000BB
:103F0800040800000C080000F2070000EF0700009A
:103F18003B080000E5070000E5070000090800006D
:103F280003080000DA07000027080000FA0700006D
:103F3800F4070000F20700000F0800000F08000057
:103F4800DE0700001D080000EA070000F207000075
:103F580015080000FB070000E8070000050800003E
:103F68002108000002080000EE070000F807000022
:103F780015080000E007000017080000F30700001C
:103F8800EF07000012080000000800001A080000EF
:103F9800ED070000F6070000EA070000FB07000035
:103FA8001E080000FA070000E807000018080000D3
:103FB8001A080000D2070000FD07000006080000EC
:103FC8001F080000E6070000FE07000005080000C3
:103FD800ED0700000C08000003080000FC070000C3
:103FE800070800000E080000E6070000FF070000B1
:103FF800FD070000F3070000EE07000014080000AA
:1040080021080000D8070000E3070000120800009C
:1040180001080000120800000F080000FC0700005B
:10402800E30700000D080000FB070000040800007B
:10403800FD07000022080000E6070000E80700006E
:104048001E080000F4070000ED070000F507000057
:1040580004080000FE0700001A080000F907000025
:1040680003080000EB0700000F080000F30700003A
:10407800F40700002808000005080000E607000013
:10408800EC0700000508000016080000FC07000007
:10409800F8070000FB070000EF0700000A0800000F
:1040A80006080000E80700001B080000FC070000E5
:1040B800F70700000D0800000108000006080000CE
:1040C800E5070000020800000F080000F8070000DC
:1040D800F40700000D080000F107000011080000B7
:1040E800F8070000F00700000C080000F4070000C3
:1040F8001F080000D0070000180800000D08000085
:1041080034080000F5070000E0070000F20700008F
:104118000208000039080000A8070000FB0700009B
:104128000C0800002C080000870700006E0800003B
:104138000F080000E0070000E20800001108000076
:10414800CA0700006F0700009F0700005E08000014
:10415800890800009B070000F70800004B070000D3
:10416800780700007B07000046070000DE08000013
:104178007E080000FB070000B80800009107000057
:104188006E070000CC07000075070000B5080000A6
:104198004C080000D9070000CB0800009C0700006D
:1041A800AE070000F00700006E070000A10800003D
:1041B800F2070000D10700002B080000BA07000032
:1041C800E50700005A080000B5070000FD080000D8
:1041D800D4070000A7070000DA07000089070000DD
:1041E80020080000F5070000CC070000A808000020
:1041F80031080000AE070000330800006A0700001D
:10420800950800009D070000B30700006108000042
:10421800280800000908000007080000C20700007D
:1042280086080000F40700008D070000060800005B
:10423800CA07000029080000E807000081070000FD
:10424800AC0800000B0800000E0800002808000059
:10425800D707000038080000820700009207000016
:10426800410800003B08000012080000790800001F
:10427800A60700006E0800008C0700008D070000EC
:10428800F5070000000800003608000024080000B8
:10429800D30700006A080000DF070000A707000036
:1042A80056080000E807000055080000B3070000A2
:1042B800890700003608000000080000ED0700002C
:1042C80063080000FA0700008B080000A50700003B
:1042D8006E07000002080000E6070000160800004C
:1042E80034080000F10700009E080000D90700000C
:1042F8009507000012080000E307000037080000D7
:10430800CA070000C70700004F080000E1070000C7
:10431800C50700005F080000F607000089080000D4
:10432800AE0700009D070000FB070000DD07000046
:10433800F10700001E080000FC0700007F080000CD
:10434800F0070000C707000017080000E507000095
:10435800FF070000DE070000F20700002708000042
:10436800FF070000F207000011080000F70700002F
:1043780021080000E3070000F3070000020800001E
:10438800FD070000FD070000FE070000010800000F
:104398000C080000FA0700000008000003080000ED
:1043A800F207000008080000F607000000080000F7
:1043B80001080000FE07000004080000FC070000D8
:1043C8000408000001080000F707000008080000C2
:1043D800FD070000F607000008080000F7070000C6
:1043E8000008000001080000FE070000090800009E
:1043F800FC070000FB07000005080000EF070000AD
:104408000708000003080000FC0700000708000078
:10441800FD07000000080000FD070000FA07000083
:1044280007080000FB070000F90700000C0800005F
:10443800F40700000208000003080000FA07000063
:1044480005080000FF070000FD0700000108000044
:10445800F907000002080000FE070000F807000046
:104468000C080000FD070000FC070000020800001F
:10447800F9070000FE070000090800000508000011
:10448800F6070000EC07000003080000FC07000026
:104498002A080000F5070000FB0700006D07000070
:1044A800B2070000B5070000FE090000B5060000CD
:1044B800B40600003D0900003C0800007707000032
:1044C800380900001D0800003D07000041080000F1
:1044D8004C070000550700004D090000EF070000D9
:1044E8002C070000D308000081070000B506000073
:1044F8006D0800001E0800007E070000FE0800008E
:1045080036080000410700009008000089070000F5
:10451800650700007A080000CD07000026080000A3
:10452800650800009E070000E2070000210800005F
:10453800B20700005B0800009A0800009807000016
:104548002E0800007D0800006E070000F707000035
:1045580073080000BF070000CA0700001608000023
:10456800C10700003F0800004F0800008107000055
:104578007F0800003B0800002E07000064080000C8
:10458800520800008E0700006F080000280800008D
:104598008807000065080000C60700003E07000005
:1045A800E90800003D08000066070000FD0800005B
:1045B800FE070000F40600009C0800000D0800003B
:1045C80032070000D0080000170800001907000093
:1045D800A0080000C607000042070000CF0800003E
:1045E800D007000084070000D4080000CB070000B3
:1045F8006507000087080000BC0700008A07000064
:1046080099080000BC070000B10700008C080000F2
:10461800AB070000D60700007C080000BE070000BA
:10462800E40700006F08000098070000DD0700009D
:104638008608000095070000EF07000064080000E6
:1046480082070000F50700005E080000C3070000AD
:104658003D08000057080000A007000038080000C7
:10466800300800006A0700005308000053080000E3
:1046780070070000660800003C08000058070000AA
:104688006108000025080000690700009B08000079
:104698002E0800005407000086080000F9070000F3
:1046A8005007000096080000EF07000059070000B7
:1046B800A8080000F50700003A070000A00800005D
:1046C800220800005E07000099080000F6070000B5
:1046D8007C07000091080000C30700008107000064
:1046E800AA080000CA0700007A0700008508000031
:1046F800DA070000A207000078080000E0070000C1
:10470800CD0700006A080000C0070000BC070000D1
:1047180044080000D2070000E40700006008000019
:10472800D2070000E907000056080000A9070000AA
:10473800F807000075080000BB0700001A08000011
:104748005F080000A50700001608000038080000F0
:104758008F0700004B080000470800007907000099
:104768005608000039080000700700005A080000C9
:104778003A080000830700007108000021080000C3
:1047880067070000680800001608000063070000BB
:104798008508000005080000730700009408000061
:1047A800EE0700007C0700009F080000EF070000EC
:1047B8007307000081080000E70700008807000071
:1047C8006E080000DB070000A20700006B0800006D
:1047D800CA070000A707000065080000DB07000003
:1047E800B607000063080000DE070000C6070000E7
:1047F80051080000CA070000D10700004D0800005A
:10480800C5070000FE0700003E080000B9070000C9
:104818000908000049080000AF0700000C08000064
:104828003408000093070000450800002308000032
:1048380064070000FF0800000C09000041070000A1
:1048480044070000980700008E08000036090000A1
:1048580079080000A10700005D0800004608000074
:1048680047070000930800005F0800009407000055
:10487800E90800007108000068070000FB07000055
:1048880035070000BF0700003E090000F3070000DD
:10489800850700001F080000BF070000A0070000F0
:1048A8002908000017080000A30700009D08000061
:1048B800390800001E07000022080000C607000093
:1048C800D8070000B708000091070000BA070000E9
:1048D8002C080000AF070000AC070000FB07000031
:1048E8004A08000035080000F907000083070000A7
:1048F800B9070000A408000020080000DD07000038
:104908006A080000C20700001D0800004B080000EC
:10491800660700001A080000530800001608000087
:1049280086080000C10700001907000017080000EA
:10493800A20800001408000021080000D9070000A0
:10494800A2070000A4080000F50700005A070000AD
:104958005A080000210800000F0800006108000044
:104968008C070000220700006D08000051080000B5
:1049780079070000500800008D0700007707000045
:104988009408000081070000850700005708000010
:10499800EC070000DA07000011080000DC0700003F
:1049A8008D0700005F0800003D0800009007000028
:1049B80066080000CB0700009F0700005C080000A5
:1049C8009D070000040800007E080000B8070000EA
:1049D800EA07000013080000A20700009B08000077
:1049E800820800006107000050080000D30800009A
:1049F8001409000091060000420800004C0700005E
:104A080001090000160800004D0600001507000007
:104A1800C407000011070000130B00004F06000038
:104A2800540700001A0B0000730300008C0B0000F1
:104A38002D0A0000D00600000C0900008F080000B5
:104A48008C040000CB0C0000EA040000E40700001E
:104A5800BB06000068060000D10700001909000025
:104A6800DF060000A7070000A703000034060000C7
:104A7800D90600007C060000A706000022070000F7
:104A8800FB030000E7060000040900007C070000A3
:104A9800C10800007307000018080000D0080000D3
:104AA8007D0A00009C070000620A0000E006000082
:104AB8005108000044090000520900006F09000075
:104AC8003B090000CA0700005A080000B5090000A9
:104AD800CB0800000C09000054070000480800003B
:104AE8005F0700009F0800001A070000F407000095
:104AF8005E060000040800002D08000054090000AC
:104B080008070000F0090000BF0600002E0A000098
:104B1800E70700007E0900002508000020090000C2
:104B2800EF080000980800008407000099090000B9
:104B380021080000740800000C0A00007D0700002E
:104B4800BC080000AE0800001C0700008607000033
:104B58008A070000BD050000A507000057070000F0
:104B6800D20500005E0600007E0700003405000044
:104B78003308000090070000FC0500004E08000004
:104B88004B0700008F060000420800004D07000098
:104B9800C806000075090000AC0600009309000073
:104BA8000B080000B3080000960700007A0900000F
:104BB8004007000080090000D1070000D808000065
:104BC800A7070000B408000039070000C608000065
:104BD800810700007808000045080000310800003F
:104BE800DA07000063080000C00700001F08000083
:104BF8002F080000490800004C0800003D0800008C
:104C08003B080000E10700002A0800004C080000EB
:104C18003D080000290800003F080000F7070000D1
:104C2800EF07000049080000F4070000EB07000048
:104C38002F08000003080000EA0700000A08000027
:104C4800C3070000D90700000A080000E3070000B6
:104C580009080000F1070000D2070000DA07000089
:104C6800E7070000DF070000180800000008000040
:104C7800E4070000F5070000F7070000DC07000064
:104C880016080000F2070000F20700000D080000F7
:104C98001B080000F70700000D080000F9070000D6
:104CA800010800000D0800002408000006080000A4
:104CB800F707000001080000E307000007080000EC
:104CC8000D08000002080000F00700000E080000B0
:104CD800EC07000002080000F6070000EF070000DC
:104CE800FA07000018080000ED0700000F08000090
:104CF80008080000EF07000008080000030800008B
:104D0800EF0700001C0800000D080000F307000072
:104D18000E08000002080000EF0700001608000057
:104D280005080000DD07000017080000FD07000067
:104D3800F507000008080000F3070000F20700006C
:104D48000F080000E9070000FD0700000008000048
:104D5800E80700000408000012080000F807000037
:104D68000408000014080000F2070000FF07000014
:104D780015080000FD070000FA07000013080000EE
:104D8800F2070000020800001708000008080000E9
:104D9800EC07000012080000FA07000016080000DF
:104DA80012080000F40700000308000014080000BF
:104DB800DA0700000708000015080000E1070000F6
:104DC8001008000002080000E907000011080000B0
:104DD80008080000E10700001F080000060800009E
:104DE800E207000015080000FF070000E2070000C6
:104DF8000908000002080000EF0700001E08000074
:104E080000080000ED0700001F080000EA07000086
:104E18000C08000030080000E2070000F707000057
:104E280004080000E9070000240800001408000036
:104E3800E307000009080000080800000208000055
:104E48000408000001080000E5070000060800004B
:104E580008080000FB07000002080000FD0700002A
:104E6800F207000012080000FB0700000608000017
:104E78000508000010080000F4070000F50700000E
:104E8800F707000003080000020800000E080000F1
:104E9800E8070000F507000009080000F307000014
:104EA8000C08000004080000D9070000FC070000F7
:104EB8000A080000E10700000B080000F2070000E4
:104EC800D90700000B08000008080000E1070000EF
:104ED8000E080000F1070000EE07000014080000AB
:104EE800FE070000EE0700000D080000E9070000BB
:104EF800FD0700000F080000FB0700000308000082
:104F080009080000FE070000FA0700000D0800006D
:104F180001080000020800000A0800000408000058
:104F2800F507000009080000F50700000708000061
:104F38000C08000005080000FE0700001708000024
:104F4800040800001F0800000808000012080000FC
:104F5800040800004A0800001008000016080000B5
:104F6800F50700001B0800001F08000024080000C7
:104F78001F0800001C0800002F080000450800005A
:104F8800F307000050080000EE070000DB070000F0
:104F9800060800003E080000DD070000E9070000E1
:104FA800F30700001B08000071070000D507000088
:104FB800C5080000FA070000800700001908000073
:104FC800FF0700004F0700009F0700005B08000074
:104FD8006F070000380800007C0800007707000011
:104FE800E50700002D0800008A070000BF07000041
:104FF800FA0700003D08000090070000F7070000CE
:105008007F080000A7070000F807000062080000FA
:10501800F80700006D070000EF0700002A080000ED
:105028008707000045080000CD0800008907000038
:10503800470800004F080000BB070000CE0700002B
:105048002208000008080000D70700003F080000F9
:10505800A10800008107000064080000AC080000F7
:10506800D2070000CC0700005E080000F30700002C
:105078006F07000028080000BF0800008A0700002A
:105088006408000098080000A0070000C507000099
:105098001E080000E20700009C0700003708000017
:1050A80066080000530700004A0800007D08000059
:1050B800640700001508000051080000940700006C
:1050C800950700002A080000030800006A0700008E
:1050D80059080000680800007D0700000708000064
:1050E8001D080000B50700008D0700000908000032
:1050F8002008000081070000350800007008000043
:105108005707000043080000490800009B070000FB
:10511800C30700003B080000E607000088070000FE
:105128005E0800007D080000680700005D080000B8
:105138004D0800009B070000C90700003B0800005D
:10514800F1070000AF0700005D0800004F080000ED
:105158005E0700005B080000490800008E07000099
:105168000108000044080000D3070000930700006E
:10517800470800003B080000730700005D080000B6
:10518800640800007E0700000D08000022080000E7
:10519800C5070000A90700004F0800001F0800000D
:1051A800A20700003E0800002D0800009D0700002F
:1051B8001A08000011080000E4070000E5070000D5
:1051C80024080000FC070000D60700001E080000A5
:1051D80013080000D0070000130800000E080000A4
:1051E800EE070000F907000016080000F9070000A4
:1051F800F007000013080000FD070000EB0700009F
:105208001208000003080000EC0700000A0800006C
:105218000F080000F1070000FD070000110800005A
:10522800EF070000FC0700000A080000F90700006B
:10523800F90700000D08000005080000F507000048
:10524800030800000D080000F5070000FB07000038
:105258000B080000FC070000F30700000908000025
:105268000B080000F20700000B0800000C08000003
:10527800ED070000000800000D080000F10700001D
:10528800FA0700001008000001080000F3070000FA
:105298000C08000005080000EF07000003080000E4
:1052A80009080000F5070000F807000011080000D1
:1052B80004080000EF07000003080000F9070000D9
:1052C800E307000022080000FB0700007807000041
:1052D800DB0700007907000019080000D00800006B
:1052E800FD06000091060000CF080000EC07000052
:1052F8008207000017090000AF070000C40700007C
:1053080073080000C8060000BC070000F908000088
:105318008907000085070000240900000D08000027
:105328002207000078080000CB0700009307000060
:105338008C080000D5070000F80700004E080000A0
:10534800A8070000E507000071080000F00700004A
:10535800020800004B080000C60700001F080000F4
:1053680025080000EF07000071080000C0070000D2
:105378005F070000620800002408000057070000CB
:105388008D080000B0080000450700004A0800002A
:1053980044080000420700006C0800003F080000B5
:1053A8008E0700009E0800002F0800003307000049
:1053B800510800002108000068070000C20800002A
:1053C8002B08000082070000BD080000A7070000A6
:1053D80030070000B8080000E90700005207000085
:1053E800B4080000CF07000043070000BA08000017
:1053F800B707000077070000D2080000B2070000D6
:105408007C070000AE080000C90700008307000001
:1054180091080000D9070000870700006E08000007
:10542800D9070000BE0700004E080000E50700008D
:105438002208000040080000A40700000808000037
:1054480040080000940700002008000070080000D1
:1054580093070000120800002D0800007A070000DA
:105468003908000054080000AB0700006508000078
:1054780055080000700700003808000047080000C1
:105488005D07000056080000510800006A07000088
:10549800630800002A08000066070000650800008D
:1054A8001F0800007B0700008A08000004080000AD
:1054B800630700009F080000E20700004E07000095
:1054C800AA080000E40700004F0700009908000040
:1054D800FB07000072070000A0080000F5070000A5
:1054E8007A07000093080000DA0700007907000037
:1054F8008E080000E8070000980700006F08000009
:10550800DA0700009E0700005D080000DD070000C4
:10551800C007000070080000E3070000DA07000079
:105528004F080000C3070000E40700004908000016
:10553800B3070000FE0700006A080000AB07000080
:10554800F70700006F080000AC0700001008000013
:1055580071080000B207000015080000500800009C
:105568009F0700001D080000340800009407000091
:105578004A080000380800007E070000690800009B
:1055880028080000710700007508000016080000D0
:105598007407000075080000050800007407000083
:1055A80082080000010800006A0700008C0800005B
:1055B800F4070000620700009008000001080000DE
:1055C8008007000082080000F50700008B07000034
:1055D8005F080000DF070000A1070000590800006D
:1055E800D8070000B907000050080000CF070000E6
:1055F800CC07000055080000D2070000D9070000BA
:105608005F080000CA070000D50700004D08000029
:10561800C0070000ED0700004A080000C6070000A8
:105628000A08000046080000BD0700000B0800003B
:1056380047080000800700005108000077080000B4
:10564800C7070000A5070000FB080000BB06000014
:10565800B0070000B508000031070000C7090000C6
:10566800200800007606000020080000100700004F
:10567800000900004A090000DE0700006706000074
:10568800670700002909000004080000E807000077
:10569800900600000D08000086090000630700005E
:1056A8001A070000F00600000A080000AB08000016
:1056B800E00700008E070000CB060000A2080000EB
:1056C8007B080000780600004C080000ED07000089
:1056D800E70700000809000021070000FC07000098
:1056E80024080000DD0700008B0800007607000092
:1056F800B80800005608000019080000FF0700005D
:1057080013070000920900007A080000DA07000079
:1057180019080000340700005C090000B308000005
:10572800480700007A07000027080000FD0800006D
:105738007708000094070000D60600005208000011
:105748001F090000BA070000CE0700009F070000ED
:10575800F4070000F3080000C00700001B07000062
:10576800F207000049080000560800001B08000066
:10577800AF0700001F070000860800009A08000015
:105788000B070000CE080000E9070000A207000090
:10579800F308000025070000280800009208000010
:1057A800EC070000EF070000BC070000D508000068
:1057B800F20700000E080000BC07000055070000B3
:1057C800590900004708000088070000D4070000B6
:1057D8007F070000B5080000920800004A07000093
:1057E8005B0700004E08000071080000FF0700007A
:1057F80098070000080700001408000002090000CC
:10580800CA0700005707000080070000E3070000F0
:10581800BF080000F5070000F10600004B07000074
:10582800F80800004609000088070000FE0500008F
:1058380030070000BE090000CD080000F607000090
:1058480027070000DC080000890800002F0A000074
:105858007A090000EB0700003D0600001C09000063
:10586800060A0000110A00008F0A00000008000064
:1058780006090000350700009E070000040B000021
:10588800C608000006090000CC0700003608000022
:10589800C609000012080000660800004009000060
:1058A800D6080000040B00005E060000FD0700009B
:1058B8002D08000000090000AD0B0000F1070000F2
:1058C80076070000A2080000830700007E09000098
:1058D8000A080000B907000023090000D2070000E9
:1058E80081080000E506000032070000F907000003
:1058F800D80700000E09000045080000C90600008E
:105908001B080000DA060000640800008408000094
:10591800480700006808000088070000DA06000051
:1059280012080000EE060000D4070000F807000087
:10593800C2070000D30600008D070000AA06000079
:1059480016070000A207000039080000C007000081
:105958007B0700005B070000F8060000080800004D
:105968003E090000FA060000B8080000CA07000057
:10597800C207000075090000240700002B0800007A
:10598800EB0800002E080000320900005C07000048
:10599800600800003B080000E3080000BE080000A3
:1059A800CB07000048080000090900009D07000017
:1059B80092090000A407000029080000F40800006C
:1059C800160800001D070000D7070000990700000F
:1059D800070A00004F06000025060000010A000023
:1059E80055070000550600009F0800004009000008
:1059F800D7070000A40600009808000079070000F7
:105A0800A2070000070A0000F7060000A006000031
:105A18008D09000021080000A50700009C07000070
:105A2800EE080000B1060000FF060000E10A0000D1
:105A380074070000CC050000F00800001C080000F6
:105A480067070000E4070000A8090000230600001B
:105A580014060000750A00000608000097060000FA
:105A68001A09000068080000030700000008000089
:105A7800E00900005907000004060000BC09000006
:105A8800A30800002E070000600900008807000036
:105A980095060000980800002F0900007C07000008
:105AA800A60600007309000052070000E306000084
:105AB800370A0000CC070000550600001608000051
:105AC8001009000032080000C80600008A0900001A
