:020000040800F2
:1000000000000220C1260008D90D0008DB0D000801
:10001000DD0D0008DF0D0008E10D00080000000004
:10002000000000000000000000000000E30D0008D8
:10003000E50D000800000000E70D0008E90D0008CC
:1000400011270008112700081127000811270008B0
:1000500011270008112700085D0600081127000875
:100060001127000811270008112700081127000890
:100070001127000811270008112700081127000880
:10008000F10D0008112700081127000811270008AA
:100090001127000811270008112700081127000860
:1000A0001127000811270008112700081127000850
:1000B0001127000811270008112700081127000840
:1000C0001127000811270008112700081127000830
:1000D0001127000811270008112700081127000820
:1000E0001127000811270008112700081127000810
:1000F0001127000811270008112700081127000800
:1001000011270008112700081127000811270008EF
:1001100011270008112700081127000811270008DF
:1001200011270008112700081127000811270008CF
:10013000112700080000000000000000112700083F
:1001400011270008112700081127000811270008AF
:10015000112700081127000811270008112700089F
:10016000112700081127000811270008112700088F
:1001700011270008112700081127000800000000BF
:10018000000000001127000800000000000000002F
:1001900011270008000000000000000011270008DF
:1001A000000000000000000000000000112700080F
:1001B000112700081127000811270008112700083F
:0401C00011270008FB
:1001C40010B5054C237833B9044B13B10448AFF38D
:1001D40000800123237010BD140A002000000000D9
:1001E4006C27000808B5034B1BB103490348AFF360
:1001F400008008BD00000000180A00206C270008D9
:1002040053B94AB9002908BF00281CBF4FF0FF3179
:100214004FF0FF3000F088B9ADF1080C6DE904CE61
:1002240000F006F8DDF804E0DDE9022304B07047CD
:100234002DE9F047089D8E4604468846002B4AD196
:100244008A42174662D9B2FA82F64EB1C6F1200349
:1002540001FA06F820FA03F3B74043EA0808B44069
:100264004FEA174E1FFA87FCB8FBFEF1230C0EFB76
:10027400118843EA084301FB0CF29A4209D9FB189E
:1002840001F1FF3080F0EA809A4240F2E7800239BF
:100294003B449A1AA3B2B2FBFEF00EFB102243EACF
:1002A400024300FB0CFC9C4509D9FB1800F1FF320A
:1002B40080F0D6809C4540F2D3803B44023840EA2B
:1002C4000140A3EB0C0300211DB1F3400022C5E95A
:1002D4000032BDE8F0878B4205D90DB1C5E90001B4
:1002E40000210846F5E7B3FA83F1002946D17345A6
:1002F40002D3824200F20581841A6EEB03020120CC
:100304009046002DE5D0C5E90048E2E7002A00F058
:100314009080B2FA82F6002E40F0A4808A1A030C70
:100324004FEA174E80B2BCB20121B2FBFEFC0EFBB9
:100334001C2243EA024304FB0CF29A4207D9FB183D
:100344000CF1FF3802D29A4200F2E080C4469B1AB4
:10035400B3FBFEF20EFB123340EA034302FB04F448
:100364009C4207D9FB1802F1FF3002D29C4200F2F2
:10037400CA8002461B1B42EA0C40A5E7C1F12006D5
:100384008B4022FA06F71F430EFA01F420FA06F313
:100394002EFA06FE4FEA1749234300FA01F81FFA22
:1003A40087FCBEFBF9F01C0C09FB10EE44EA0E447A
:1003B40000FB0CFEA64502FA01F209D93C1900F132
:1003C400FF3A80F09C80A64540F2998002383C4474
:1003D400A4EB0E041FFA83FEB4FBF9F309FB1344E8
:1003E4004EEA044403FB0CFCA44508D93C1903F170
:1003F400FF3E80F08280A4457FD9023B3C4443EA1F
:100404000040A4EB0C04A0FB02EC64457346E146F7
:1004140062D35FD05DB1B8EB030264EB090404FA64
:1004240006F622FA01F31E43CC40C5E9006400211C
:100434004FE7B1FBF2FC010C41EA0E4180B240EA05
:1004440001423B4638463C46B846BE462026B1FBF0
:10045400F7F1A2EB080241EA0C4166E7014618E70E
:1004640010462CE7C6F120022EFA02F3B740B14041
:1004740020FA02F24FEA174E0A43B3FBFEF8BCB26D
:100484000EFB1833110C41EA034108FB04F9B04098
:1004940089454FEA104380B23ED9791808F1FF3CF0
:1004A40001D289451FD8A1EB0901B1FBFEF909FB73
:1004B40004F80EFB191192B242EA0142424529D2D4
:1004C400BA1809F1FF31C4D24245C2D2A9F10201DE
:1004D4003A44BEE7F0459DD2BEEB02036CEB070C39
:1004E4000138E14696E7A7EB09094944A8F1020C53
:1004F400B1FBFEF909FB04F8DBE773467FE75046DE
:1005040066E70846FDE63B44023A33E7ACF1020CE9
:100514003B441CE749469CE7A1EB0901C446B1FBF7
:10052400FEF909FB04F8C4E7704700BF2DE9F04F5A
:100534008BB00024059406940794089409940194BC
:10054400344B1A6B42F080021A631A6B02F0800279
:100554000192019A02941A6B42F001021A631A6B17
:1005640002F001020292029A03941A6B42F0020210
:100574001A631A6B02F002020392039A04941A6B30
:1005840042F004021A631B6B03F004030493049BFC
:100594004FF4404BCDF814B001260696DFF87CA04A
:1005A40005A9504601F094FC4FF44079CDF814901D
:1005B400DFF86C8005A9404601F08AFC4FF410472F
:1005C4000597154D05A9284601F082FC2246594697
:1005D400504601F06DFD22464946404601F068FD53
:1005E40022463946284601F063FD05964FF48813E8
:1005F4000693079605A9284601F06AFC22460221C3
:10060400062001F0D7FF062001F0E4FF0BB0BDE89F
:10061400F08F00BF00380240000002400008024092
:100624000004024000B583B000210191094B1A6B0C
:1006340042F400121A631B6B03F400130193019B31
:100644000A46102001F0B6FF102001F0C3FF03B0EA
:100654005DF804FB0038024010B502F01FF8584B57
:100664001B68C01A31281FD902F018F8544B1860BF
:10067400544B1A68D36823F40073D360524801F0D2
:1006840044FE52490A680132514BA3FB02039B0802
:1006940003EB4303A2EB43030B60052B1DD8DFE8F8
:1006A40003F00720364C6379012001F009FD17E0BF
:1006B400444C226840F21B13D362E3608023454A12
:1006C40012684549404801F0EBFD2268D36843F4C1
:1006D4000073D360414800F06FFB012001F0F0FC8F
:1006E40010BD384C226840F21B13D362E3608023B0
:1006F400384A12683A49344801F0D2FD2268D36876
:1007040043F40073D360374800F056FBE5E72D4C03
:10071400226840F21B13D362E36080232D4A1268DF
:100724003149294801F0BCFD2268D36843F40073C1
:10073400D3602E4800F040FBCFE7224C226840F201
:100744006913D362E3604AF64443224A1268284993
:100754001D4801F0A5FD2268D36843F40073D360FB
:10076400244800F029FBB8E7164C226840F26913CC
:10077400D362E3608023174A12681F49124801F0CC
:100784008FFD2268D36843F40073D3601B4800F0E4
:1007940013FBA2E70B4C226840F26913D362E360B7
:1007A40080230C4A12681649074801F079FD226833
:1007B400D36843F40073D360124800F0FDFA8CE769
:1007C400340A0020E00A0020380A0020300A002001
:1007D400ABAAAAAA00000020080800208427000869
:1007E400080600208C270008080400209027000831
:1007F400C82700089C27000808020020A427000836
:1008040008000020AC27000872B6FEE700B58FB0E0
:1008140000230A930B930C930D930893099301936C
:1008240002930393049305930693079336484FF07A
:100834008042026043608360344A1268013AC260B5
:1008440003618023836100F09FFC002850D14FF4A2
:1008540080530A930AA92C4800F0FCFD002849D1D2
:10086400294800F0BDFC002846D1002308930993D1
:1008740008A9254800F080FF00283FD100220192FA
:1008840002920392059201A91F4800F039FD002845
:1008940036D1002300931E4A116B41F400111163F9
:1008A400126B02F400120092009A1A481A4A02606B
:1008B4004FF0C062426040228260C3604FF48062A5
:1008C40002614FF4805242614FF4804282614FF4DE
:1008D4008072C2614FF400320262436201F07AFC1A
:1008E40080B9094A0B4B53629A630FB05DF804FB5D
:1008F400FFF78AFFFFF788FFFFF786FFFFF784FF04
:10090400FFF782FFFFF780FFE00A002004000020C9
:1009140000380240380A00208860024000B58FB0D9
:1009240000230A930B930C930D930893099301935B
:100934000293039304930593069307931E481F4A57
:1009440002604360836040F6FF72C26003618361AA
:1009540000F01AFC28BB4FF480530A930AA91648E6
:1009640000F078FDF8B9144800F066FCE8B90023FB
:100974000893099308A9104800F0FEFEB8B9602353
:1009840001930023029303930593082201A90A48C3
:1009940000F0E5FC68B9084800F098FA0FB05DF87B
:1009A40004FBFFF731FFFFF72FFFFFF72DFFFFF7E2
:1009B4002BFFFFF729FF00BF980A00200004004026
:1009C40000B595B03422002107A801F0A0FE002351
:1009D400029303930493059306930093194A116CAD
:1009E40041F080511164126C02F080520092009A1E
:1009F400019315490A6822F4404242F480420A6095
:100A04000A6802F440420192019A022207920122EA
:100A14000A9210220B920D9307A801F037F868B9D7
:100A24000F2302930021039104910591069102A8DA
:100A340000F0E8FE20B915B05DF804FBFFF7E4FE12
:100A4400FFF7E2FE003802400070004008B501F0F4
:100A5400FFFDFFF7B5FFFFF769FDFFF7E3FDFFF7C4
:100A6400D5FEFFF75BFF00F067F90C4800F0D0F803
:100A740008210B4800F0FEFD0A4C0021204600F03E
:100A840077FD8023084A12680849094801F008FCE8
:100A94002268D36843F40073D360FEE78427000818
:100AA400980A0020E00A0020000000200808002026
:100AB400380A002082B000EB40000023019304E0D8
:100AC40000BF00BF019B01330193019B8342F7D315
:100AD40002B0704710B51420FFF7ECFF094CA3696E
:100AE40043F40043A3611420FFF7E4FFA36943F038
:100AF4000043A3611420FFF7DDFFA36943F400431F
:100B0400A36110BD0008024010B504463D4A936934
:100B140043F48043936110F0800F41D13A4A9369C2
:100B240043F00043936114F0400F40D0364A936978
:100B340043F48053936114F0200F3ED0334A9369F9
:100B440043F40073936114F0100F3CD02F4A93695F
:100B540043F480739361FFF7BDFF14F0080F38D09E
:100B6400294A936943F40043936114F0040F36D087
:100B7400254A936943F48053936114F0020F34D0EF
:100B8400224A936943F40073936114F0010F32D045
:100B94001E4A936943F480739361FFF79BFF10BD72
:100BA400A2F50062936943F400439361BBE7164ADC
:100BB400936943F080539361BDE7144A936943F00A
:100BC40000739361BFE7114A936943F080739361A3
:100BD400C1E70D4A936943F000439361C5E70A4AAC
:100BE400936943F080539361C7E7084A936943F0DC
:100BF40000739361C9E7054A936943F08073936175
:100C0400CBE700BF0008024000000240000402409D
:100C140038B50546002403E0FFF776FF0134E4B25B
:100C2400285D0028F8D138BD10B504463F4A9369C1
:100C340043F08043936110F0800F45D13C4A93699F
:100C440043F00043936114F0400F44D0384A936951
:100C540043F48053936114F0200F42D0354A9369D2
:100C640043F40073936114F0100F40D0314A936938
:100C740043F480739361FFF72DFF14F0080F3CD009
:100C84002B4A936943F40043936114F0040F3AD060
:100C9400274A936943F48053936114F0020F38D0C8
:100CA400244A936943F40073936114F0010F36D01E
:100CB400204A936943F480739361FFF70BFF40F676
:100CC400B830FFF7F7FE10BDA2F50062936943F454
:100CD40000439361B7E7164A936943F080539361E5
:100CE400B9E7144A936943F000739361BBE7114A6F
:100CF400936943F080739361BDE70D4A936943F0B0
:100D040000439361C1E70A4A936943F080539361B6
:100D1400C3E7084A936943F000739361C5E7054A42
:100D2400936943F080739361C7E700BF00080240F2
:100D3400000002400004024008B5194B1A6B42F04F
:100D440001021A631A6B42F002021A631A6B42F030
:100D540004021A63134A136843F08243136002F5D2
:100D64008062136843F4A023136002F58062136861
:100D740043F0A043136047F23050FFF79BFE33204B
:100D8400FFF752FF3220FFF74FFF0C20FFF74CFF15
:100D94002820FFF749FF0120FFF746FF08BD00BFE9
:100DA400003802400000024008B50248FFF730FF57
:100DB40008BD00BFB427000810B504468020FFF723
:100DC40033FFFFF7F1FF8020FFF72EFF2046FFF7E8
:100DD4001FFF10BDFEE7FEE7FEE7FEE7FEE77047F4
:100DE4007047704708B501F04DFC08BD08B50248CE
:100DF40001F09EFA08BD00BF380A002082B000212D
:100E040000910B4B5A6C42F480425A645A6C02F4BF
:100E140080420092009A01911A6C42F080521A6446
:100E24001B6C03F080530193019B02B0704700BF19
:100E34000038024010B582B00368B3F1804F04D08B
:100E44001E4A93422CD002B010BD044600230093E6
:100E54001B4A116C41F001011164126C02F0010291
:100E64000092009A1748184A02604FF0C06242602C
:100E74008360C3604FF4806202614FF48052426128
:100E84004FF480428261C3610362436201F0A2F9BC
:100E940018B90C4B63629C63D5E7FFF7B5FCF8E720
:100EA40000230193064B1A6C42F002021A641B6C75
:100EB40003F002030193019BC5E700BF0004004057
:100EC40000380240380A00208860024000B587B02C
:100ED40000230193029303930493059302680E4B3A
:100EE4009A4202D007B05DF804FB002300930B4B39
:100EF4001A6B42F002021A631B6B03F002030093A5
:100F0400009B0123019302230293059301A9044842
:100F140000F0DEFFE6E700BF0004004000380240B6
:100F24000004024030B4036A026A22F00102026241
:100F34004268846924F0730C0C6844EA0C0423F0BE
:100F4400020C8B6843EA0C03114DA84203D005F54B
:100F54008065A84205D123F00803CD682B4323F014
:100F640004030B4DA84203D005F58065A84207D1C0
:100F740022F440724D6945EA020C8A6942EA0C0285
:100F8400426084614A684263036230BC704700BFB8
:100F94000000014030B4036A026A22F480720262E3
:100FA4004268C46924F0730C0C6844EA0C0523F409
:100FB40000738C6843EA0423114CA04203D004F567
:100FC4008064A04206D123F40063CC6843EA04237E
:100FD40023F480630A4CA04203D004F58064A04249
:100FE40007D122F440524C6942EA04128C6942EA65
:100FF40004124260C5614A68C263036230BC704730
:101004000000014030B4036A026A22F48052026292
:101014004468C26922F4E6420D6842EA052223F4D8
:1010240000538D6843EA0533094DA84203D005F502
:101034008065A84204D124F480444D6944EA8514AF
:101044004460C2614A680264036230BC704700BFF6
:101054000000014010B4036A046A24F0010404622D
:10106400846924F0F00C4CEA021223F00A030B43C7
:10107400826103625DF8044B704710B4036A046A2A
:1010840024F010040462846924F4704C4CEA0232A3
:1010940023F0A00343EA0113826103625DF8044B69
:1010A4007047836823F070030B4343F007038360A6
:1010B40070477047704700000368324A904212D06C
:1010C400B0F1804F0FD0A2F57C4290420BD002F5D4
:1010D4008062904207D002F58062904203D002F50C
:1010E4007842904203D123F070034A681343254A9F
:1010F40090422AD0B0F1804F27D0A2F57C42904292
:1011040023D002F5806290421FD002F580629042A3
:101114001BD002F57842904217D002F570529042EB
:1011240013D002F5806290420FD002F580629042A3
:101134000BD0A2F59832904207D002F5806290421B
:1011440003D002F58062904203D123F44073CA684D
:10115400134323F080034A6913438A68C2620A680E
:101164008262084A904203D002F58062904201D123
:101174000A690263026842F00402026001224261C9
:10118400036070470000014040B310B5044690F876
:101194003D30F3B1022384F83D30214651F8040B6D
:1011A400FFF78AFF012384F8463084F83E3084F840
:1011B4003F3084F8403084F8413084F8423084F879
:1011C400433084F8443084F8453084F83D300020BE
:1011D40010BD80F83C30FFF72DFEDBE7012070479F
:1011E40040B310B5044690F83D30F3B1022384F8BF
:1011F4003D30214651F8040BFFF75EFF012384F8CC
:10120400463084F83E3084F83F3084F8403084F827
:10121400413084F8423084F8433084F8443084F810
:10122400453084F83D30002010BD80F83C30FFF795
:1012340040FFDBE70120704740B310B5044690F847
:101244003D30F3B1022384F83D30214651F8040BBC
:10125400FFF732FF012384F8463084F83E3084F8E7
:101264003F3084F8403084F8413084F8423084F8C8
:10127400433084F8443084F8453084F83D3000200D
:1012840010BD80F83C30FFF715FFDBE70120704705
:1012940030B4036A026A22F010020262446882696E
:1012A40022F4E6420D6842EA052223F020038D6809
:1012B40043EA0513114DA84203D005F58065A84201
:1012C40006D123F08003CD6843EA051323F04003DD
:1012D4000A4DA84203D005F58065A84207D124F43D
:1012E40040644D6944EA85048D6944EA8504446098
:1012F40082614A688263036230BC70470000014027
:1013040090F83C30012B28D010B50446012380F816
:101314003C300C2A1CD8DFE802F0071B1B1B0C1BFB
:101324001B1B111B1B1B16000068FFF7FBFD002095
:101334000FE00068FFF7ACFF00200AE00068FFF749
:1013440029FE002005E00068FFF75CFE002000E0B5
:101354000120002384F83C3010BD0220704738B5CA
:1013640090F83C30012B66D004460D46012380F8EA
:101374003C300C2A5AD8DFE802F0075959591B5956
:1013840059593059595944000068FFF7CBFD226878
:10139400936943F0080393612268936923F004037B
:1013A40093612268936929690B43936100203EE0AD
:1013B4000068FFF76DFF2268936943F4006393614B
:1013C4002268936923F4806393612268936929698D
:1013D40043EA01239361002029E00068FFF7DAFD66
:1013E4002268D36943F00803D3612268D36923F0E8
:1013F4000403D3612268D36929690B43D3610020B4
:1014040015E00068FFF7FEFD2268D36943F400632A
:10141400D3612268D36923F48063D3612268D369DA
:10142400296943EA0123D361002000E0012000235D
:1014340084F83C3038BD0220FCE710B4846824F4FE
:101444007F4C42EA03220A4342EA0C0282605DF8BE
:10145400044B704790F83C30012B78D010B504460B
:10146400012380F83C30022380F83D300268936801
:1014740023F47F4323F0770393600B68602B4CD0F5
:1014840023D8402B54D011D8202B03D00AD80BB129
:10149400102B05D119462068FFF703FE002028E031
:1014A400012026E0302BF5D0012022E0502B0AD178
:1014B400CA6849680068FFF7CDFD50212068FFF72E
:1014C400F0FD002015E0012013E0B3F5805F3AD071
:1014D400B3F5005F14D0702B37D1CB684A688968A4
:1014E4000068FFF7AAFF2268936843F077039360CC
:1014F4000020012384F83D30002384F83C3010BDE3
:10150400CB684A6889680068FFF797FF2268936888
:1015140043F4804393600020EBE7CA68496800689D
:10152400FFF7ABFD60212068FFF7BBFD0020E0E77B
:10153400CA6849680068FFF78DFD40212068FFF7FD
:10154400B0FD0020D5E70020D3E70120D1E7022039
:10155400704701F01F014FF0010C0CFA01FC036A03
:1015640023EA0C030362036A8A401343036270474D
:1015740010B504460846002942D194F83E30DBB247
:10158400013B18BF0123002B6ED1002851D1022347
:1015940084F83E30012201462068FFF7DAFF236811
:1015A400334A934203D002F58062934203D15A6CCA
:1015B40042F400425A6423682D4A934249D0B3F15D
:1015C400804F46D0A2F57C42934242D002F580621D
:1015D40093423ED002F5806293423AD002F57842BB
:1015E400934236D002F57052934232D0A2F594322F
:1015F40093422ED01A6842F001021A60002032E0B1
:10160400042908D008290DD094F84130DBB2013BFD
:1016140018BF0123B7E794F83F30DBB2013B18BF92
:101624000123B0E794F84030DBB2013B18BF01233B
:10163400A9E7042805D0082807D0022384F84130FC
:10164400A8E7022384F83F30A4E7022384F840305B
:10165400A0E79A6802F00702062A07D01A6842F047
:1016640001021A60002010BD0120FCE70020FAE707
:101674000000014010B504460846002942D194F800
:101684003E30DBB2013B18BF0123002B6ED1002892
:1016940051D1022384F83E30012201462068FFF72D
:1016A40058FF2368334A934203D002F58062934281
:1016B40003D15A6C42F400425A6423682D4A93427F
:1016C40049D0B3F1804F46D0A2F57C42934242D038
:1016D40002F5806293423ED002F5806293423AD092
:1016E40002F57842934236D002F57052934232D0DA
:1016F400A2F5943293422ED01A6842F001021A6085
:10170400002032E0042908D008290DD094F8413093
:10171400DBB2013B18BF0123B7E794F83F30DBB2DB
:10172400013B18BF0123B0E794F84030DBB2013B22
:1017340018BF0123A9E7042805D0082807D00223ED
:1017440084F84130A8E7022384F83F30A4E7022359
:1017540084F84030A0E79A6802F00702062A07D00E
:101764001A6842F001021A60002010BD0120FCE753
:101774000020FAE70000014090F83C20012A3DD007
:1017840010B40346012280F83C20022280F83D2058
:1017940002685068946820F0700C086840EA0C00F5
:1017A40050601A68164882421AD0B2F1804F17D09E
:1017B400A0F57C40824213D000F5806082420FD0B5
:1017C40000F5806082420BD000F57840824207D059
:1017D40000F57050824203D0A0F59430824204D1C7
:1017E40024F08004496821439160012283F83D205C
:1017F400002083F83C005DF8044B704702207047DA
:1018040000000140002800F09B8070B50D4604469E
:101814004F4B1B6803F00F038B4208D2CBB24C4AE8
:101824001370136803F00F038B4240F08B8023681E
:1018340013F0020F17D013F0040F04D0454A936835
:1018440043F4E0539360236813F0080F04D0414A33
:10185400936843F4604393603E4A936823F0F00333
:10186400A1680B439360236813F0010F32D06368BF
:10187400012B21D09A1E012A25D9364A126812F06A
:10188400020F61D033498A6822F0030213438B604C
:1018940000F004FF06462F4B9B6803F00C036268BC
:1018A400B3EB820F16D000F0F9FE801B41F28833AF
:1018B4009842F0D9032042E0264A126812F4003F0D
:1018C400E0D101203BE0234A126812F0007FD9D115
:1018D400012034E01E4B1B6803F00F03AB4207D911
:1018E400EAB21B4B1A701B6803F00F03AB422DD1F5
:1018F400236813F0040F06D0164A936823F4E053C8
:10190400E1680B439360236813F0080F07D0114A72
:10191400936823F46043216943EAC103936000F0B0
:1019240021F80C4B9B68C3F303130B4AD35CD840D8
:101934000A4B18600A4B186800F064FE002070BD62
:10194400012070470120FAE70120F8E70120F6E7BB
:10195400003C024000380240E0D80208100A00208F
:101964000C0A002008B5464B9B6803F00C03082BB7
:1019740005D00C2B43D0042B7FD1424819E0404BB7
:101984005A6802F03F025B6813F4800F12D03C4B9C
:101994005968C1F388113B480023A1FB0001FEF7FD
:1019A4002FFC374B5B68C3F3014301335B00B0FB8F
:1019B400F3F008BD324B5868C0F388104FEA401C5E
:1019C400BCEB000C6EEB0E0E4FEA8E1343EA9C63E5
:1019D4004FEA8C11B1EB0C0163EB0E03DB0043EA1D
:1019E4005173C90011EB000C43F100039902002369
:1019F4004FEA8C2041EA9C51FEF702FCD1E7204BD0
:101A04005A6802F03F025B6813F4800F10D01C4B3D
:101A14005968C1F388111B480023A1FB0001FEF79C
:101A2400EFFB174B5B68C3F30273B0FBF3F0C0E743
:101A3400134B5868C0F388104FEA401CBCEB000CF1
:101A44006EEB0E0E4FEA8E1343EA9C634FEA8C1141
:101A5400B1EB0C0163EB0E03DB0043EA5173C900E5
:101A640011EB000C43F10003990200234FEA8C2090
:101A740041EA9C51FEF7C4FBD3E7034899E700BF52
:101A84000038024040787D010024F400002800F072
:101A9400018270B582B00446036813F0010F41D08F
:101AA400994B9B6803F00C03042B32D0964B9B6834
:101AB40003F00C03082B27D0934B9B6803F00C0313
:101AC4000C2B59D06368B3F5803F5BD0B3F5A02FDE
:101AD4005ED08D4B1A6822F480321A601A6822F4A0
:101AE40080221A606368002B5CD000F0D7FD0546A5
:101AF400854B1B6813F4003F14D100F0CFFD401B4D
:101B04006428F5D90320CCE17F4B5B6813F4800F84
:101B1400D2D07D4B1B6813F4003F03D06368002BC5
:101B240000F0BA81236813F0020F60D0764B9B68F3
:101B340013F00C0F4AD0744B9B6803F00C03082B72
:101B44003FD0714B9B6803F00C030C2B69D0E36806
:101B5400002B75D06D4B01221A6000F09FFD0546E5
:101B6400694B1B6813F0020F61D100F097FD401B15
:101B74000228F5D9032094E1634B5B6813F4800FCA
:101B8400A0D0C6E7604A136843F480331360A9E722
:101B94005D4B1A6842F480221A601A6842F480325B
:101BA4001A609FE700F07AFD0546574B1B6813F453
:101BB400003FB7D000F072FD401B6428F5D9032024
:101BC4006FE1514B5B6813F4800FBAD14E4B1B6825
:101BD40013F0020F03D0E368012B40F05F814A4AFF
:101BE400136823F0F803216943EAC10313602368EF
:101BF40013F0080F49D06369002B33D0434B012203
:101C0400C3F8802E00F04AFD05463F4B5B6F13F08E
:101C1400020F3AD100F042FD401B0228F5D90320FF
:101C24003FE1394B5B6813F4800F90D1CEE7364A1D
:101C3400136823F0F803216943EAC1031360D6E76C
:101C4400324B00221A6000F029FD05462E4B1B681A
:101C540013F0020FCBD000F021FD401B0228F5D970
:101C640003201EE1294B0022C3F8802E00F016FD4C
:101C74000546254B5B6F13F0020F06D000F00EFDF6
:101C8400401B0228F5D903200BE1236813F0040F4D
:101C940076D01D4B1B6C13F0805F33D1002301936E
:101CA400194B1A6C42F080521A641B6C03F0805377
:101CB4000193019B0125164B1B6813F4807F29D0E7
:101CC400A368012B3AD0052B3ED00F4B1A6F22F09C
:101CD40001021A671A6F22F004021A67A368002B24
:101CE4003CD000F0DBFC0646074B1B6F13F0020FE1
:101CF40045D100F0D3FC801B41F288339842F3D9DC
:101D04000320CEE00025D6E7003802400000474219
:101D1400007000406B4A136843F48073136000F052
:101D2400BDFC0646674B1B6813F4807FC8D100F0E6
:101D3400B5FC801B0228F5D90320B2E0624A136F78
:101D440043F001031367C9E75F4B1A6F42F00402C3
:101D54001A671A6F42F001021A67BFE700F09EFC8F
:101D64000646594B1B6F13F0020F08D000F096FC87
:101D7400801B41F288339842F3D9032091E0EDB9F6
:101D8400A369002B00F08C804F4A926802F00C0289
:101D9400082A54D0022B17D04C4B00221A6600F0AC
:101DA4007DFC0446484B1B6813F0007F45D000F0CF
:101DB40075FC001B0228F5D9032072E0424A136C1B
:101DC40023F080531364DBE7404B00221A6600F0D3
:101DD40065FC05463C4B1B6813F0007F06D000F001
:101DE4005DFC401B0228F5D903205AE0E369226A0E
:101DF4001343626A43EA8213A26A5208013A43EA2D
:101E04000243E26A43EA0263226B43EA02732E4A04
:101E140053602E4B01221A6600F040FC04462A4B04
:101E24001B6813F0007F06D100F038FC001B022869
:101E3400F5D9032035E0002033E0002031E0012B08
:101E440031D0214B5B6803F48001E26991422CD1CB
:101E540003F03F02216A8A4229D1616A47F6C072BF
:101E64001A40B2EB811F24D103F44031A26A520814
:101E7400013AB1EB024F1ED103F07062E16AB2EB9A
:101E8400016F1AD103F0E043226BB3EB027F16D14A
:101E9400002006E001207047012002E0012000E05C
:101EA400002002B070BD0120FBE70120F9E701200A
:101EB400F7E70120F5E70120F3E70120F1E701202E
:101EC400EFE700BF007000400038024000004742C6
:101ED40000230F2B00F2E38070B582B065E08568C3
:101EE4004FEA430E032404FA0EF425EA0405CC68F1
:101EF40004FA0EF42C438460446824EA02044A6819
:101F0400C2F300129A40224342605CE0DC080834C9
:101F140050F8242003F00705AD004FF00F0E0EFA21
:101F240005FE22EA0E0E0A69AA4042EA0E0240F8B1
:101F340024205CE0062200E0002202FA0EF22A438A
:101F44000234574D45F82420564A94686FEA0C022F
:101F540024EA0C054E6816F4801F01D04CEA0405EF
:101F6400504CA560E46802EA04054E6816F4001FAC
:101F740001D04CEA04054B4CE560646802EA0405B0
:101F84004E6816F4003F01D04CEA0405454C6560E8
:101F9400246822404D6815F4803F01D04CEA0402C5
:101FA400404C226001330F2B77D801229A400C68F1
:101FB40004EA020C32EA0404F4D14C6804F0030489
:101FC400013C012C8BD94A6802F00302032A09D090
:101FD400C4685D000322AA4024EA02048A68AA4075
:101FE4002243C2604A6802F00302022A8ED00468C7
:101FF4004FEA430E032202FA0EF224EA02044A686C
:1020040002F0030202FA0EF2224302604A6812F45A
:10201400403FC7D000220192234A546C44F48044C8
:102024005464526C02F480420192019A9C08A51CEB
:102034001B4A52F8255003F0030E4FEA8E0E0F226E
:1020440002FA0EF225EA0205184A90423FF474AFF0
:1020540002F58062904216D002F58062904214D05C
:1020640002F58062904212D002F58062904210D054
:1020740002F5806290420ED002F5806290423FF4F5
:1020840059AF072259E7012257E7022255E70322F5
:1020940053E7042251E705224FE702B070BD7047B1
:1020A40000380140003C014000380240000002407A
:1020B4000AB181617047090481617047704700006B
:1020C40008B5054B5B69034200D108BD024B58615A
:1020D400FFF7F4FFF9E700BF003C014030B40568A6
:1020E4002C6824F480242C60046863608368402B8B
:1020F40005D0036899600368DA6030BC70470368F0
:102104009A600368D960F8E710B40368D9B210394B
:102114000A4AA2FB01421209094CA25CC2655F296A
:1021240007D96FF3090304338365806D5DF8044BAD
:1021340070476FF309038365F7E700BFABAAAAAA48
:10214400D8D80208836A826992B9012B0AD0022B7B
:1021540002D00BB100207047C36A13F0807F28D1EE
:1021640000207047C36AB3F1C07F24D000207047B9
:10217400B2F5005F09D0022B25D9032B25D1C36A00
:1021840013F0807F23D100207047032B03D8DFE8AE
:1021940003F01404140A00207047C36A13F0807F0C
:1021A4000DD100207047C36AB3F1C07F09D000206D
:1021B40070470120704701207047012070470120BB
:1021C40070470120704701207047002070470120AC
:1021D4007047000070B5044600F060FA002C5BD034
:1021E4000546022384F83530002384F8343022680D
:1021F400136823F00103136023681A6812F0010FB7
:102204000AD000F04BFA431B052BF5D92023636554
:10221400032084F8350070BD1A68204911406268B3
:10222400A0680243E06802432069024360690243F4
:10223400A0690243E0690243206A02430A43616AD7
:1022440004291ED01A602668756925F00705636A9B
:102254001D43042B07D1A36A1D43E36A1BB1204627
:10226400FFF770FF90B975612046FFF74DFFE26DEF
:102274003F239340836000206065012384F8353058
:10228400C9E7E16A206B01430A43DBE74023636546
:10229400012084F83500BEE70120BCE73F8010F040
:1022A40038B50446856D90F8340001282BD0012000
:1022B40084F8340094F83500C0B2012804D0002317
:1022C40084F83430022038BD022084F83500002020
:1022D40060652046FFF702FFE26D3F239340AB6049
:1022E4002268136843F016031360236C23B1226839
:1022F400136843F0080313602268136843F0010372
:1023040013600020DFE70220DDE790F83530DBB210
:10231400022B03D08023436501207047052380F8F6
:1023240035300268136823F00103136000207047FE
:10233400F0B583B0044600230193724B1D68724BC1
:10234400A3FB0535AD0A876D3E68C26D0823934033
:10235400334210D003681A6812F0040F0BD01A68C5
:1023640022F004021A60C26D08239340BB60436DDF
:1023740043F001034365E26D01239340334209D0E6
:102384002268526912F0800F04D0BB60636D43F081
:1023940002036365E26D04239340334209D022684B
:1023A400126812F0020F04D0BB60636D43F00403A3
:1023B4006365E26D10239340334224D0226812688F
:1023C40012F0080F1FD0BB6023681A6812F4802F24
:1023D4000DD01B6813F4002F04D1236C9BB120464D
:1023E400984710E0A36C73B1204698470BE01A6835
:1023F40012F4807F03D11A6822F008021A60236C59
:102404000BB120469847E26D20239340334255D0C8
:102414002268126812F0100F50D0BB6094F8353067
:10242400DBB2052B0ED023681A6812F4802F33D048
:102434001B6813F4002F2AD1636C002B3ED0204676
:1024440098473BE02268136823F016031360226860
:10245400536923F080035361236CA3B1226813688A
:1024640023F008031360E26D3F239340BB60012314
:1024740084F83530002384F83430236D002B3FD0AA
:10248400204698473CE0A36C002BE7D1EBE7E36BD5
:10249400A3B12046984711E01A6812F4807F09D14D
:1024A4001A6822F010021A60012384F835300023E0
:1024B40084F83430E36B0BB120469847636DFBB16D
:1024C400636D13F0010F17D0052384F835302268AB
:1024D400136823F001031360019B01330193AB42A2
:1024E40004D823681B6813F0010FF5D1012384F885
:1024F4003530002384F83430E36C0BB12046984720
:1025040003B0F0BD100A0020B5814E1B002807DB84
:1025140000F01F02400901239340024A42F8203090
:10252400704700BF00E100E0002808DB0901C9B2E0
:1025340000F1604000F5614080F80013704700F03E
:102544000F000901C9B2014B1954704714ED00E0A2
:1025540000B500F00700C0F1070CBCF1040F28BF60
:102564004FF0040C031D062B0FD9C31E4FF0FF3E82
:102574000EFA0CF021EA000199400EFA03FE22EA59
:102584000E0241EA02005DF804FB0023EEE70000BE
:10259400074AD36823F4E0631B041B0C000200F415
:1025A400E060034343F0BF6343F40033D3607047F8
:1025B40000ED00E010B50446054BD868C0F30220D6
:1025C400FFF7C6FF01462046FFF7AEFF10BD00BF70
:1025D40000ED00E008B5FFF799FF08BD0138B0F140
:1025E400807F0BD24FF0E0235861054AF02182F836
:1025F40023100020986107221A6170470120704758
:1026040000ED00E010B504460E4B1A784FF47A73CF
:10261400B3FBF2F30C4A1068B0FBF3F0FFF7DEFFF4
:1026240068B90F2C01D901200AE0002221464FF09D
:10263400FF30FFF7BFFF054B1C60002000E00120C6
:1026440010BD00BF080A0020100A00200C0A002058
:1026540008B50B4B1A6842F400721A601A6842F407
:1026640080621A601A6842F480721A600320FFF7CD
:102674008FFF0F20FFF7C6FFFEF7C0FB002008BD49
:10268400003C0240034A1168034B1B780B4413605F
:10269400704700BF280B0020080A0020014B18686F
:1026A400704700BF280B0020034AD2F8883043F457
:1026B4007003C2F88830704700ED00E0DFF834D0D2
:1026C400FFF7F2FF0C480D490D4A002302E0D458ED
:1026D400C4500433C4188C42F9D30A4A0A4C002368
:1026E40001E013600432A242FBD300F019F8FEF7B4
:1026F400ADF970470000022000000020140A0020F9
:1027040000D90208140A00202C0B0020FEE7024422
:102714000346934200D1704703F8011BF9E7000018
:1027240070B50D4D0D4C641BA4100026A64209D1B2
:102734000B4D0C4C00F018F8641BA4100026A642A4
:1027440005D170BD55F8043B98470136EEE755F8BE
:10275400043B98470136F2E7F8D80208F8D8020893
:10276400F8D80208FCD80208F8B500BFF8BC08BCC9
:102774009E467047F8B500BFF8BC08BC9E4670473B
:1027840053696E65000000005361770054726961FB
:102794006E676C65000000005069616E6F00000098
:1027A4004472756D00000000477569746172000021
:1027B4002020202020202020202020202020202015
:1027C40000000000FF070000FF070000FF070000F3
:1027D400FF070000FF070000FF070000FF070000DD
:1027E400FF070000FF070000FF070000FF070000CD
:1027F400FF070000FF070000FF070000FF070000BD
:10280400FF070000FF070000FF070000FF070000AC
:102CC400FF070000FE070000FE070000FF070000EA
:102CD400FF070000FE070000FF070000FF070000D9
:102CE400FE070000FE070000FF070000FF070000CA
:102CF400FF070000FF070000FF070000FF070000B8
:102D0400FF0700000008000000080000FF070000A3
:102D1400FF070000FF070000FF070000FF07000097
:102D2400FF070000FF070000FF070000FF07000087
:102D3400FF070000FF070000FF070000FF07000077
:102D4400FE070000FE070000FF070000FF07000069
:102D5400FF070000FF070000FF070000FF07000057
:102D6400FF070000FF070000FF070000FF07000047
:102D7400FF070000FF070000FF070000FF07000037
:102D8400FF070000FF070000FF070000FF07000027
:102D9400FF070000FF070000FF070000FF07000017
:102DA400FF070000FF070000FF0700000008000005
:102DB40000080000000800000008000000080000EF
:102DC40000080000000800000008000000080000DF
:102DD40000080000FF0700000008000000080000D1
:102DE40000080000FF070000FF070000FF070000C5
:102DF400FF070000FF070000FF070000FF070000B7
:102E0400FF070000FF070000FF070000FF070000A6
:102E1400FF070000FF070000FF070000FF07000096
:102E2400FF070000FF070000FF070000FF07000086
:102E3400FF070000FF070000FF070000FF07000076
:102E4400FF070000FF070000FF070000FF07000066
:102E5400FF070000FF070000FE070000FF07000057
:102E6400FF070000FF070000FF070000FF07000046
:102E7400FF070000FF070000FF070000FF07000036
:102E8400FF070000FF070000FF070000FF07000026
:102E9400FF070000FF070000FF070000FF07000016
:102EA400FF070000FF070000FF070000FF07000006
:102EB400FF070000FE070000FE070000FE070000F9
:102EC400FE070000FE070000FE070000FF070000E9
:102ED400FE070000FE070000FE070000FF070000D9
:102EE400FF070000FE070000FE070000FE070000C9
:102EF400FE070000FE070000FF07000000080000B6
:102F040000080000FF070000FF070000FF070000A3
:102F1400FF070000FF070000FF070000FF07000095
:102F2400FF070000FF070000000800000008000081
:102F3400FF070000FF070000FF0700000008000073
:102F44000008000000080000FF070000000800005F
:102F540000080000FF070000FF070000FF07000053
:102F6400FF070000FF070000FF070000FE07000046
:102F7400FE070000FE070000FE070000FE07000039
:102F8400FE070000FE070000FE070000FE07000029
:102F9400FE070000FE070000FE070000FE07000019
:102FA400FE070000FE070000FE070000FF07000008
:102FB400FF070000FF070000FF070000FF070000F5
:102FC400FF070000FF070000FF070000FF070000E5
:102FD400FF07000000080000FF070000FF070000D3
:102FE400FF070000FF0700000008000000080000C1
:102FF400000800000008000000080000FF070000AF
:10300400FF070000FF070000FF070000FF070000A4
:10301400FF070000FF070000FF070000FF07000094
:10302400000800000008000000080000FF0700007E
:10303400FF0700000008000000080000000800006E
:10304400000800000008000000080000000800005C
:10305400000800000008000000080000000800004C
:10306400000800000008000000080000FF0700003E
:10307400FF070000FF07000000080000FF07000032
:10308400FF070000FF070000FE070000FE07000026
:10309400FE070000FE070000FE070000FD07000019
:1030A400FD070000FE070000FE070000FE07000009
:1030B400FE070000FE070000FE070000FF070000F7
:1030C400FF070000FF070000FF070000FF070000E4
:1030D400FF070000FF070000FF070000FF070000D4
:1030E400FF0700000008000000080000FF070000C0
:1030F400FF070000FF070000FF070000FF070000B4
:10310400FF070000FF07000000080000010800009E
:10311400010800000008000000080000000800008A
:10312400FF070000FF070000FF070000FF07000083
:10313400FF070000FF070000FF070000FF07000073
:10314400FF070000FF070000FF070000FF07000063
:10315400FE070000FE070000FE070000FD07000058
:10316400FD070000FE070000FE070000FF07000047
:10317400FF070000FF070000FF070000FF07000033
:10318400FF070000FF070000FF070000FF07000023
:10319400FF070000FF070000FF070000FF07000013
:1031A400000800000008000000080000FF070000FD
:1031B400FF070000FE070000FE070000FF070000F5
:1031C400FE070000FE070000FF070000FF070000E5
:1031D400FE070000FE070000FE070000FE070000D7
:1031E400FE070000FE070000FE070000FE070000C7
:1031F400FE070000FF070000FE070000FE070000B6
:10320400FE070000FE070000FE070000FE070000A6
:10321400FE070000FE070000FE070000FF07000095
:10322400FE070000FD070000FD070000FE07000088
:10323400FF070000FE070000FE070000FE07000075
:10324400FE070000FE070000FF070000FF07000064
:103254000008000001080000010800000108000047
:103264000108000001080000010800000108000036
:103274000108000001080000000800000008000028
:10328400000800000008000000080000000800001A
:103294000108000001080000000800000008000008
:1032A40000080000000800000108000001080000F8
:1032B40001080000000800000108000001080000E7
:1032C4000108000000080000FF070000FF070000DD
:1032D400FF070000FE070000FE070000FF070000D4
:1032E400FF070000FE070000FF070000FF070000C3
:1032F400FF070000FF070000FF070000FF070000B2
:103304000008000001080000010800000108000096
:103314000108000002080000020800000208000082
:103324000208000001080000000800000008000076
:103334000008000000080000FF070000000800006B
:1033440000080000FF070000FE070000FF07000060
:10335400FF070000FE070000FE070000FF07000053
:10336400FF070000FF070000FF070000FF07000041
:10337400FF0700000008000000080000000800002B
:10338400FF0700000008000000080000000800001B
:10339400FF070000FF070000FF070000FE07000012
:1033A400FF070000FF070000FF070000FE07000002
:1033B400FF070000000800000008000000080000EB
:1033C40000080000000800000008000000080000D9
:1033D400FF070000000800000008000000080000CB
:1033E40001080000010800000008000000080000B7
:1033F400000800000008000000080000FF070000AB
:103404000008000000080000000800000008000098
:10341400FF070000FF070000FF070000FF07000090
:10342400FF070000FF070000FF070000FF07000080
:10343400FE070000FE070000FF070000FE07000073
:10344400FD070000FE070000FE070000FF07000064
:103454000008000000080000FF070000FF0700004C
:103464000008000001080000000800000008000037
:1034740000080000FF070000000800000108000029
:1034840000080000FF070000FF070000000800001C
:103494000008000000080000000800000008000008
:1034A400FF070000FF070000FF070000FF07000000
:1034B400FE070000FE070000FE070000FE070000F4
:1034C400FE070000FE070000FE070000FE070000E4
:1034D400FF070000FF070000FF070000FF070000D0
:1034E400FF070000FF0700000008000000080000BC
:1034F400FF070000FF0700000008000000080000AC
:103504000108000001080000010800000008000094
:103514000108000001080000010800000008000084
:10352400FF070000FF07000000080000FF0700007D
:103534000008000000080000FF0700000008000069
:103544000108000000080000FF070000FE0700005B
:10355400FF070000FF070000FF070000FF0700004F
:10356400FF070000FF07000000080000000800003B
:10357400FF070000FF07000000080000000800002B
:103584000008000000080000FF070000FF0700001B
:10359400FF070000FF070000FF070000FE07000010
:1035A400FE070000FF070000FF070000FF07000000
:1035B400FE070000FE070000FE070000FE070000F3
:1035C400FE070000FD070000FD070000FD070000E6
:1035D400FD070000FC070000FC070000FC070000DA
:1035E400FD070000FE070000FD070000FD070000C6
:1035F400FE070000FF070000FF070000FF070000B0
:10360400FF070000FE070000FF070000000800009D
:1036140000080000FF070000FF0700000108000089
:103624000208000002080000010800000008000071
:1036340000080000FF070000FF070000FE0700006D
:10364400FE070000FF07000000080000000800005B
:103654000108000001080000000800000008000044
:10366400FF070000FE070000FD070000FD07000043
:10367400FE070000FE070000FD070000FD07000034
:10368400FE070000FE070000FF070000000800001E
:103694000008000001080000010800000008000004
:1036A400FE070000FE070000FF070000FF07000000
:1036B400FF070000FE070000FE070000FF070000F0
:1036C400FF070000FF070000FF070000FF070000DE
:1036D400FF070000FF07000000080000FF070000CC
:1036E40000080000010800000008000000080000B5
:1036F400000800000008000000080000FF070000A8
:10370400FF070000FE070000FE070000FE070000A0
:10371400FF070000FF070000000800000208000087
:10372400020800000308000002080000000800006E
:103734000008000000080000000800000108000064
:10374400010800000208000002080000020800004E
:103754000108000000080000000800000008000044
:103764000108000001080000000800000108000032
:103774000008000002080000010800000008000022
:1037840000080000FE07000000080000FF0700001A
:10379400FF070000FF070000FD070000FE07000010
:1037A400FD070000FE070000FF070000FE07000001
:1037B40000080000010800000008000000080000E4
:1037C400FF070000FF070000FF070000FF070000DD
:1037D400FE070000FF0700000108000001080000C8
:1037E40003080000010800000008000001080000B0
:1037F400FF0700000208000000080000FE070000A8
:10380400FF070000FC070000FE070000FE070000A1
:10381400FD070000FE070000FC070000FE07000093
:10382400FF07000000080000010800000108000074
:1038340001080000FF070000FE070000FF0700006A
:10384400FF070000FE070000FE070000FF0700005E
:10385400FE0700000008000000080000FE0700004A
:10386400FD070000FE070000FD070000FD07000043
:10387400FD070000FE070000FF070000FF0700002F
:103884000008000001080000FE070000FF07000018
:10389400000800000108000001080000FF07000004
:1038A400FF0700000008000000080000FF070000F8
:1038B400000800000108000000080000FD070000E7
:1038C400FE070000FF070000FF07000000080000DB
:1038D40000080000010800000208000000080000C1
:1038E4000108000000080000FE070000FD070000BA
:1038F400FE070000FF070000FD070000FE070000B0
:10390400FE070000FE070000010800000108000097
:1039140000080000FF070000000800000208000083
:10392400FD070000F6070000E9070000D4070000C7
:10393400B807000095070000680700003207000080
:10394400F5060000AF06000060060000080600004F
:10395400A905000045050000DA0400006A0400001F
:10396400F703000081030000090300009102000036
:1039740019020000AD010000740100005D010000A7
:103984003C010000240100001B01000011010000A3
:103994001101000018010000280100003D01000091
:1039A400560100007A010000A1010000CC010000D2
:1039B400FC0100003602000072020000AF020000A9
:1039C400F50200003A03000083030000CF03000067
:1039D4001E0400006B040000B30400000405000092
:1039E4005F050000B4050000FE0500005506000058
:1039F400CF0600003C0700005C07000063070000DE
:103A040092070000BC070000F70700003C08000014
:103A14004F080000660800008B080000AF08000093
:103A2400CB080000E30800003709000093090000F8
:103A3400BD090000E5090000F4090000CD090000FB
:103A4400B5090000D0090000C90900006809000098
:103A540006090000E8080000CF080000590800002B
:103A6400C70700005F070000FE060000FC06000018
:103A740026070000FF060000F006000024070000EF
:103A840074070000850700005A070000540700006F
:103A94004C07000052070000500700000807000010
:103AA400920600003A06000025060000DC0500002E
:103AB40045050000C5040000A3040000A70400009D
:103AC4008A0400009A040000B8040000C70400003F
:103AD400E70400000B05000068050000E305000092
:103AE400380600007E060000B2060000DC06000076
:103AF4000C070000360700005E070000770700008F
:103B0400810700007E07000082070000B70700005D
:103B1400F40700000C0800000A0800000E0800006A
:103B240046080000BB08000043090000A509000086
:103B3400F2090000100A0000000A0000FF0900005A
:103B4400E9090000CE090000CA090000CE090000FE
:103B5400D3090000CC090000C4090000B309000027
:103B6400B7090000CE090000F1090000380A00007E
:103B7400820A0000BC0A0000D80A0000F30A000010
:103B8400ED0A0000BA0A0000B00A0000AE0A000004
:103B94007E0A0000390A0000F9090000B609000095
:103BA40062090000FA0800008E08000038080000CE
:103BB400FC070000E4070000DC070000C707000062
:103BC400A20700007E070000640700005107000000
:103BD4005207000057070000450700001B070000BC
:103BE400DD060000910600003B060000DC05000035
:103BF400750500003205000008050000E50400001A
:103C0400DD040000E40400000405000034050000A5
:103C140072050000AF050000DD0500000B06000082
:103C2400320600006C060000BB0600000607000018
:103C3400230700000A070000E0060000A1060000B8
:103C4400670600003C06000026060000250600006A
:103C540013060000020600001406000050060000CF
:103C6400AF060000230700009B07000009080000BE
:103C74007F080000FD0800006C090000B409000082
:103C8400E8090000200A00004D0A0000720A000042
:103C94008F0A0000AA0A0000BD0A0000AE0A000054
:103CA400860A0000710A00006B0A00005E0A000028
:103CB4005A0A0000600A0000730A00008E0A00001D
:103CC400B00A0000CE0A0000CE0A0000C90A0000B3
:103CD400C40A0000C10A0000AE0A00007E0A000007
:103CE4002E0A0000D2090000900900004C090000CF
:103CF400F8080000AB080000720800004908000042
:103D04002108000006080000EA070000D1070000AF
:103D1400B707000093070000700700004707000082
:103D24002407000007070000E6060000BD060000A7
:103D3400900600005F0600001F060000EF0500006B
:103D4400C50500009A0500008105000083050000F8
:103D540098050000AF050000C5050000E20500005D
:103D64000D06000035060000550600007B06000025
:103D7400AA060000DC060000000700001C07000083
:103D840034070000450700005507000066070000DF
:103D9400810700009E070000C9070000FC0700001F
:103DA4003D08000094080000F10800005A090000D2
:103DB400D4090000550A0000BF0A00001F0B0000D0
:103DC400840B0000D60B0000120C0000300C000025
:103DD400420C0000420C0000250C0000010C000005
:103DE400DC0B0000BE0B00009E0B0000830B0000E8
:103DF4006B0B0000610B00006A0B0000730B0000EA
:103E0400830B00009F0B0000C40B0000E20B0000BA
:103E1400F80B00000B0C0000110C0000120C000049
:103E2400030C0000DC0B0000A80B0000770B000063
:103E3400460B00000C0B0000C70A0000850A0000B6
:103E44004F0A00000B0A0000C109000089090000A4
:103E54005C0900002B090000F4080000C108000000
:103E64008F080000600800002C080000F207000022
:103E7400B30700006C07000033070000FE060000D3
:103E8400CC0600009E0600007306000056060000E3
:103E940043060000430600004B0600005B060000DA
:103EA400710600008C060000B5060000DC06000068
:103EB400FF0600001F0700003E070000580700002F
:103EC4006F07000096070000C3070000EC0700001E
:103ED400120800004408000081080000B80800002F
:103EE400FC0800004E090000A4090000060A0000B6
:103EF400720A0000E20A0000570B0000C10B000028
:103F0400120C00005F0C0000B10C0000030D000057
:103F1400550D00009E0D0000D70D0000040E00009A
:103F2400240E00003E0E0000610E00008A0E000008
:103F3400B80E0000F10E0000350F0000760F0000EF
:103F4400A20F0000C10F0000DB0F0000F40F0000FF
:103F5400FF0F0000ED0F0000D60F0000BA0F0000A5
:103F6400960F0000660F0000270F0000D90E000016
:103F7400760E0000040E00008A0D00001B0D0000E8
:103F8400AE0C0000350C0000B80B0000380B00002C
:103F9400C40A00005C0A0000F90900009B09000043
:103FA4003B090000E90800009C0800004C080000E0
:103FB400FD070000AF07000053070000E9060000FA
:103FC4008806000027060000C705000068050000F9
:103FD40003050000A204000048040000F1030000EF
:103FE4009B0300004B03000000030000B802000024
:103FF4007F0200005202000024020000F5010000CC
:10400400CC010000AA0100008E0100007201000032
:104014005C0100004E010000420100003901000073
:10402400340100003A01000049010000560100007B
:104034006001000075010000A1010000DD01000025
:10404400260200006C020000A9020000E502000044
:104054001D030000570300008F030000CB03000082
:104064000D040000510400009A040000E304000061
:104074002905000066050000A6050000F005000003
:104084003F0600008F060000DB0600002A07000040
:1040940070070000A7070000E10700001B080000EC
:1040A40048080000680800008A080000B008000002
:1040B400CA080000D8080000E4080000EE08000068
:1040C400F5080000F6080000F6080000FE080000ED
:1040D4000B0900000F0900000A0900000209000092
:1040E400FB080000F4080000E7080000D308000003
:1040F400B7080000920800006D08000043080000A3
:104104000F080000D00700008907000044070000E2
:1041140004070000C70600008C06000053060000D8
:104124001C060000EC050000C40500009D0500000D
:104134007705000056050000420500003B0500001D
:10414400340500002F0500002D0500002A0500009D
:104154002705000027050000320500004705000080
:104164005C050000710500008B050000A805000037
:10417400C2050000D8050000F00500000B06000091
:104184002D0600005706000082060000AF0600005E
:10419400DA06000001070000260700004C070000B3
:1041A4006D0700008A070000AA070000CD07000081
:1041B400F30700001D0800004A0800007B08000007
:1041C400A8080000CE080000EF080000090900005C
:1041D4002009000039090000560900007309000095
:1041E40091090000AB090000BD090000C6090000E8
:1041F400CA090000CF090000D4090000D709000053
:10420400D3090000CB090000C3090000B509000070
:10421400A009000089090000740900005B0900007E
:10422400400900002909000010090000F1080000FD
:10423400CB080000A40800007E0800005908000014
:104244003408000010080000EC070000C407000058
:104254009C07000074070000470700001A070000CD
:10426400F0060000CD060000B00600009406000031
:1042740079060000600600004A06000034060000CB
:104284001D0600000D06000004060000FB050000EA
:10429400ED050000DD050000CF050000C7050000A6
:1042A400C6050000C4050000BE050000B6050000F8
:1042B400B6050000BE050000CD050000DC050000C9
:1042C400EB050000FA0500000C06000025060000BE
:1042D400460600006D0600009C060000D2060000A1
:1042E4000E0700004E0700008E070000C9070000FB
:1042F400020800003C08000076080000B108000035
:10430400ED08000029090000630900009C09000071
:10431400D1090000020A00002D0A0000560A00001C
:104324007B0A00009F0A0000C00A0000E00A0000A7
:10433400FC0A0000110B00001E0B0000270B0000FC
:104344002D0B00002D0B0000280B00001F0B00009C
:10435400120B0000010B0000EE0A0000D80A000056
:10436400BF0A0000A20A00007F0A0000590A0000E8
:10437400320A0000090A0000DE090000B609000044
:1043840090090000670900003709000003090000D4
:10439400CC08000096080000610800002D08000009
:1043A400F8070000C407000093070000630700003B
:1043B4003507000006070000DC060000B706000011
:1043C40094060000710600004D0600002E06000051
:1043D4001406000000060000EF050000E4050000DC
:1043E400E0050000E3050000EA050000F405000014
:1043F400000600000C0600001D0600003406000044
:104404004F0600006E0600008F060000B306000091
:10441400DA060000030700002B0700005207000023
:104424007A070000A5070000D5070000090800006E
:104434003D0800006E0800009E080000CB08000044
:10444400F60800001D090000420900006809000088
:1044540090090000BA090000E6090000110A0000F2
:104464003A0A0000600A0000820A0000A40A000060
:10447400C50A0000E50A0000010B00001D0B000046
:10448400380B0000510B0000660B0000750B000098
:104494007E0B0000840B0000870B00008B0B0000D8
:1044A4008D0B00008A0B0000810B00006F0B0000D5
:1044B400580B00003E0B0000220B0000FF0A000016
:1044C400D60A0000AB0A0000820A00005B0A000062
:1044D400340A0000090A0000D9090000A7090000F5
:1044E400720900003C09000006090000D008000021
:1044F4009A080000630800002B080000F50700007C
:10450400C50700009B070000740700004F07000068
:104514002C0700000C070000EE060000CF06000088
:10452400B20600009906000089060000810600001A
:1045340081060000850600008D0600009906000033
:10454400AB060000C3060000DF060000FF06000003
:10455400240700005007000081070000B80700008E
:10456400F20700002E0800006A080000A6080000F8
:10457400E40800002709000070090000BC090000DD
:104584000A0A0000590A0000A80A0000F60A0000FE
:10459400430B0000910B0000E00B00002F0C000007
:1045A4007D0C0000C90C0000140D00005D0D00001E
:1045B400A20D0000E20D00001B0E00004D0E0000D5
:1045C400780E00009D0E0000C00E0000E10E0000F9
:1045D400000F0000190F00002B0F0000330F000024
:1045E400330F00002C0F00001F0F00000B0F000002
:1045F400F10E0000D20E0000AD0E0000850E00008A
:10460400590E0000290E0000F50D0000BE0D00003B
:10461400820D0000410D0000FB0C0000AF0C0000F7
:104624005F0C00000E0C0000BA0B0000650B0000CC
:104634000D0B0000B40A0000580A0000FB0900003A
:104644009B09000038090000D60800007408000027
:1046540012080000B00700004F070000F106000038
:10466400960600003A060000DE05000083050000FF
:104674002D050000DC040000900400004804000044
:1046840002040000C1030000850300004C03000085
:1046940014030000DF020000AE02000084020000E8
:1046A4006102000046020000320200002402000001
:1046B4001A0200001402000011020000130200009C
:1046C400190200002202000030020000440200002F
:1046D4005F02000081020000A7020000CF02000078
:1046E400F8020000230300004E0300007D030000D5
:1046F400B1030000E8030000220400005D04000090
:1047040097040000D20400000C05000046050000D8
:104714007F050000B9050000F20500002B0600002B
:104724005F0600008E060000BA060000E3060000E3
:104734000A0700002C0700004B0700006407000074
:104744007A0700008D0700009E070000AD070000F7
:10475400BA070000C6070000CE070000D10700001A
:10476400D0070000CA070000C1070000B30700001B
:10477400A00700008A070000730700005C07000020
:10478400450700002D07000013070000F506000090
:10479400D5060000B30600008E0600006A0600007D
:1047A40047060000280600000A060000EF05000086
:1047B400D4050000BC050000A5050000900500001C
:1047C4007B05000068050000590500004E05000047
:1047D40049050000480500004B0500004E05000097
:1047E40053050000580500005E0500006605000042
:1047F400710500007F05000091050000A50500007B
:10480400BD050000D5050000EF0500000906000005
:104814002506000044060000670600008D0600001F
:10482400B4060000DD060000060700002F070000A4
:104834005707000080070000A8070000CF0700000A
:10484400F60700001E080000470800007108000079
:104854009A080000C0080000E308000003090000F3
:10486400210900003E0900005809000070090000F9
:10487400850900009A090000AD090000BE09000086
:10488400CA090000D3090000D7090000D9090000B3
:10489400D6090000CF090000C5090000B8090000CE
:1048A400A809000096090000810900006B090000B6
:1048B400520900003809000019090000F708000037
:1048C400D2080000AB08000082080000590800006C
:1048D4003108000009080000E0070000B7070000E5
:1048E4008A0700005B0700002C070000FE0600009A
:1048F400D1060000A60600007E060000580600004F
:104904003606000015060000F5050000D605000077
:10491400B80500009B050000820500006D0500003D
:104924005E050000530500004A0500004305000031
:104934003E0500003B0500003C050000400500006A
:1049440048050000560500006905000082050000C6
:10495400A0050000C1050000E305000005060000F5
:10496400280600004C060000740600009F060000A4
:10497400CD060000FC0600002C0700005E070000C6
:1049840090070000C3070000F70700002A08000092
:104994005E08000092080000C5080000F708000047
:1049A4002509000050090000780900009D09000055
:1049B400BE090000DD090000F8090000120A000029
:1049C400290A00003D0A00004D0A00005A0A0000AE
:1049D400640A00006A0A00006C0A00006B0A000006
:1049E400670A0000600A0000550A0000460A000039
:1049F400340A00001F0A0000080A0000EE09000043
:104A0400D1090000B10900008E0900006A09000004
:104A1400430900001A090000EF080000C208000062
:104A2400930800006508000037080000090800002A
:104A3400DB070000AE0700007F07000050070000FE
:104A440022070000F8060000D2060000B0060000AD
:104A54009006000073060000580600003E060000A1
:104A64002606000010060000FC050000ED0500000D
:104A7400E3050000DC050000D9050000D8050000AE
:104A8400D9050000DB050000E0050000E805000092
:104A9400F405000007060000200600003D060000A3
:104AA4005F06000082060000A5060000CA0600009A
:104AB400EF060000150700003E0700006A0700002B
:104AC40099070000C9070000FB0700002D0800003B
:104AD4005F08000092080000C3080000F40800000A
:104AE400240900005309000082090000B1090000F4
:104AF400E00900000F0A00003B0A0000650A0000FC
:104B04008C0A0000B00A0000D20A0000F00A00007B
:104B14000B0B0000210B0000340B0000440B0000C1
:104B2400500B0000590B00005F0B0000600B0000ED
:104B34005D0B0000540B0000480B0000370B000015
:104B4400230B00000A0B0000ED0A0000CD0A000050
:104B5400AA0A0000850A00005E0A0000340A000068
:104B6400070A0000D9090000A9090000790900001A
:104B74004909000017090000E5080000B308000017
:104B8400800800004B08000015080000DF07000043
:104B9400A90700007507000045070000180700007A
:104BA400F0060000CC060000AB0600008B060000F7
:104BB4006F0600005706000043060000330600009D
:104BC4002806000023060000220600002506000037
:104BD4002C060000370600004406000053060000BF
:104BE4006706000081060000A2060000C906000056
:104BF400F506000024070000570700008B0700009B
:104C0400C1070000F8070000320800006E08000029
:104C1400AE080000F0080000340900007809000024
:104C2400BD090000010A0000460A0000890A0000CC
:104C3400CC0A0000100B0000570B00009D0B000075
:104C4400E10B0000220C0000600C0000990C000035
:104C5400CE0C0000000D00002D0D0000570D0000CB
:104C64007B0D0000990D0000B30D0000C80D00007D
:104C7400DA0D0000E80D0000F20D0000F70D000051
:104C8400F70D0000F20D0000E80D0000D80D000043
:104C9400C30D0000A70D0000870D0000630D000088
:104CA4003C0D0000110D0000E20C0000AE0C0000F1
:104CB400750C0000360C0000F20B0000AB0B00007A
:104CC400620B0000180B0000CA0A00007B0A0000F7
:104CD400290A0000D6090000810900002C090000FF
:104CE400D6080000810800002D080000DB07000042
:104CF4008907000039070000E90600009A06000051
:104D04004C060000FF050000B40500006D0500001E
:104D14002A050000EB040000B10400007A0400003E
:104D24004704000017040000EA030000C003000069
:104D34009B0300007D030000650300005203000094
:104D4400450300003B03000035030000330300006B
:104D5400340300003A030000430300005103000041
:104D6400630300007903000091030000AC0300001A
:104D7400C8030000E7030000070400002A04000041
:104D84004F04000078040000A4040000D0040000D4
:104D9400FE0400002B0500005805000083050000F8
:104DA400AF050000DB050000070600003306000025
:104DB4005C06000084060000A9060000CC06000082
:104DC400EC06000008070000230700003B07000072
:104DD4005207000066070000790700008B070000F7
:104DE4009B070000A8070000B1070000B8070000F7
:104DF400BD070000BF070000BF070000BC0700009C
:104E0400B4070000AA0700009E0700008F070000F7
:104E14007E0700006C0700005907000044070000EB
:104E24002F0700001807000000070000E706000035
:104E3400CF060000B8060000A20600008E0600009F
:104E44007B0600006A0600005806000046060000C3
:104E540034060000220600001306000005060000C8
:104E6400F9050000F1050000ED050000EA05000069
:104E7400EA050000EB050000ED050000F105000067
:104E8400F8050000030600001006000020060000DC
:104E940033060000470600005D06000074060000AB
:104EA4008C060000A5060000C1060000DF06000015
:104EB400FE0600001F07000042070000660700000E
:104EC4008A070000AE070000D2070000F7070000C1
:104ED4001D080000430800006A0800009108000053
:104EE400B5080000D9080000F908000018090000FE
:104EF400340900004E090000660900007C09000026
:104F040091090000A3090000B2090000BE090000D5
:104F1400C7090000CC090000CF090000D009000037
:104F2400CE090000CC090000C7090000BE0900003A
:104F3400B2090000A30900008F09000079090000EC
:104F4400600900004309000025090000040900006D
:104F5400E2080000BD080000960800006E0800008A
:104F6400460800001E080000F5070000CB070000FB
:104F7400A007000075070000490700001C07000097
:104F8400F0060000C60600009F0600007B06000035
:104F94005B0600003C060000200600000506000039
:104FA400EC050000D4050000BE050000AB050000C0
:104FB4009C050000910500008A050000860500009C
:104FC40085050000870500008B05000091050000A1
:104FD4009A050000A6050000B8050000CF050000F2
:104FE400EA05000008060000290600004B06000040
:104FF4006F06000095060000BB060000E2060000F4
:105004000B0700003607000062070000900700004D
:10501400C0070000F00700001F0800004F08000050
:105024007F080000B1080000E20800001309000036
:10503400420900006E09000096090000BC09000046
:10504400DF090000FE0900001B0A0000350A000009
:105054004D0A0000630A0000760A0000860A000078
:10506400910A00009A0A0000A00A0000A30A0000A6
:10507400A40A0000A20A00009D0A0000950A00008C
:10508400870A0000760A0000600A0000470A000050
:105094002C0A00000D0A0000EB090000C8090000FA
:1050A400A40900007F090000570900002E09000030
:1050B40004090000D8080000AB0800007E080000C6
:1050C4005008000023080000F4070000C607000091
:1050D400980700006B070000410700001907000053
:1050E400F3060000CF060000AE0600008D060000A7
:1050F4006F06000052060000390600002306000077
:105104001106000003060000F9050000F405000084
:10511400F3050000F3050000F5050000F8050000A4
:10512400FE05000009060000170600002B0600001B
:10513400440600006106000081060000A406000089
:10514400C7060000EC060000140700003E0700003C
:105154006A07000099070000C9070000FB07000068
:105164002E0800006108000093080000C408000035
:10517400F50800002709000058090000890900000B
:10518400B8090000E6090000110A00003A0A00000C
:10519400600A0000830A0000A40A0000C30A000099
:1051A400DF0A0000F90A00000F0B0000210B0000C9
:1051B4002F0B0000390B00003F0B0000420B0000D6
:1051C400410B00003D0B0000360B00002C0B0000CF
:1051D4001D0B00000A0B0000F30A0000D90A0000AE
:1051E400BC0A00009C0A0000790A0000530A00006F
:1051F4002B0A0000010A0000D4090000A5090000E0
:10520400730900004209000010090000DE080000D4
:10521400AD0800007D0800004C0800001C080000D8
:10522400EA070000B90700008A0700005D070000D4
:10523400320700000A070000E5060000C30600006C
:10524400A406000089060000720600005E06000045
:105254004D060000420600003A0600003706000032
:10526400370600003A060000410600004A06000026
:10527400580600006A060000810600009E06000031
:10528400BF060000E50600000F0700003B07000012
:105294006907000099070000CB0700000008000020
:1052A4003908000076080000B6080000F90800007C
:1052B4003C0900007F090000C2090000050A000043
:1052C400470A0000880A0000CA0A00000B0B00000D
:1052D4004C0B00008D0B0000CC0B0000090C0000EF
:1052E400430C00007A0C0000AF0C0000E00C00003E
:1052F4000E0D0000380D00005F0D0000810D000050
:105304009F0D0000B70D0000CA0D0000D80D00006D
:10531400E10D0000E70D0000E70D0000E20D0000C4
:10532400D70D0000C80D0000B50D00009C0D000055
:10533400800D00005F0D00003A0D0000120D00000A
:10534400E60C0000B60C0000820C0000490C0000C2
:105354000D0C0000CD0B00008B0B0000460B000071
:10536400010B0000B90A0000700A0000240A0000C2
:10537400D7090000890900003A090000EC08000080
:105384009E0800005208000007080000BE07000045
:105394007707000031070000EC060000A8060000B3
:1053A4006606000025060000E8050000AE050000C2
:1053B400770500004305000012050000E404000026
:1053C400BA040000930400007204000055040000B5
:1053D4003D0400002A0400001A0400000D0400002B
:1053E40003040000FB030000F7030000F6030000C1
:1053F400F9030000000400000C0400001A0400007B
:105404002C0400003F040000540400006B0400005E
:10541400830400009D040000BA040000D9040000C5
:10542400FA0400001C0500003E0500005F050000B2
:1054340080050000A0050000BE050000DD05000099
:10544400FA050000190600003706000055060000A2
:10545400710600008D060000A6060000BD060000CF
:10546400D1060000E3060000F2060000FF0600007B
:105474000A07000012070000180700001C070000BC
:105484001F0700002107000021070000200700007B
:105494001D07000019070000130700000B07000098
:1054A40000070000F4060000E7060000D80600002C
:1054B400C9060000BA060000A9060000970600000D
:1054C40085060000720600005E0600004B06000020
:1054D40039060000290600001A0600000C06000028
:1054E40000060000F6050000EC050000E2050000DF
:1054F400DA050000D3050000D0050000CF05000048
:10550400D1050000D5050000DB050000E205000020
:10551400EC050000F7050000050600001506000074
:10552400270600003C060000530600006B0600003E
:10553400840600009F060000BA060000D60600009C
:10554400F3060000120700003207000054070000B1
:10555400770700009A070000BD070000DE0700007F
:10556400000800002108000043080000640800004F
:1055740085080000A5080000C5080000E308000035
:10558400FE080000170900002D0900004209000070
:105594005609000069090000790900008809000023
:1055A400940900009C090000A0090000A209000061
:1055B400A00900009B09000094090000890900006B
:1055C4007C0900006D0900005C0900004909000025
:1055D4003209000017090000FC080000DF08000081
:1055E400C00800009E0800007B0800005608000068
:1055F400320800000E080000E8070000C20700009F
:105604009B070000750700004F07000027070000F4
:10561400FF060000D9060000B30600008F06000054
:105624006B0600004A0600002B0600000F0600006F
:10563400F6050000DD050000C6050000B105000008
:10564400A005000091050000860500007E0500000D
:1056540079050000790500007C0500008205000042
:105664008A05000094050000A2050000B2050000B0
:10567400C5050000DC050000F60500001406000066
:105684003406000055060000770600009B06000063
:10569400BF060000E60600000F0700003807000000
:1056A400610700008D070000BA070000E70700004B
:1056B400130800003F0800006A0800009408000076
:1056C400BE080000E70800000F09000034090000CC
:1056D400580900007809000096090000B10900008B
:1056E400C9090000DF090000F3090000040A0000F2
:1056F400130A00001D0A0000250A0000290A000000
:105704002B0A0000290A0000240A00001D0A0000D8
:10571400140A00000A0A0000FB090000E90900005D
:10572400D3090000BA0900009D0900007E090000A9
:105734005D0900003B09000018090000F30800009F
:10574400CE080000A60800007D08000054080000F0
:1057540029080000FE070000D3070000A707000087
:105764007B0700005007000026070000FC0600002D
:10577400D5060000B00600008F0600007006000089
:105784005306000038060000200600000A06000048
:10579400F6050000E6050000D9050000D10500006B
:1057A400CC050000CC050000CE050000D3050000A8
:1057B400DC050000E6050000F2050000010600001B
:1057C40013060000290600004206000060060000DF
:1057D40080060000A4060000C8060000EF060000D2
:1057E400180700004307000070070000A00700002E
:1057F400D107000003080000370800006C0800000F
:105804009F080000D20800000409000034090000C9
:105814006309000091090000BD090000E7090000C8
:105824000F0A0000340A0000560A0000750A00003E
:10583400930A0000AE0A0000C80A0000DF0A000054
:10584400F20A0000030B0000100B0000190B00000B
:105854001E0B00001F0B00001C0B0000160B0000A9
:105864000C0B0000FE0A0000EC0A0000D60A00003F
:10587400BD0A0000A00A00007F0A00005D0A0000C3
:10588400380A0000110A0000E9090000BE090000FE
:1058940091090000630900003309000002090000B7
:1058A400CF0800009C0800006A08000038080000C7
:1058B40007080000D7070000A80700007B070000C6
:1058C4004E07000023070000FA060000D40600007B
:1058D400B00600008E0600006F06000053060000AC
:1058E4003906000024060000120600000406000029
:1058F400FA050000F4050000F2050000F4050000BC
:10590400F9050000020600000D0600001D06000057
:105914003106000049060000660600008806000003
:10592400AD060000D6060000010700002F070000A6
:105934005F07000091070000C6070000FE07000093
:105944003908000077080000B6080000F7080000D6
:105954003709000077090000B7090000F5090000C5
:10596400320A00006E0A0000A90A0000E40A0000DE
:105974001C0B0000530B0000880B0000BB0B000045
:10598400EC0B00001A0C0000450C00006D0C00002C
:10599400920C0000B30C0000D00C0000E80C0000D6
:1059A400FC0C00000C0D0000170D00001D0D000084
:1059B4001F0D00001E0D0000180D00000D0D00004D
:1059C400FD0C0000E90C0000D00C0000B30C00003A
:1059D400920C00006D0C0000460C00001B0C000033
:1059E400EE0B0000BD0B00008A0B0000540B0000FE
:1059F4001B0B0000E00A0000A20A0000630A00007A
:105A0400230A0000E2090000A00900005D0900006B
:105A140019090000D6080000920800005008000090
:105A24000E080000CE0700008F0700005207000098
:105A340016070000DC060000A40600006E06000045
:105A44003A06000009060000DA050000AE05000071
:105A5400850500005F0500003C0500001C050000F2
:105A6400FF040000E7040000D3040000C3040000A6
:105A7400B6040000AD040000A6040000A304000066
:105A8400A2040000A3040000A7040000AF04000067
:105A9400B9040000C7040000D7040000EA040000B1
:105AA400FE040000140500002A0500004105000062
:105AB40059050000730500008D050000A9050000CC
:105AC400C6050000E3050000FF0500001B060000FA
:105AD400350600004F06000068060000800600003E
:105AE40097060000AE060000C4060000D9060000B8
:105AF400ED060000FE0600000E0700001B07000074
:105B04002707000030070000370700003B070000AC
:105B14003D0700003D0700003B0700003807000078
:105B2400330700002D070000260700001E070000B1
:105B3400150700000B07000001070000F406000031
:105B4400E6060000D6060000C6060000B606000001
:105B5400A5060000940600008206000071060000FD
:105B640060060000500600004106000033060000F5
:105B7400260600001B060000130600000B060000AA
:105B84000606000002060000FF050000FE050000F6
:105B9400FE05000000060000040600000A060000DE
:105BA400130600001D06000029060000360600004A
:105BB40046060000570600006A0600008006000042
:105BC40097060000B0060000CA060000E5060000C3
:105BD400010700001D0700003A07000058070000F5
:105BE4007707000097070000B8070000DA070000F5
:105BF400FC0700001D0800003E0800005D080000CE
:105C04007C0800009A080000B7080000D3080000D0
:105C1400EE08000008090000200900003609000011
:105C24004A0900005B0900006B09000077090000C5
:105C3400820900008B09000091090000940900000A
:105C440094090000920900008D09000084090000F5
:105C5400790900006B0900005A0900004809000096
:105C6400330900001C09000004090000EA080000D0
:105C7400CE080000B108000092080000720800007D
:105C8400510800002E0800000B080000E607000081
:105C9400C10700009B0700007507000050070000C3
:105CA4002B07000007070000E4060000C2060000FE
:105CB400A1060000810600006306000047060000FC
:105CC4002E0600001706000003060000F105000080
:105CD400E2050000D5050000CA050000C205000069
:105CE400BC050000BA050000BA050000BE050000AE
:105CF400C5050000CF050000DB050000EA05000033
:105D0400FB0500000F060000250600003D0600000C
:105D1400580600007506000094060000B606000050
:105D2400D9060000FF060000260700004E07000009
:105D340076070000A0070000CA070000F50700006E
:105D4400200800004B080000740800009C080000B4
:105D5400C3080000E90800000D0900003009000034
:105D6400520900007209000091090000AE09000008
:105D7400C9090000E1090000F6090000090A000051
:105D8400190A0000260A0000300A0000380A000040
:105D94003D0A00003E0A00003C0A0000350A0000EB
:105DA4002C0A0000200A0000120A0000000A000069
:105DB400ED090000D7090000C0090000A609000091
:105DC4008A0900006C0900004C0900002A0900003F
:105DD40007090000E2080000BD0800009708000061
:105DE4006F080000480800001F080000F7070000C3
:105DF400CF070000A70700007F0700005707000037
:105E0400300700000B070000E8060000C60600008B
:105E1400A70600008A0600006F060000580600006E
:105E240044060000330600002406000018060000A3
:105E34000D06000006060000010600000006000032
:105E44000206000008060000120600001F060000FB
:105E54002F06000041060000560600006E060000F2
:105E640088060000A5060000C5060000E80600003C
:105E74000D070000340700005D07000087070000DD
:105E8400B2070000DF0700000C0800003A08000019
:105E94006908000098080000C7080000F408000022
:105EA400200900004B090000750900009D0900004D
:105EB400C4090000E90900000D0A00002F0A0000CF
:105EC4004E0A00006A0A0000830A00009A0A0000D1
:105ED400AE0A0000C00A0000CF0A0000DB0A00007E
:105EE400E30A0000E80A0000E90A0000E60A0000EC
:105EF400E00A0000D60A0000C90A0000B80A00003F
:105F0400A40A00008E0A0000750A00005A0A000064
:105F14003C0A00001C0A0000F9090000D409000032
:105F2400AD090000850900005C090000310900008A
:105F340004090000D5080000A60800007608000047
:105F44004608000016080000E6070000B807000035
:105F54008C070000620700003907000013070000E7
:105F6400F0060000CF060000B10600009506000010
:105F74007D0600006606000053060000420600008D
