:020000040800F2
:1000000000000220C5260008DD0D0008DF0D0008F5
:10001000E10D0008E30D0008E50D000800000000F8
:10002000000000000000000000000000E70D0008D4
:10003000E90D000800000000EB0D0008ED0D0008C0
:1000400015270008152700081527000815270008A0
:1000500015270008152700085D0600081527000869
:100060001527000815270008152700081527000880
:100070001527000815270008152700081527000870
:10008000F50D00081527000815270008152700089A
:100090001527000815270008152700081527000850
:1000A0001527000815270008152700081527000840
:1000B0001527000815270008152700081527000830
:1000C0001527000815270008152700081527000820
:1000D0001527000815270008152700081527000810
:1000E0001527000815270008152700081527000800
:1000F00015270008152700081527000815270008F0
:1001000015270008152700081527000815270008DF
:1001100015270008152700081527000815270008CF
:1001200015270008152700081527000815270008BF
:100130001527000800000000000000001527000837
:10014000152700081527000815270008152700089F
:10015000152700081527000815270008152700088F
:10016000152700081527000815270008152700087F
:1001700015270008152700081527000800000000B3
:10018000000000001527000800000000000000002B
:1001900015270008000000000000000015270008D7
:1001A000000000000000000000000000152700080B
:1001B000152700081527000815270008152700082F
:0401C00015270008F7
:1001C40010B5054C237833B9044B13B10448AFF38D
:1001D40000800123237010BD1406002000000000DD
:1001E4007027000808B5034B1BB103490348AFF35C
:1001F400008008BD000000001806002070270008D9
:1002040053B94AB9002908BF00281CBF4FF0FF3179
:100214004FF0FF3000F088B9ADF1080C6DE904CE61
:1002240000F006F8DDF804E0DDE9022304B07047CD
:100234002DE9F047089D8E4604468846002B4AD196
:100244008A42174662D9B2FA82F64EB1C6F1200349
:1002540001FA06F820FA03F3B74043EA0808B44069
:100264004FEA174E1FFA87FCB8FBFEF1230C0EFB76
:10027400118843EA084301FB0CF29A4209D9FB189E
:1002840001F1FF3080F0EA809A4240F2E7800239BF
:100294003B449A1AA3B2B2FBFEF00EFB102243EACF
:1002A400024300FB0CFC9C4509D9FB1800F1FF320A
:1002B40080F0D6809C4540F2D3803B44023840EA2B
:1002C4000140A3EB0C0300211DB1F3400022C5E95A
:1002D4000032BDE8F0878B4205D90DB1C5E90001B4
:1002E40000210846F5E7B3FA83F1002946D17345A6
:1002F40002D3824200F20581841A6EEB03020120CC
:100304009046002DE5D0C5E90048E2E7002A00F058
:100314009080B2FA82F6002E40F0A4808A1A030C70
:100324004FEA174E80B2BCB20121B2FBFEFC0EFBB9
:100334001C2243EA024304FB0CF29A4207D9FB183D
:100344000CF1FF3802D29A4200F2E080C4469B1AB4
:10035400B3FBFEF20EFB123340EA034302FB04F448
:100364009C4207D9FB1802F1FF3002D29C4200F2F2
:10037400CA8002461B1B42EA0C40A5E7C1F12006D5
:100384008B4022FA06F71F430EFA01F420FA06F313
:100394002EFA06FE4FEA1749234300FA01F81FFA22
:1003A40087FCBEFBF9F01C0C09FB10EE44EA0E447A
:1003B40000FB0CFEA64502FA01F209D93C1900F132
:1003C400FF3A80F09C80A64540F2998002383C4474
:1003D400A4EB0E041FFA83FEB4FBF9F309FB1344E8
:1003E4004EEA044403FB0CFCA44508D93C1903F170
:1003F400FF3E80F08280A4457FD9023B3C4443EA1F
:100404000040A4EB0C04A0FB02EC64457346E146F7
:1004140062D35FD05DB1B8EB030264EB090404FA64
:1004240006F622FA01F31E43CC40C5E9006400211C
:100434004FE7B1FBF2FC010C41EA0E4180B240EA05
:1004440001423B4638463C46B846BE462026B1FBF0
:10045400F7F1A2EB080241EA0C4166E7014618E70E
:1004640010462CE7C6F120022EFA02F3B740B14041
:1004740020FA02F24FEA174E0A43B3FBFEF8BCB26D
:100484000EFB1833110C41EA034108FB04F9B04098
:1004940089454FEA104380B23ED9791808F1FF3CF0
:1004A40001D289451FD8A1EB0901B1FBFEF909FB73
:1004B40004F80EFB191192B242EA0142424529D2D4
:1004C400BA1809F1FF31C4D24245C2D2A9F10201DE
:1004D4003A44BEE7F0459DD2BEEB02036CEB070C39
:1004E4000138E14696E7A7EB09094944A8F1020C53
:1004F400B1FBFEF909FB04F8DBE773467FE75046DE
:1005040066E70846FDE63B44023A33E7ACF1020CE9
:100514003B441CE749469CE7A1EB0901C446B1FBF7
:10052400FEF909FB04F8C4E7704700BF2DE9F04F5A
:100534008BB00024059406940794089409940194BC
:10054400344B1A6B42F080021A631A6B02F0800279
:100554000192019A02941A6B42F001021A631A6B17
:1005640002F001020292029A03941A6B42F0020210
:100574001A631A6B02F002020392039A04941A6B30
:1005840042F004021A631B6B03F004030493049BFC
:100594004FF4404BCDF814B001260696DFF87CA04A
:1005A40005A9504601F096FC4FF44079CDF814901B
:1005B400DFF86C8005A9404601F08CFC4FF410472D
:1005C4000597154D05A9284601F084FC2246594695
:1005D400504601F06FFD22464946404601F06AFD4F
:1005E40022463946284601F065FD05964FF48813E6
:1005F4000693079605A9284601F06CFC22460221C1
:10060400062001F0D9FF062001F0E6FF0BB0BDE89B
:10061400F08F00BF00380240000002400008024092
:100624000004024000B583B000210191094B1A6B0C
:1006340042F400121A631B6B03F400130193019B31
:100644000A46102001F0B8FF102001F0C5FF03B0E6
:100654005DF804FB0038024010B502F021F8594B54
:100664001B68C01A31281FD902F01AF8554B1860BC
:10067400554B1A68D36823F40073D360534801F0D0
:1006840046FE53490A680132524BA3FB02039B08FE
:1006940003EB4303A2EB43030B60052B1DD8DFE8F8
:1006A40003F00720364C637A012001F00BFD17E0BC
:1006B400454C226840F21B13D362E3608023464A10
:1006C40012684649414801F0EDFD2268D36843F4BD
:1006D4000073D360424800F071FB012001F0F2FC8A
:1006E40010BD394C226840F21B13D362E3608023AF
:1006F400394A12683B49354801F0D4FD2268D36871
:1007040043F40073D360384800F058FBE5E72E4CFF
:10071400226840F21B13D362E36080232E4A1268DE
:1007240032492A4801F0BEFD2268D36843F40073BD
:10073400D3602F4800F042FBCFE7234C226840F2FD
:100744006913D362E3604AF64443234A1268294991
:100754001E4801F0A7FD2268D36843F40073D360F8
:10076400254800F02BFBB8E7174C226840F26913C8
:10077400D362E36042F21073174A12681F491348A8
:1007840001F090FD2268D36843F40073D3601C48E1
:1007940000F014FBA1E70C4C226840F26913D36209
:1007A400E36041F288330C4A12681649074801F0A5
:1007B40079FD2268D36843F40073D360124800F0D3
:1007C400FDFA8AE734060020E006002038060020FF
:1007D40030060020ABAAAAAA0000002008040020CA
:1007E400882700080802002090270008080000203D
:1007F400942700082C120108A0270008EC750008B3
:10080400A8270008CC270008B027000872B6FEE726
:1008140000B58FB000230A930B930C930D930893A8
:100824000993019302930393049305930693079307
:1008340036484FF08042026043608360344A126855
:10084400013AC26003618023836100F09FFC0028A9
:1008540050D14FF480530A930AA92C4800F0FCFDB0
:10086400002849D1294800F0BDFC002846D10023C6
:100874000893099308A9254800F080FF00283FD178
:100884000022019202920392059201A91F4800F0EE
:1008940039FD002836D1002300931E4A116B41F420
:1008A40000111163126B02F400120092009A1A48AC
:1008B4001A4A02604FF0C062426040228260C36004
:1008C4004FF4806202614FF4805242614FF48042DF
:1008D40082614FF48072C2614FF40032026243625B
:1008E40001F07AFC80B9094A0B4B53629A630FB04A
:1008F4005DF804FBFFF78AFFFFF788FFFFF786FF29
:10090400FFF784FFFFF782FFFFF780FFE006002078
:1009140004000020003802403806002088600240AD
:1009240000B58FB000230A930B930C930D93089397
:1009340009930193029303930493059306930793F6
:100944001E481F4A02604360836040F6FF72C26023
:100954000361836100F01AFC28BB4FF480530A93AF
:100964000AA9164800F078FDF8B9144800F066FCAE
:10097400E8B900230893099308A9104800F0FEFE83
:10098400B8B96023019300230293039305930822CB
:1009940001A90A4800F0E5FC68B9084800F098FA93
:1009A4000FB05DF804FBFFF731FFFFF72FFFFFF7F0
:1009B4002DFFFFF72BFFFFF729FF00BF980600204C
:1009C4000004004000B595B03422002107A801F0CE
:1009D400A0FE0023029303930493059306930093CC
:1009E400194A116C41F080511164126C02F080526A
:1009F4000092009A019315490A6822F4404242F495
:100A040080420A600A6802F440420192019A02227A
:100A1400079201220A9210220B920D9307A801F06B
:100A240037F868B90F2302930021039104910591CB
:100A3400069102A800F0E8FE20B915B05DF804FBA9
:100A4400FFF7E4FEFFF7E2FE0038024000700040CA
:100A540008B501F0FFFDFFF7B5FFFFF767FDFFF7EE
:100A6400E1FDFFF7D5FEFFF75BFF00F067F90C48E7
:100A740000F0D0F808210B4800F0FEFD0A4C0021DC
:100A8400204600F077FD8023084A12680849094887
:100A940001F008FC2268D36843F40073D360FEE7D6
:100AA4008827000898060020E006002000000020A7
:100AB400080400203806002082B000EB4000002328
:100AC400019304E000BF00BF019B01330193019B2C
:100AD4008342F7D302B0704710B51420FFF7ECFF40
:100AE400094CA36943F40043A3611420FFF7E4FF16
:100AF400A36943F00043A3611420FFF7DDFFA3695A
:100B040043F40043A36110BD0008024010B504463D
:100B14003D4A936943F48043936110F0800F41D1BF
:100B24003A4A936943F00043936114F0400F40D074
:100B3400364A936943F48053936114F0200F3ED0F6
:100B4400334A936943F40073936114F0100F3CD05B
:100B54002F4A936943F480739361FFF7BDFF14F048
:100B6400080F38D0294A936943F40043936114F081
:100B7400040F36D0254A936943F48053936114F0EB
:100B8400020F34D0224A936943F40073936114F042
:100B9400010F32D01E4A936943F480739361FFF7C7
:100BA4009BFF10BDA2F50062936943F40043936177
:100BB400BBE7164A936943F080539361BDE7144A37
:100BC400936943F000739361BFE7114A936943F05B
:100BD40080739361C1E70D4A936943F000439361C5
:100BE400C5E70A4A936943F080539361C7E7084A0B
:100BF400936943F000739361C9E7054A936943F02D
:100C040080739361CBE700BF0008024000000240FC
:100C14000004024038B50546002403E0FFF776FFE0
:100C24000134E4B2285D0028F8D138BD10B504467B
:100C34003F4A936943F08043936110F0800F45D19C
:100C44003C4A936943F00043936114F0400F44D04D
:100C5400384A936943F48053936114F0200F42D0CF
:100C6400354A936943F40073936114F0100F40D034
:100C7400314A936943F480739361FFF72DFF14F0B5
:100C8400080F3CD02B4A936943F40043936114F05A
:100C9400040F3AD0274A936943F48053936114F0C4
:100CA400020F38D0244A936943F40073936114F01B
:100CB400010F36D0204A936943F480739361FFF7A0
:100CC4000BFF40F6B830FFF7F7FE10BDA2F5006247
:100CD400936943F400439361B7E7164A936943F079
:100CE40080539361B9E7144A936943F000739361A5
:100CF400BBE7114A936943F080739361BDE70D4AE2
:100D0400936943F000439361C1E70A4A936943F04E
:100D140080539361C3E7084A936943F00073936176
:100D2400C5E7054A936943F080739361C7E700BF41
:100D340000080240000002400004024008B5194BBC
:100D44001A6B42F001021A631A6B42F002021A6330
:100D54001A6B42F004021A63134A136843F0824385
:100D6400136002F58062136843F4A023136002F554
:100D74008062136843F0A043136047F23050FFF7DA
:100D84009BFE3320FFF752FF3220FFF74FFF0C206A
:100D9400FFF74CFF2820FFF749FF0120FFF746FF2C
:100DA40008BD00BF003802400000024008B50248F8
:100DB400FFF730FF08BD00BFB827000810B5044690
:100DC4008020FFF733FFFFF7F1FF8020FFF72EFFAE
:100DD4002046FFF71FFF10BDFEE7FEE7FEE7FEE734
:100DE400FEE770477047704708B501F04DFC08BD39
:100DF40008B5024801F09EFA08BD00BF380600207D
:100E040082B0002100910B4B5A6C42F480425A6428
:100E14005A6C02F480420092009A01911A6C42F0DA
:100E240080521A641B6C03F080530193019B02B03F
:100E3400704700BF0038024010B582B00368B3F1B8
:100E4400804F04D01E4A93422CD002B010BD0446F9
:100E5400002300931B4A116C41F001011164126CD0
:100E640002F001020092009A1748184A02604FF0FB
:100E7400C06242608360C3604FF4806202614FF4D9
:100E8400805242614FF480428261C36103624362D3
:100E940001F0A2F918B90C4B63629C63D5E7FFF724
:100EA400B5FCF8E700230193064B1A6C42F00202EA
:100EB4001A641B6C03F002030193019BC5E700BF96
:100EC40000040040003802403806002088600240D8
:100ED40000B587B000230193029303930493059311
:100EE40002680E4B9A4202D007B05DF804FB00235F
:100EF40000930B4B1A6B42F002021A631B6B03F054
:100F040002030093009B01230193022302930593A0
:100F140001A9044800F0DEFFE6E700BF000400403A
:100F2400003802400004024030B4036A026A22F02E
:100F3400010202624268846924F0730C0C6844EA7A
:100F44000C0423F0020C8B6843EA0C03114DA842F5
:100F540003D005F58065A84205D123F00803CD68C8
:100F64002B4323F004030B4DA84203D005F5806501
:100F7400A84207D122F440724D6945EA020C8A69FD
:100F840042EA0C02426084614A684263036230BCF4
:100F9400704700BF0000014030B4036A026A22F4C3
:100FA400807202624268C46924F0730C0C6844EADB
:100FB4000C0523F400738C6843EA0423114CA0420B
:100FC40003D004F58064A04206D123F40063CC6806
:100FD40043EA042323F480630A4CA04203D004F5BB
:100FE4008064A04207D122F440524C6942EA0412C0
:100FF4008C6942EA04124260C5614A68C2630362B2
:1010040030BC70470000014030B4036A026A22F425
:10101400805202624468C26922F4E6420D6842EAE0
:10102400052223F400538D6843EA0533094DA84291
:1010340003D005F58065A84204D124F480444D69A9
:1010440044EA85144460C2614A680264036230BCA5
:10105400704700BF0000014010B4036A046A24F022
:1010640001040462846924F0F00C4CEA021223F0B7
:101074000A030B43826103625DF8044B704710B4AA
:10108400036A046A24F010040462846924F4704C32
:101094004CEA023223F0A00343EA011382610362A3
:1010A4005DF8044B7047836823F070030B4343F0EF
:1010B4000703836070477047704700000368324A33
:1010C400904212D0B0F1804F0FD0A2F57C429042F2
:1010D4000BD002F58062904207D002F58062904204
:1010E40003D002F57842904203D123F070034A689A
:1010F4001343254A90422AD0B0F1804F27D0A2F55D
:101104007C42904223D002F5806290421FD002F5C7
:10111400806290421BD002F57842904217D002F5CB
:101124007052904213D002F5806290420FD002F5C3
:10113400806290420BD0A2F59832904207D002F51B
:101144008062904203D002F58062904203D123F47E
:101154004073CA68134323F080034A6913438A68BF
:10116400C2620A688262084A904203D002F5806231
:10117400904201D10A690263026842F004020260EB
:1011840001224261036070470000014040B310B582
:10119400044690F83D30F3B1022384F83D302146F3
:1011A40051F8040BFFF78AFF012384F8463084F8D2
:1011B4003E3084F83F3084F8403084F8413084F87D
:1011C400423084F8433084F8443084F8453084F85D
:1011D4003D30002010BD80F83C30FFF72DFEDBE7EA
:1011E4000120704740B310B5044690F83D30F3B188
:1011F400022384F83D30214651F8040BFFF75EFFCB
:10120400012384F8463084F83E3084F83F3084F873
:10121400403084F8413084F8423084F8433084F814
:10122400443084F8453084F83D30002010BD80F807
:101234003C30FFF740FFDBE70120704740B310B5B7
:10124400044690F83D30F3B1022384F83D30214642
:1012540051F8040BFFF732FF012384F8463084F879
:101264003E3084F83F3084F8403084F8413084F8CC
:10127400423084F8433084F8443084F8453084F8AC
:101284003D30002010BD80F83C30FFF715FFDBE750
:101294000120704730B4036A026A22F0100202622D
:1012A4004468826922F4E6420D6842EA052223F08A
:1012B40020038D6843EA0513114DA84203D005F5B8
:1012C4008065A84206D123F08003CD6843EA051364
:1012D40023F040030A4DA84203D005F58065A842D7
:1012E40007D124F440644D6944EA85048D6944EAD5
:1012F4008504446082614A688263036230BC70473B
:101304000000014090F83C30012B28D010B5044671
:10131400012380F83C300C2A1CD8DFE802F0071BBC
:101324001B1B0C1B1B1B111B1B1B16000068FFF750
:10133400FBFD00200FE00068FFF7ACFF00200AE08F
:101344000068FFF729FE002005E00068FFF75CFE57
:10135400002000E00120002384F83C3010BD02206E
:10136400704738B590F83C30012B66D004460D46E2
:10137400012380F83C300C2A5AD8DFE802F00759E0
:1013840059591B5959593059595944000068FFF7A4
:10139400CBFD2268936943F0080393612268936943
:1013A40023F0040393612268936929690B439361D1
:1013B40000203EE00068FFF76DFF2268936943F464
:1013C400006393612268936923F4806393612268C4
:1013D4009369296943EA01239361002029E00068A5
:1013E400FFF7DAFD2268D36943F00803D36122686A
:1013F400D36923F00403D3612268D36929690B43B9
:10140400D361002015E00068FFF7FEFD2268D36970
:1014140043F40063D3612268D36923F48063D36106
:101424002268D369296943EA0123D361002000E0DB
:101434000120002384F83C3038BD0220FCE710B4BE
:10144400846824F47F4C42EA03220A4342EA0C02F1
:1014540082605DF8044B704790F83C30012B78D0E3
:1014640010B50446012380F83C30022380F83D3057
:101474000268936823F47F4323F0770393600B6837
:10148400602B4CD023D8402B54D011D8202B03D020
:101494000AD80BB1102B05D119462068FFF703FEBB
:1014A400002028E0012026E0302BF5D0012022E0A6
:1014B400502B0AD1CA6849680068FFF7CDFD502156
:1014C4002068FFF7F0FD002015E0012013E0B3F5DC
:1014D400805F3AD0B3F5005F14D0702B37D1CB685E
:1014E4004A6889680068FFF7AAFF2268936843F096
:1014F400770393600020012384F83D30002384F8AF
:101504003C3010BDCB684A6889680068FFF797FFD4
:101514002268936843F4804393600020EBE7CA6831
:1015240049680068FFF7ABFD60212068FFF7BBFD49
:101534000020E0E7CA6849680068FFF78DFD402194
:101544002068FFF7B0FD0020D5E70020D3E7012095
:10155400D1E70220704701F01F014FF0010C0CFA93
:1015640001FC036A23EA0C030362036A8A401343FF
:101574000362704710B504460846002942D194F826
:101584003E30DBB2013B18BF0123002B6ED1002893
:1015940051D1022384F83E30012201462068FFF72E
:1015A400DAFF2368334A934203D002F58062934200
:1015B40003D15A6C42F400425A6423682D4A934280
:1015C40049D0B3F1804F46D0A2F57C42934242D039
:1015D40002F5806293423ED002F5806293423AD093
:1015E40002F57842934236D002F57052934232D0DB
:1015F400A2F5943293422ED01A6842F001021A6086
:10160400002032E0042908D008290DD094F8413094
:10161400DBB2013B18BF0123B7E794F83F30DBB2DC
:10162400013B18BF0123B0E794F84030DBB2013B23
:1016340018BF0123A9E7042805D0082807D00223EE
:1016440084F84130A8E7022384F83F30A4E702235A
:1016540084F84030A0E79A6802F00702062A07D00F
:101664001A6842F001021A60002010BD0120FCE754
:101674000020FAE70000014010B50446084600299E
:1016840042D194F83E30DBB2013B18BF0123002B5A
:101694006ED1002851D1022384F83E300122014644
:1016A4002068FFF758FF2368334A934203D002F5BA
:1016B4008062934203D15A6C42F400425A64236814
:1016C4002D4A934249D0B3F1804F46D0A2F57C42D3
:1016D400934242D002F5806293423ED002F580628A
:1016E40093423AD002F57842934236D002F57052D2
:1016F400934232D0A2F5943293422ED01A6842F02B
:1017040001021A60002032E0042908D008290DD013
:1017140094F84130DBB2013B18BF0123B7E794F8DA
:101724003F30DBB2013B18BF0123B0E794F84030EF
:10173400DBB2013B18BF0123A9E7042805D0082820
:1017440007D0022384F84130A8E7022384F83F300D
:10175400A4E7022384F84030A0E79A6802F0070265
:10176400062A07D01A6842F001021A60002010BD50
:101774000120FCE70020FAE70000014090F83C203B
:10178400012A3DD010B40346012280F83C200222F5
:1017940080F83D2002685068946820F0700C086856
:1017A40040EA0C0050601A68164882421AD0B2F11E
:1017B400804F17D0A0F57C40824213D000F58060A2
:1017C40082420FD000F5806082420BD000F5784051
:1017D400824207D000F57050824203D0A0F59430C5
:1017E400824204D124F0800449682143916001229B
:1017F40083F83D20002083F83C005DF8044B7047DB
:101804000220704700000140002800F09B8070B562
:101814000D4604464F4B1B6803F00F038B4208D25E
:10182400CBB24C4A1370136803F00F038B4240F0A1
:101834008B80236813F0020F17D013F0040F04D029
:10184400454A936843F4E0539360236813F0080F08
:1018540004D0414A936843F4604393603E4A9368DA
:1018640023F0F003A1680B439360236813F0010F86
:1018740032D06368012B21D09A1E012A25D9364A19
:10188400126812F0020F61D033498A6822F0030211
:1018940013438B6000F004FF06462F4B9B6803F054
:1018A4000C036268B3EB820F16D000F0F9FE801BC4
:1018B40041F288339842F0D9032042E0264A126864
:1018C40012F4003FE0D101203BE0234A126812F0F9
:1018D400007FD9D1012034E01E4B1B6803F00F03B5
:1018E400AB4207D9EAB21B4B1A701B6803F00F0313
:1018F400AB422DD1236813F0040F06D0164A936827
:1019040023F4E053E1680B439360236813F0080F5A
:1019140007D0114A936823F46043216943EAC10361
:10192400936000F021F80C4B9B68C3F303130B4A3C
:10193400D35CD8400A4B18600A4B186800F064FE68
:10194400002070BD012070470120FAE70120F8E76C
:101954000120F6E7003C02400038024044C303087B
:10196400100600200C06002008B5464B9B6803F0C7
:101974000C03082B05D00C2B43D0042B7FD14248F9
:1019840019E0404B5A6802F03F025B6813F4800F81
:1019940012D03C4B5968C1F388113B480023A1FB8A
:1019A4000001FEF72DFC374B5B68C3F301430133A1
:1019B4005B00B0FBF3F008BD324B5868C0F38810ED
:1019C4004FEA401CBCEB000C6EEB0E0E4FEA8E137C
:1019D40043EA9C634FEA8C11B1EB0C0163EB0E03F9
:1019E400DB0043EA5173C90011EB000C43F100031F
:1019F400990200234FEA8C2041EA9C51FEF700FC37
:101A0400D1E7204B5A6802F03F025B6813F4800F61
:101A140010D01C4B5968C1F388111B480023A1FB4B
:101A24000001FEF7EDFB174B5B68C3F30273B0FBD9
:101A3400F3F0C0E7134B5868C0F388104FEA401C1A
:101A4400BCEB000C6EEB0E0E4FEA8E1343EA9C6364
:101A54004FEA8C11B1EB0C0163EB0E03DB0043EA9C
:101A64005173C90011EB000C43F1000399020023E8
:101A74004FEA8C2041EA9C51FEF7C2FBD3E70348AE
:101A840099E700BF0038024040787D010024F4004B
:101A9400002800F0018270B582B00446036813F098
:101AA400010F41D0994B9B6803F00C03042B32D0F7
:101AB400964B9B6803F00C03082B27D0934B9B6831
:101AC40003F00C030C2B59D06368B3F5803F5BD053
:101AD400B3F5A02F5ED08D4B1A6822F480321A60C1
:101AE4001A6822F480221A606368002B5CD000F02C
:101AF400D7FD0546854B1B6813F4003F14D100F055
:101B0400CFFD401B6428F5D90320CCE17F4B5B68F3
:101B140013F4800FD2D07D4B1B6813F4003F03D025
:101B24006368002B00F0BA81236813F0020F60D0C1
:101B3400764B9B6813F00C0F4AD0744B9B6803F0F0
:101B44000C03082B3FD0714B9B6803F00C030C2B48
:101B540069D0E368002B75D06D4B01221A6000F048
:101B64009FFD0546694B1B6813F0020F61D100F01D
:101B740097FD401B0228F5D9032094E1634B5B6871
:101B840013F4800FA0D0C6E7604A136843F480338F
:101B94001360A9E75D4B1A6842F480221A601A6840
:101BA40042F480321A609FE700F07AFD0546574BF5
:101BB4001B6813F4003FB7D000F072FD401B64288B
:101BC400F5D903206FE1514B5B6813F4800FBAD150
:101BD4004E4B1B6813F0020F03D0E368012B40F057
:101BE4005F814A4A136823F0F803216943EAC10379
:101BF4001360236813F0080F49D06369002B33D0B6
:101C0400434B0122C3F8802E00F04AFD05463F4BAA
:101C14005B6F13F0020F3AD100F042FD401B022823
:101C2400F5D903203FE1394B5B6813F4800F90D161
:101C3400CEE7364A136823F0F803216943EAC10367
:101C44001360D6E7324B00221A6000F029FD0546E6
:101C54002E4B1B6813F0020FCBD000F021FD401B6C
:101C64000228F5D903201EE1294B0022C3F8802E57
:101C740000F016FD0546254B5B6F13F0020F06D0EE
:101C840000F00EFD401B0228F5D903200BE1236868
:101C940013F0040F76D01D4B1B6C13F0805F33D10F
:101CA40000230193194B1A6C42F080521A641B6C86
:101CB40003F080530193019B0125164B1B6813F419
:101CC400807F29D0A368012B3AD0052B3ED00F4B3F
:101CD4001A6F22F001021A671A6F22F004021A67BF
:101CE400A368002B3CD000F0DBFC0646074B1B6FBF
:101CF40013F0020F45D100F0D3FC801B41F288336E
:101D04009842F3D90320CEE00025D6E700380240FC
:101D140000004742007000406B4A136843F480732C
:101D2400136000F0BDFC0646674B1B6813F4807F0C
:101D3400C8D100F0B5FC801B0228F5D90320B2E01D
:101D4400624A136F43F001031367C9E75F4B1A6FCD
:101D540042F004021A671A6F42F001021A67BFE7E1
:101D640000F09EFC0646594B1B6F13F0020F08D07F
:101D740000F096FC801B41F288339842F3D903208B
:101D840091E0EDB9A369002B00F08C804F4A926872
:101D940002F00C02082A54D0022B17D04C4B00221C
:101DA4001A6600F07DFC0446484B1B6813F0007F64
:101DB40045D000F075FC001B0228F5D9032072E021
:101DC400424A136C23F080531364DBE7404B002238
:101DD4001A6600F065FC05463C4B1B6813F0007F57
:101DE40006D000F05DFC401B0228F5D903205AE020
:101DF400E369226A1343626A43EA8213A26A5208BD
:101E0400013A43EA0243E26A43EA0263226B43EA89
:101E140002732E4A53602E4B01221A6600F040FCD6
:101E240004462A4B1B6813F0007F06D100F038FCEF
:101E3400001B0228F5D9032035E0002033E0002000
:101E440031E0012B31D0214B5B6803F48001E2695E
:101E540091422CD103F03F02216A8A4229D1616A5E
:101E640047F6C0721A40B2EB811F24D103F440310B
:101E7400A26A5208013AB1EB024F1ED103F070621C
:101E8400E16AB2EB016F1AD103F0E043226BB3EBCA
:101E9400027F16D1002006E001207047012002E0F5
:101EA400012000E0002002B070BD0120FBE701200A
:101EB400F9E70120F7E70120F5E70120F3E7012026
:101EC400F1E70120EFE700BF007000400038024056
:101ED4000000474200230F2B00F2E38070B582B06C
:101EE40065E085684FEA430E032404FA0EF425EAFC
:101EF4000405CC6804FA0EF42C438460446824EA94
:101F040002044A68C2F300129A40224342605CE031
:101F1400DC08083450F8242003F00705AD004FF026
:101F24000F0E0EFA05FE22EA0E0E0A69AA4042EAD4
:101F34000E0240F824205CE0062200E0002202FAAF
:101F44000EF22A430234574D45F82420564A946829
:101F54006FEA0C0224EA0C054E6816F4801F01D0C7
:101F64004CEA0405504CA560E46802EA04054E6896
:101F740016F4001F01D04CEA04054B4CE56064687C
:101F840002EA04054E6816F4003F01D04CEA040549
:101F9400454C6560246822404D6815F4803F01D0AB
:101FA4004CEA0402404C226001330F2B77D8012203
:101FB4009A400C6804EA020C32EA0404F4D14C6836
:101FC40004F00304013C012C8BD94A6802F003029B
:101FD400032A09D0C4685D000322AA4024EA02044B
:101FE4008A68AA402243C2604A6802F00302022AB5
:101FF4008ED004684FEA430E032202FA0EF224EA5A
:1020040002044A6802F0030202FA0EF2224302605A
:102014004A6812F4403FC7D000220192234A546C0C
:1020240044F480445464526C02F480420192019A54
:102034009C08A51C1B4A52F8255003F0030E4FEAD6
:102044008E0E0F2202FA0EF225EA0205184A904279
:102054003FF474AF02F58062904216D002F58062BC
:10206400904214D002F58062904212D002F5806250
:10207400904210D002F5806290420ED002F5806248
:1020840090423FF459AF072259E7012257E7022251
:1020940055E7032253E7042251E705224FE702B034
:1020A40070BD704700380140003C014000380240D8
:1020B400000002400AB181617047090481617047E0
:1020C4007047000008B5054B5B69034200D108BDA9
:1020D400024B5861FFF7F4FFF9E700BF003C0140F1
:1020E40030B405682C6824F480242C600468636090
:1020F4008368402B05D0036899600368DA6030BCBC
:10210400704703689A600368D960F8E710B40368FD
:10211400D9B210390A4AA2FB01421209094CA25C45
:10212400C2655F2907D96FF3090304338365806DA2
:102134005DF8044B70476FF309038365F7E700BF4D
:10214400ABAAAAAA3CC30308836A826992B9012B89
:102154000AD0022B02D00BB100207047C36A13F0DF
:10216400807F28D100207047C36AB3F1C07F24D098
:1021740000207047B2F5005F09D0022B25D9032B4C
:1021840025D1C36A13F0807F23D100207047032B2D
:1021940003D8DFE803F01404140A00207047C36A6C
:1021A40013F0807F0DD100207047C36AB3F1C07F64
:1021B40009D000207047012070470120704701209A
:1021C40070470120704701207047012070470020AC
:1021D400704701207047000070B5044600F060FAB3
:1021E400002C5BD00546022384F83530002384F8A4
:1021F40034302268136823F00103136023681A68DB
:1022040012F0010F0AD000F04BFA431B052BF5D94D
:1022140020236365032084F8350070BD1A682049C3
:1022240011406268A0680243E068024320690243E7
:1022340060690243A0690243E0690243206A0243E1
:102244000A43616A04291ED01A602668756925F05C
:102254000705636A1D43042B07D1A36A1D43E36A80
:102264001BB12046FFF770FF90B975612046FFF758
:102274004DFFE26D3F23934083600020606501239E
:1022840084F83530C9E7E16A206B01430A43DBE790
:1022940040236365012084F83500BEE70120BCE7D4
:1022A4003F8010F038B50446856D90F8340001285D
:1022B4002BD0012084F8340094F83500C0B20128F2
:1022C40004D0002384F83430022038BD022084F87E
:1022D4003500002060652046FFF702FFE26D3F23D2
:1022E4009340AB602268136843F016031360236CB9
:1022F40023B12268136843F008031360226813684B
:1023040043F0010313600020DFE70220DDE790F8CB
:102314003530DBB2022B03D08023436501207047A4
:10232400052380F835300268136823F00103136035
:1023340000207047F0B583B0044600230193724B2C
:102344001D68724BA3FB0535AD0A876D3E68C26DEF
:1023540008239340334210D003681A6812F0040F24
:102364000BD01A6822F004021A60C26D082393404D
:10237400BB60436D43F001034365E26D0123934069
:10238400334209D02268526912F0800F04D0BB6036
:10239400636D43F002036365E26D042393403342AB
:1023A40009D02268126812F0020F04D0BB60636D7A
:1023B40043F004036365E26D10239340334224D059
:1023C4002268126812F0080F1FD0BB6023681A68D5
:1023D40012F4802F0DD01B6813F4002F04D1236C4A
:1023E4009BB12046984710E0A36C73B120469847F0
:1023F4000BE01A6812F4807F03D11A6822F00802F5
:102404001A60236C0BB120469847E26D2023934059
:10241400334255D02268126812F0100F50D0BB60BE
:1024240094F83530DBB2052B0ED023681A6812F409
:10243400802F33D01B6813F4002F2AD1636C002B38
:102444003ED0204698473BE02268136823F01603E9
:1024540013602268536923F080035361236CA3B192
:102464002268136823F008031360E26D3F2393404E
:10247400BB60012384F83530002384F83430236DA5
:10248400002B3FD0204698473CE0A36C002BE7D1BB
:10249400EBE7E36BA3B12046984711E01A6812F406
:1024A400807F09D11A6822F010021A60012384F88F
:1024B4003530002384F83430E36B0BB12046984761
:1024C400636DFBB1636D13F0010F17D0052384F81E
:1024D40035302268136823F001031360019B013334
:1024E4000193AB4204D823681B6813F0010FF5D1A4
:1024F400012384F83530002384F83430E36C0BB1C5
:102504002046984703B0F0BD10060020B5814E1B4D
:10251400002807DB00F01F02400901239340024A10
:1025240042F82030704700BF00E100E0002808DBDB
:102534000901C9B200F1604000F5614080F8001360
:10254400704700F00F000901C9B2014B19547047DC
:1025540014ED00E000B500F00700C0F1070CBCF179
:10256400040F28BF4FF0040C031D062B0FD9C31E04
:102574004FF0FF3E0EFA0CF021EA000199400EFAEA
:1025840003FE22EA0E0241EA02005DF804FB002386
:10259400EEE70000074AD36823F4E0631B041B0C36
:1025A400000200F4E060034343F0BF6343F40033EC
:1025B400D360704700ED00E010B50446054BD868C1
:1025C400C0F30220FFF7C6FF01462046FFF7AEFF27
:1025D40010BD00BF00ED00E008B5FFF799FF08BD8E
:1025E4000138B0F1807F0BD24FF0E0235861054AE7
:1025F400F02182F823100020986107221A617047A5
:102604000120704700ED00E010B504460E4B1A7827
:102614004FF47A73B3FBF2F30C4A1068B0FBF3F097
:10262400FFF7DEFF68B90F2C01D901200AE0002270
:1026340021464FF0FF30FFF7BFFF054B1C60002021
:1026440000E0012010BD00BF080600201006002095
:102654000C06002008B50B4B1A6842F400721A608D
:102664001A6842F480621A601A6842F480721A602E
:102674000320FFF78FFF0F20FFF7C6FFFEF7C0FB15
:10268400002008BD003C0240034A1168034B1B783C
:102694000B441360704700BF280700200806002081
:1026A400014B1868704700BF28070020034AD2F87E
:1026B400883043F47003C2F88830704700ED00E0BE
:1026C400DFF834D0FFF7F2FF0C480D490D4A002320
:1026D40002E0D458C4500433C4188C42F9D30A4AD3
:1026E4000A4C002301E013600432A242FBD300F041
:1026F40019F8FEF7ADF97047000002200000002031
:102704001406002064C30308140600202C070020CC
:10271400FEE702440346934200D1704703F8011BCD
:10272400F9E7000070B50D4D0D4C641BA410002694
:10273400A64209D10B4D0C4C00F018F8641BA410F0
:102744000026A64205D170BD55F8043B98470136D2
:10275400EEE755F8043B98470136F2E75CC30308FB
:102764005CC303085CC3030860C30308F8B500BF77
:10277400F8BC08BC9E467047F8B500BFF8BC08BC5E
:042784009E467047B6
:1027880053696E65000000005361770054726961F7
:102798006E676C65000000005069616E6F00000094
:1027A8004472756D0000000047756974617200001D
:1027B8002020202020202020202020202020202011
:1027C80000000000FF070000FF070000FF070000EF
:1027D800FF070000FF070000FF070000FF070000D9
:1027E800FF070000FF070000FF070000FF070000C9
:1027F800FF070000FF070000FF070000FF070000B9
:10280800FF070000FF070000FF070000FF070000A8
:10381800FF070000FF070000FF0700000008000086
:10382800FF070000FF070000FF070000FF07000078
:10383800FF070000FE070000FE070000FF0700006A
:10384800FF07000000080000FF070000FF07000056
:10385800FF070000FF070000FF070000FF07000048
:10386800FF070000FF070000FF070000FF07000038
:10387800FE070000FF070000FF070000FF07000029
:10388800FF070000FF070000000800000008000014
:10389800FF070000FE070000FE070000FF0700000A
:1038A800FF070000FF070000FE070000FE070000FA
:1038B800FF070000FF070000FF070000FF070000E8
:1038C800FE070000FF0700000008000000080000D5
:1038D800FF070000FE070000FF070000FF070000C9
:1038E800FF070000FF070000FE070000FF070000B9
:1038F800FF070000FF070000FF070000FF070000A8
:10390800FF07000000080000000800000008000091
:10391800FF070000FF07000000080000FF07000085
:10392800FE070000FE070000FF070000FF07000079
:10393800FF070000FE070000FE070000FF07000069
:10394800000800000008000000080000FF07000051
:10395800FF0700000008000000080000FF07000043
:10396800FE070000FE070000FF070000FF07000039
:10397800FF070000FE070000FE070000FE0700002A
:10398800FF0700000008000000080000FF07000013
:10399800FF070000FF070000FF070000FE07000008
:1039A800FE070000FF070000FF070000FF070000F8
:1039B800FF0700000008000000080000FE070000E4
:1039C800FE070000FF0700000108000001080000D2
:1039D800FF070000FE070000FE070000FE070000CA
:1039E800FE070000FC070000FB070000FC070000C2
:1039F800FD070000FD070000FB070000FA070000B4
:103A0800FA070000FC070000FF070000000800009C
:103A18000108000001080000020800000308000077
:103A28000508000006080000070800000608000056
:103A380007080000090800000B0800000B08000038
:103A48000908000007080000060800000408000034
:103A5800FF070000F8070000F3070000F107000067
:103A6800EB070000E0070000D9070000D8070000B6
:103A7800DC070000E1070000E2070000E0070000A3
:103A8800E2070000EA070000F5070000FD07000054
:103A9800FF070000FF070000FF070000FE07000007
:103AA800FC070000FC070000010800000A080000ED
:103AB8000D080000090800000908000017080000A8
:103AC800280800002D080000260800002008000033
:103AD800220800001D08000006080000EC0700008E
:103AE800E0070000DA070000CD070000BA07000071
:103AF800AD070000B1070000BF070000C1070000C4
:103B0800B5070000B4070000CB070000EA07000073
:103B1800FA070000FA070000F8070000F80700009D
:103B2800F4070000EA070000E1070000E5070000CD
:103B3800F80700000A0800000C0800000708000049
:103B48000E08000026080000420800005308000084
:103B5800590800005D0800005B0800004E080000DE
:103B68003908000025080000180800000B080000AC
:103B7800F5070000E0070000DC070000E707000089
:103B8800EB070000DC070000C7070000C3070000C0
:103B9800D6070000E8070000E5070000D807000086
:103BA800D9070000E8070000ED070000E107000062
:103BB800DD070000F1070000100800001E080000E3
:103BC8001B080000160800001F0800003708000046
:103BD800510800005D080000580800004E08000069
:103BE800450800003C0800002F08000022080000DB
:103BF8001708000008080000F5070000E4070000A7
:103C0800DB070000DC070000E1070000E307000015
:103C1800E1070000E8070000F807000004080000BA
:103C280005080000FF070000FA070000F60700007B
:103C3800EE070000E9070000EA070000E9070000B6
:103C4800E8070000ED070000F2070000F607000093
:103C5800FC070000090800001A08000024080000FA
:103C68001E080000120800000D0800000F080000E0
:103C7800120800000D08000002080000FC07000000
:103C8800FD070000FE070000FC070000F907000020
:103C9800FC070000060800001008000018080000D3
:103CA800210800002408000025080000260800005C
:103CB8001E0800000D08000001080000FD070000B4
:103CC800FC070000F2070000DA070000C607000042
:103CD800C5070000CE070000D8070000E407000071
:103CE800F0070000F7070000F2070000E8070000EF
:103CF800EC07000001080000130800001708000086
:103D08001108000008080000010800000008000071
:103D180006080000100800001A0800002408000027
:103D28002D080000370800003D0800003708000093
:103D38002A080000220800002408000024080000C7
:103D48001D0800000C080000ED070000CD0700006A
:103D5800C0070000C6070000D0070000D807000011
:103D6800E2070000E9070000E5070000DF070000A0
:103D7800E6070000F90700000A080000160800001E
:103D88001A080000160800001408000019080000AE
:103D98001D080000160800000E0800000B080000AF
:103DA800090800000F08000026080000420800006B
:103DB8004D080000440800003308000027080000F0
:103DC80026080000290800002D0800002D08000022
:103DD8001F080000FF070000DA070000C607000000
:103DE800D0070000EB070000F3070000D40700002D
:103DF800A70700009E070000BC070000D6070000C8
:103E0800D2070000C3070000C6070000D60700005D
:103E1800DD070000D5070000D1070000E207000019
:103E2800FD0700000B0800000D0800001508000041
:103E3800290800003E080000470800003F0800006D
:103E480031080000350800004F0800006508000030
:103E58006108000047080000290800000F0800005A
:103E6800FE070000F6070000F4070000F207000054
:103E7800E8070000D1070000B20700009D07000016
:103E8800A0070000B3070000BE070000BC07000041
:103E9800B4070000B1070000BF070000D707000003
:103EA800E9070000EA070000E5070000E80700004E
:103EB800F7070000080800001408000018080000B0
:103EC80018080000140800000F080000150800007A
:103ED80030080000490800003E08000015080000EE
:103EE800F3070000E9070000EC070000F2070000F4
:103EF800FC0700000808000005080000ED070000A6
:103F0800D1070000CA070000D8070000E907000031
:103F1800EA070000DE070000DB070000EE070000EC
:103F280004080000FF070000E5070000D9070000AB
:103F3800EF0700001208000022080000190800001E
:103F480004080000F8070000F7070000F807000061
:103F5800FA0700000B0800002D08000045080000C3
:103F68003D080000210800000A08000002080000BF
:103F780006080000100800001A0800001F080000CA
:103F880015080000FC070000E8070000E90700002A
:103F9800F2070000ED070000DC070000DE07000064
:103FA800FF0700001C08000008080000DD070000EB
:103FB800D5070000F80700001F0800002B080000C4
:103FC80026080000220800001E080000060800005D
:103FD800DC070000CF070000F20700001B08000004
:103FE80019080000F3070000D2070000D1070000FD
:103FF800E1070000E4070000DE070000EB0700000F
:10400800120800002D08000021080000FE0700002B
:10401800ED070000FE070000170800001408000064
:1040280001080000020800001C0800002908000020
:1040380012080000F6070000F90700001B0800003E
:104048003D080000410800002A0800001708000089
:104058001F0800002F0800002D0800001D080000A0
:104068001008000004080000F0070000D80700004E
:10407800C6070000BC070000BA070000C007000020
:10408800CC070000DD070000ED070000F70700007F
:10409800FC0700000B080000290800003E0800008B
:1040A8002F080000160800002A0800005E0800001B
:1040B8006D080000400800000C080000110800000E
:1040C800430800005D0800004308000028080000BD
:1040D80035080000460800002B080000FA07000019
:1040E800F107000018080000380800002B0800003D
:1040F80009080000F8070000ED070000D1070000DC
:10410800AE0700009E070000A7070000BD070000DB
:10411800CF070000CF070000C3070000C607000054
:10412800E7070000150800002B080000250800001C
:10413800240800003A0800004E0800004408000067
:104148002E0800002C080000400800005408000059
:104158005E08000058080000460800003D080000FE
:104168004A0800005D0800005A0800003E080000E8
:104178002808000039080000600800005508000001
:10418800FD070000B2070000DC0700004808000037
:104198005B080000F6070000A6070000D307000030
:1041A800320800003C080000F7070000E50700009F
:1041B8003B0800008B0800006708000004080000A6
:1041C800E20700001F080000560800003808000039
:1041D800FA070000F107000012080000200800009C
:1041E8000B080000E2070000BB070000AA07000058
:1041F800AF070000BD070000BF070000A3070000CD
:10420800760700005D0700006507000072070000E0
:104218005E0700003A0700003C0700005607000050
:104228004007000000070000EB0600001F07000021
:1042380062070000720700004C0700001907000021
:104248000807000023070000460700004707000092
:104258002C07000026070000470700006C07000035
:104268006F070000430700000B0700000507000068
:1042780038070000550700001E070000CB060000A5
:10428800C0060000FB06000013070000E40600005B
:10429800BB060000DB060000190700002707000026
:1042A800F6060000CA060000E10600001E0700002E
:1042B8003A070000280700001D0700003907000022
:1042C8005B0700005A0700004D0700006107000067
:1042D8008A0700009807000088070000830700008D
:1042E800A8070000DF070000F7070000E807000044
:1042F800DD070000F2070000120800002608000091
:104308002E0800003B0800004A0800004D08000085
:1043180045080000490800005E0800006E0800001B
:1043280074080000790800007C0800006E0800008E
:10433800500800003E080000570800008B080000E5
:10434800AD080000A50800008708000071080000FB
:104358006F08000077080000750800006308000077
:104368005F08000080080000AD080000B8080000E1
:104378009F0800008A0800009E080000D00800007E
:10438800FD0800000D0900000A09000011090000DD
:10439800260900002D0900001E0900001009000070
:1043A8000F090000110900001E0900003C09000067
:1043B8004309000020090000FA0800000409000071
:1043C800280900003109000015090000060900004D
:1043D8001E090000300900000B090000C608000093
:1043E800AA080000CC080000E9080000C008000086
:1043F8007F0800007B0800009F0800009508000067
:104408005C0800004D0800008F080000CF0800007D
:10441800B908000076080000680800009808000045
:10442800BA080000A70800008E080000AA080000CB
:10443800E1080000F4080000DE080000CC080000D5
:10444800CC080000C8080000C6080000DB0800000F
:10445800F1080000DB080000A70800008808000039
:104468008F0800009E0800009708000082080000DE
:10447800800800009A080000A70800008A080000C9
:1044880067080000690800008A080000A508000005
:10449800AB080000A7080000AC080000C408000032
:1044A800DF080000E4080000CD080000BD08000097
:1044B800CB080000E7080000F3080000F30800003C
:1044C800FA080000090900000F09000002090000AD
:1044D800F4080000EF080000ED080000E8080000FC
:1044E800E1080000DB080000D3080000C80800004D
:1044F800CB080000EB0800000D09000006090000C9
:10450800E2080000DC080000FA08000008090000C2
:10451800EB080000D9080000050900004109000067
:104528003A090000EC080000AA080000B3080000DF
:10453800E3080000EB080000C0080000A208000023
:10454800B5080000D4080000CA0800009B08000055
:10455800740800006E0800007D0800008108000053
:1045680065080000380800001D0800001908000050
:104578001608000003080000DC070000BA07000066
:10458800BA070000D4070000D8070000B1070000F0
:104598008607000080070000920700008D070000D2
:1045A800680700003C0700002707000024070000F8
:1045B80009070000C50600008906000089060000FA
:1045C800AD060000B3060000840600004F06000098
:1045D80041060000460600003B06000022060000D7
:1045E80004060000E2050000D1050000D605000021
:1045F800CC0500009D050000700500006F05000057
:104608009B050000C1050000B305000086050000F9
:104618007F050000AB050000C7050000A5050000E8
:10462800750500007D050000AC050000B40500001C
:104638007E0500003E05000023050000230500005C
:104648001B05000006050000030500001E0500000C
:104658003D0500004A0500004F0500005F05000009
:104668006F0500006B0500005B05000058050000A1
:104678006A05000082050000930500009E05000001
:10468800A8050000B1050000B9050000C505000037
:10469800DB050000FA0500001506000021060000F1
:1046A80027060000350600004606000050060000F8
:1046B8005C060000740600008C0600009A060000E4
:1046C8009F060000A8060000B8060000D0060000FB
:1046D800EF0600000607000001070000EF060000D3
:1046E800F10600000B0700001D070000140700007A
:1046F8000107000003070000230700003A07000035
:10470800290700000C0700001607000044070000F6
:104718006F0700008B070000A4070000C407000013
:10472800E7070000050800001A0800002708000035
:10473800300800004508000071080000A2080000C9
:10474800B2080000950800006F0800007208000019
:1047580097080000A80800009A08000099080000BF
:10476800BB080000D6080000BA0800008508000051
:104778007F080000B2080000D4080000BC08000050
:104788009A080000AB080000D8080000DC08000008
:10479800B5080000AE080000E8080000290900007C
:1047A80029090000F7080000E0080000FC080000E4
:1047B8001E09000026090000260900002D09000036
:1047C80031090000250900000C090000F308000069
:1047D800E4080000E0080000F10800001D090000DE
:1047E8004A0900004E0900002E0900001E090000B9
:1047F800380900005E090000660900005A09000037
:104808005C0900007909000097090000950900007B
:1048180075090000690900008C090000BA09000048
:10482800C4090000B1090000AB090000C20900007A
:10483800DB090000DA090000C9090000C20900000C
:10484800CB090000D8090000DC090000E0090000DD
:10485800EA090000F0090000EA090000E90900007F
:10486800F90900000C0A0000130A0000170A0000EA
:10487800280A00003B0A00002F0A00000B0A00006B
:10488800FF0900001B0A0000340A0000200A00008B
:10489800FA090000F1090000070A0000160A0000E2
:1048A8000C0A00000A0A0000310A0000670A00002A
:1048B800760A0000560A00003A0A00004B0A000077
:1048C800790A0000910A0000870A0000760A0000B1
:1048D800770A0000820A0000820A00006C0A0000C1
:1048E800510A0000470A00004F0A00005D0A000054
:1048F800600A0000490A0000220A00000A0A0000B3
:10490800070A0000000A0000E6090000C9090000C3
:10491800BF090000C2090000BB090000950900009A
:10492800620900004809000051090000550900000B
:1049380038090000110900000509000008090000F5
:10494800F7080000CC080000A60800009A0800003C
:1049580095080000780800004608000013080000C9
:10496800E9070000CC070000C1070000BC070000F1
:10497800A407000077070000530700004C07000059
:10498800450700001B070000DD060000C706000001
:10499800EA0600000C070000ED060000A40600006F
:1049A800790600007B060000780600005206000029
:1049B8002606000018060000200600001306000066
:1049C800E5050000BB050000AC050000AA050000D5
:1049D8009F05000090050000890500008205000081
:1049E8006B0500004C050000370500002C05000091
:1049F8001F0500000A050000F5040000F00400008F
:104A0800F904000002050000050500000905000082
:104A1800120500001A0500001E0500002805000008
:104A28003F0500005A0500006F0500007A050000E8
:104A38008205000095050000AD050000BB050000DB
:104A4800BB050000B9050000C1050000CE05000047
:104A5800CF050000C1050000BA050000CC05000024
:104A6800F00500000A06000004060000F505000035
:104A780007060000380600006406000077060000FC
:104A88008106000094060000B2060000CA06000075
:104A9800D6060000DE060000EF0600000F07000043
:104AA8003707000054070000590700004C070000B2
:104AB8004207000047070000530700005A0700009C
:104AC8005807000059070000720700009D07000002
:104AD800B2070000A207000090070000A00700002E
:104AE800CE070000F0070000F4070000FA070000F6
:104AF800150800002908000019080000FD0700003B
:104B0800080800003A08000057080000460800009E
:104B18002D0800003D080000620800006C08000035
:104B28005B0800005E08000083080000A50800007C
:104B3800A70800008F0800007D080000800800001A
:104B480091080000A4080000AC080000A0080000BC
:104B580087080000750800007A0800008B0800002C
:104B68008F080000850800008A080000A6080000D9
:104B7800B7080000A40800007908000057080000E2
:104B88005208000062080000690800005708000089
:104B98004108000044080000590800005F080000B0
:104BA80051080000490800005D0800008608000060
:104BB800A8080000B4080000B5080000C3080000F9
:104BC800E1080000FD0800000D09000016090000BA
:104BD80022090000310900003E09000046090000D2
:104BE8004A090000450900003D090000420900008B
:104BF8004D0900004B09000045090000500900005C
:104C08006A090000770900006C0900005D090000CE
:104C1800690900008D090000AB090000B409000013
:104C2800B6090000C6090000E7090000FF090000F6
:104C3800FD090000F7090000080A0000210A000029
:104C4800220A0000070A0000EC090000E909000038
:104C5800010A00001E0A0000290A00001E0A0000BE
:104C6800100A0000150A0000270A0000330A000095
:104C7800320A00002D0A0000370A00004F0A00001F
:104C88005F0A0000540A0000380A0000270A0000E2
:104C9800310A0000410A00003D0A00002B0A00000A
:104CA800250A00002E0A0000330A0000220A00002C
:104CB800050A0000F6090000FA090000F5090000DD
:104CC800DC090000BD090000AA09000099090000DC
:104CD8007B090000570900003A0900002509000077
:104CE8001309000005090000F7080000E1080000AA
:104CF800C6080000B5080000B6080000BA080000A1
:104D0800AB08000086080000630800004F08000098
:104D18003F0800001A080000E4070000C20700006E
:104D2800C0070000BF0700009B0700005B070000EA
:104D38002207000007070000FE060000EB0600003F
:104D4800CD060000B4060000A70600009606000085
:104D58007306000046060000210600000906000050
:104D6800F7050000E5050000CE050000B8050000C5
:104D7800A205000088050000740500006C0500000D
:104D88006705000060050000570500004F0500009A
:104D9800480500003B050000280500001705000035
:104DA8000A050000FA040000E8040000DF0400001F
:104DB800E6040000F2040000F4040000ED04000022
:104DC800EB040000F2040000FB04000001050000F1
:104DD800040500000D0500001B0500002F0500005C
:104DE800410500004C050000500500005B0500006F
:104DF80072050000890500008D0500007F05000090
:104E08007A050000890500009C050000A105000046
:104E18009A05000097050000A3050000B6050000EC
:104E2800C5050000D0050000E605000007060000E3
:104E38002C0600004E0600006806000076060000FA
:104E48007D0600008D060000B0060000D3060000B5
:104E5800E1060000E0060000E90600000007000087
:104E680004070000EA060000CE060000D106000094
:104E7800EA060000FA060000F8060000FD06000039
:104E880012070000210700001D0700001A07000094
:104E980035070000660700008A0700009007000039
:104EA8008F0700009D070000AF070000B60700004D
:104EB800B6070000BE070000D1070000E5070000A4
:104EC800F1070000F3070000EB070000E50700000A
:104ED800EE07000004080000190800001D08000083
:104EE8000B080000FA070000FD0700000D0800008D
:104EF80015080000100800000D0800001508000043
:104F08001C0800001508000000080000EF0700005A
:104F1800F6070000160800003108000030080000FD
:104F2800210800001D080000230800001E080000DA
:104F380009080000FA070000000800000F08000038
:104F4800140800000D08000003080000FC0700001A
:104F5800F6070000F6070000FF0700000C08000035
:104F68001808000023080000340800005108000059
:104F78006F0800008108000091080000B2080000D6
:104F8800DF080000010900000C09000019090000F1
:104F980037090000530900005409000043090000C4
:104FA800410900005A090000750900007D09000048
:104FB80076090000780900008909000097090000B7
:104FC800980900009B090000B5090000DF090000EE
:104FD800FE090000040A0000000A0000070A000099
:104FE8001F0A00003D0A0000510A0000530A000091
:104FF800460A00003B0A0000400A0000520A00006E
:105008005E0A0000600A0000660A00007A0A0000D2
:10501800910A0000940A0000810A0000750A000045
:10502800890A0000A80A0000AF0A0000A00A0000D0
:105038009E0A0000AF0A0000B90A0000AD0A00008D
:105048009D0A00009D0A0000A80A0000AF0A00009F
:10505800AF0A0000AB0A0000A10A0000940A000091
:105068008B0A0000830A0000750A0000640A000029
:10507800590A0000550A00004D0A0000350A0000D0
:105088000D0A0000EC090000E5090000E70900002E
:10509800D0090000A5090000860900007F0900006A
:1050A8007E09000070090000550900003F09000052
:1050B8003B0900003E0900002C090000FF08000021
:1050C800D3080000BE080000B7080000A8080000C8
:1050D8008F08000073080000570800003608000019
:1050E8000D080000E5070000C00700009F0700004A
:1050F8008607000072070000620700004C070000E6
:105108002D0700000C070000F8060000EE0600005E
:10511800E4060000D2060000BB060000A806000056
:1051280093060000780600005F0600004E060000A7
:1051380040060000300600002006000010060000AF
:1051480004060000FD050000F4050000E00500006D
:10515800C4050000AB050000A3050000AC05000075
:10516800AF0500009F050000930500009D050000A5
:10517800AB050000A40500008F05000087050000AE
:1051880098050000B3050000C0050000B90500003F
:10519800B3050000CA050000F5050000120600006E
:1051A800180600001D0600002A0600003A06000046
:1051B8004A06000054060000560600005306000088
:1051C800570600006906000078060000790600000E
:1051D80070060000780600009E060000CC0600005D
:1051E800E1060000E90600000107000027070000AB
:1051F8004107000046070000500700007307000041
:10520800A1070000BA070000C1070000D10700008D
:10521800E7070000E2070000C7070000BB0700001F
:10522800CA070000DE070000E8070000E7070000E3
:10523800E0070000DD070000E5070000EF070000B9
:10524800F4070000FB0700000C080000200800001D
:10525800320800004008000041080000380800003B
:10526800390800004F0800006E0800007E080000A2
:105278007408000063080000680800007F08000048
:105288008D08000082080000710800007508000001
:10529800830800007A0800005F0800004E0800003C
:1052A800570800006C08000073080000620800003E
:1052B80049080000390800003008000028080000EC
:1052C800200800001A080000220800003308000027
:1052D800360800002A0800002408000023080000FF
:1052E8001508000001080000000800000908000077
:1052F80005080000F7070000F0070000EB070000B2
:10530800DD070000CA070000C1070000C70700004A
:10531800CD070000C9070000C4070000D00700003F
:10532800ED07000009080000150800001C0800002F
:1053380035080000610800008C080000A40800007F
:10534800AE080000B4080000BE080000CC08000049
:10535800D4080000CF080000CA080000D7080000E1
:10536800EF080000F5080000E2080000D20800007D
:10537800DC080000F70800000F0900001A09000007
:1053880019090000190900002B0900004D09000047
:105398006A09000075090000780900008609000004
:1053A8009B090000A209000096090000920900006C
:1053B800A3090000B9090000C7090000CE090000D0
:1053C800D2090000D6090000DA090000DC09000053
:1053D800D9090000D5090000D9090000E309000037
:1053E800EA090000E8090000DC090000D109000012
:1053F800CF090000CF090000CB090000C90900004F
:10540800CE090000D9090000E4090000E409000001
:10541800D4090000C3090000C5090000D409000030
:10542800D4090000BA0900009909000089090000A0
:1054380086090000770900005409000032090000BD
:10544800240900001B09000004090000E40800000A
:10545800C7080000B2080000A6080000A108000064
:105468009A0800008D0800007A0800006108000012
:105478004608000030080000230800001508000056
:1054880002080000F2070000E6070000CE0700004F
:10549800A607000077070000520700003D0700003C
:1054A8002E07000016070000F1060000CA060000DB
:1054B800B00600009C0600007F060000620600009F
:1054C800520600004B0600003D06000028060000BA
:1054D80019060000120600000A060000FB0500007D
:1054E800E9050000DB050000DA050000DD05000025
:1054F800D8050000CE050000C8050000C50500005D
:10550800BE050000AD0500009A05000092050000E8
:10551800990500009F0500009B0500009405000008
:105528009005000090050000930500009B05000011
:10553800A2050000A00500009C050000A4050000CD
:10554800B9050000CE050000D7050000DE05000003
:10555800F2050000130600002B0600002F060000CD
:105568002E0600003E0600005606000064060000F5
:105578006506000061060000620600006A06000079
:10558800750600007F0600008C060000A3060000D8
:10559800C0060000D9060000EB060000FD0600006A
:1055A800160700002E0700004107000056070000FC
:1055B80079070000A2070000C0070000D10700001B
:1055C800DB070000DB070000D9070000DE0700004A
:1055D800E7070000F0070000F1070000EC070000F3
:1055E800EB070000F0070000EE070000E4070000EA
:1055F800E1070000EE070000070800001708000098
:1056080018080000140800001D08000034080000F5
:105618004C08000056080000550800005908000012
:1056280066080000700800006B08000060080000B1
:10563800600800006D080000750800006E08000092
:105648005D080000530800004C08000043080000F3
:105658004008000046080000470800003C08000019
:10566800310800002B0800001D0800000208000097
:10567800EB070000EB070000FA0700000408000031
:10568800FD070000EC070000E4070000E607000043
:10569800E5070000DC070000D5070000D907000077
:1056A800E3070000E6070000DA070000C80700006B
:1056B800C1070000C2070000B90700009E070000EC
:1056C8008607000086070000910700009407000085
:1056D8008F0700009007000099070000A807000046
:1056E800BB070000D0070000E70700000108000022
:1056F8001E080000370800004108000042080000AA
:10570800490800005F0800007B08000089080000C5
:10571800850800007F080000870800009C0800003A
:10572800AB080000A9080000A5080000B2080000A6
:10573800CC080000DC080000E0080000E9080000D0
:105748000309000025090000410900004C09000078
:105758004D09000055090000620900006A090000AF
:10576800720900007F0900008D0900009A090000F5
:10577800A9090000B0090000A90900009F0900005C
:10578800A4090000B4090000BB090000B409000026
:10579800AD090000B2090000BE090000BE09000002
:1057A800B2090000AD090000B7090000C7090000F0
:1057B800D1090000D2090000CA090000C60900008A
:1057C800C9090000CA090000C8090000C30900008F
:1057D800BC090000B9090000B9090000B3090000BC
:1057E800A009000088090000780900006C09000081
:1057F8005F0900004B0900002D0900000A0900009C
:10580800EF080000E1080000D6080000C808000002
:10581800BC080000B3080000A708000091080000B9
:10582800740800005F080000530800004C080000DE
:105838004308000039080000300800002008000074
:1058480003080000E0070000C3070000AC070000E1
:105858009507000076070000540700003207000093
:1058680013070000FB060000E8060000D106000050
:10587800B8060000A70600009E0600009606000075
:105888008C06000080060000710600006506000016
:105898006406000066060000640600006106000059
:1058A800630600006B060000730600006F06000028
:1058B800600600004E060000450600004506000090
:1058C800450600003D0600003006000028060000DE
:1058D8002A060000340600003A06000035060000DB
:1058E800340600003F0600004E0600005406000083
:1058F80058060000660600008006000099060000B1
:10590800AC060000BE060000D2060000E406000057
:10591800F20600000107000012070000240700003B
:105928003307000038070000350700003307000080
:105938003A07000047070000520700005D07000013
:105948007407000096070000B6070000C7070000AC
:10595800CD070000D6070000EA070000090800008C
:105968002F080000530800006F080000840800009A
:1059780096080000A8080000B5080000B908000053
:10598800B9080000C2080000D5080000E2080000BD
:10599800DB080000CC080000C4080000C8080000AC
:1059A800D0080000D5080000D9080000DF08000072
:1059B800E6080000EC080000F1080000F608000006
:1059C800FC08000005090000100900001709000084
:1059D8001909000019090000170900001909000039
:1059E8001E090000210900001E0900001509000019
:1059F8000C09000002090000F2080000E00800009D
:105A0800D6080000D8080000DF080000DD08000004
:105A1800CF080000B7080000A208000094080000A2
:105A2800860800007708000070080000770800006A
:105A38007D0800007708000067080000570800008C
:105A48005108000052080000510800004B080000EF
:105A5800430800003D080000390800003208000033
:105A68002308000010080000FB070000E9070000F9
:105A7800DF070000D8070000CD070000BF070000BF
:105A8800B7070000B8070000B7070000AD0700001F
:105A9800A6070000B3070000D3070000F0070000C6
:105AA800FB070000FD0700000508000019080000BA
:105AB8003108000041080000470800004E080000B7
:105AC80056080000590800005A0800005F08000046
:105AD800670800006D0800006F08000071080000EA
:105AE800700800006F0800007408000082080000B9
:105AF800910800009F080000AF080000BD080000E2
:105B0800C6080000CC080000D0080000D10800003A
:105B1800D7080000E8080000FE0800000609000099
:105B280000090000020900000D0900001409000026
:105B3800100900000A0900000E0900001C090000F5
:105B48002B0900002E090000240900001A09000092
:105B58001B09000021090000200900001D090000A0
:105B68001E09000024090000280900002809000077
:105B7800250900001E09000016090000160900008A
:105B88001D0900001D090000130900000609000096
:105B9800F7080000EA080000E3080000DC0800003D
:105BA800CE080000B60800009A080000810800002E
:105BB800680800004E0800003B0800002D0800009F
:105BC800200800001308000003080000EE0700008A
:105BD800D8070000C0070000AD070000A1070000BB
:105BE8009C0700009A070000910700007E0700004C
:105BF800640700004B070000390700002607000073
:105C08000B070000EC060000CE060000B3060000FB
:105C1800990600007A0600005A0600003E060000B9
:105C280027060000190600001106000005060000FE
:105C3800F4050000EB050000EB050000ED05000091
:105C4800E8050000DE050000DD050000EC050000A9
:105C5800040600000E060000080600000206000008
:105C6800040600000806000003060000F80500000E
:105C7800F0050000EF050000EF050000EB0500004F
:105C8800E2050000DD050000E0050000E605000073
:105C9800E8050000E9050000ED050000F405000036
:105CA800FD0500000B060000200600003B06000072
:105CB8005106000062060000740600008606000017
:105CC80097060000AA060000BB060000CA060000EE
:105CD800D7060000E2060000E9060000ED06000015
:105CE800F0060000F2060000F606000003070000B8
:105CF8001D07000038070000490700005207000090
:105D08005F07000073070000890700009E07000076
:105D1800B5070000D3070000FC07000020080000BA
:105D2800330800003C0800004A0800005C08000036
:105D38006B0800007A08000089080000930800003A
:105D480094080000900800008E0800008F080000EA
:105D58009208000093080000960800009C080000C4
:105D6800A0080000A1080000A5080000A90800007C
:105D7800B1080000BD080000C9080000CE080000F6
:105D8800CE080000D4080000DD080000E20800008A
:105D9800E6080000ED080000F2080000F308000023
:105DA800EB080000DC080000CD080000C90800006E
:105DB800CC080000CB080000C4080000C0080000A0
:105DC800BF080000B2080000980800007E08000024
:105DD8006B08000064080000640800006008000008
:105DE800560800004E0800004B0800004C08000050
:105DF800480800003C080000300800002C0800009B
:105E08003008000032080000290800001A080000C5
:105E1800100800000D08000006080000F007000048
:105E2800D2070000C3070000C5070000C307000031
:105E3800B1070000990700008807000088070000E4
:105E480094070000A1070000A8070000AF070000A2
:105E5800BB070000C8070000D2070000DC070000ED
:105E6800E8070000F807000009080000170800000C
:105E78001D0800001F080000260800003708000061
:105E88004A080000520800005008000052080000AC
:105E98005D08000065080000610800005E08000059
:105EA8006F0800008E080000A7080000B008000076
:105EB800B3080000B9080000C2080000CD080000BF
:105EC800D6080000DB080000E3080000F208000024
:105ED800040900000E0900000F0900000A0900006B
:105EE8000A09000014090000210900002B0900001C
:105EF8002D0900002C0900002D09000030090000C0
:105F0800300900002C0900002A0900002C090000B3
:105F1800310900003809000039090000340900007F
:105F28002E0900002F09000034090000380900007C
:105F380038090000330900002C0900002509000079
:105F4800200900001A090000120900000D090000CC
:105F580006090000F3080000DA080000BE08000087
:105F6800A1080000890800007808000069080000FE
:105F78005D08000052080000440800002E080000D8
:105F88001708000005080000FA070000F0070000E5
:105F9800E5070000D8070000CC070000C007000094
:105FA800B3070000A30700008E0700007907000070
:105FB8006607000056070000420700002607000099
:105FC80006070000EB060000D3060000BB06000031
:105FD800A30600008B060000760600006A06000093
:105FE800640600005E060000520600004406000039
:105FF800370600002F0600002E06000033060000BA
:1060080038060000410600004E0600005706000052
:1060180057060000570600005E06000065060000EF
:1060280061060000560600004F0600004C060000FE
:106038004B06000048060000480600004C06000019
:1060480052060000520600005006000054060000E8
:106058005F0600006D0600007F0600009306000042
:10606800A4060000B2060000C2060000DC0600001C
:10607800F70600000A0700001507000025070000C2
:1060880040070000550700005A07000055070000A8
:106098005307000057070000600700006E07000064
:1060A8007C0700008B0700009D070000B007000078
:1060B800BE070000C3070000CA070000E007000091
:1060C8000108000025080000440800005C080000E2
:1060D80071080000870800009D080000B208000051
:1060E800C6080000D8080000E8080000F208000010
:1060F800F4080000F4080000F8080000FC0800009C
:10610800000900000509000008090000070900004F
:10611800060900000E090000190900002109000005
:1061280027090000300900003A0900004009000072
:10613800400900003F090000400900004309000031
:10614800490900004D090000500900004F090000EE
:10615800490900003D090000300900002809000035
:10616800220900002109000023090000230900007A
:106178001A09000006090000EE080000DE08000009
:10618800D3080000C5080000B2080000A5080000F8
:10619800A1080000A00800009B080000900800006B
:1061A800850800007F0800007C08000074080000D3
:1061B8006B08000066080000680800006908000015
:1061C800610800004E0800003A0800002D08000091
:1061D800240800001C080000100800000108000046
:1061E800F1070000E3070000D5070000CA07000018
:1061F800C5070000C8070000CF070000D50700004A
:10620800D8070000D8070000DB070000E8070000F7
:10621800F7070000FF070000020800000808000058
:106228001508000021080000270800002A080000BF
:10623800300800003C0800004C080000520800002C
:106248004C080000470800004D0800005B080000EB
:106258006808000074080000820800009208000026
:106268009F080000A6080000A8080000A708000072
:10627800A9080000B3080000C2080000D008000008
:10628800DA080000E0080000E3080000E808000061
:10629800ED080000F1080000F4080000FC08000008
:1062A800060900000C0900000F0900001109000090
:1062B8001309000011090000110900001609000067
:1062C8001C0900001D0900001B0900001709000037
:1062D800110900000E090000100900001309000050
:1062E800120900000B090000040900000009000061
:1062F800FD080000F9080000F5080000F10800009A
:10630800EC080000E4080000D5080000BD08000003
:106318009F08000086080000780800006E0800004A
:10632800600800004E080000390800002608000038
:106338001608000006080000F4070000E307000044
:10634800D8070000D1070000CA070000BD070000F9
:10635800AD0700009C0700008B07000081070000C4
:10636800740700005B0700003D07000026070000D7
:106378001607000001070000E2060000BF06000043
:10638800A10600008E0600008006000072060000CC
:1063980063060000560600004906000038060000A3
:1063A800250600001806000013060000100600006D
:1063B8000D0600000D060000120600001B06000076
:1063C8002206000024060000250600002906000019
:1063D8002C0600002B0600002706000022060000FD
:1063E8001F0600001F06000021060000230600000B
:1063F80022060000210600001F0600001E060000FD
:1064080020060000250600002B06000032060000CA
:1064180042060000580600006C06000079060000DD
:106428008606000099060000B4060000CF060000AA
:10643800E4060000F3060000FF060000090700005C
:106448000B0700000A0700000A07000013070000F6
:106458002307000033070000410700004D07000034
:10646800550700005B07000065070000780700007B
:106478008F070000A6070000BE070000D80700002D
:10648800F3070000090800001D0800003408000098
:106498004E08000067080000780800007E08000029
:1064A8008208000089080000920800009708000090
:1064B800980800009C080000A3080000A708000036
:1064C800A6080000A5080000A8080000AF08000002
:1064D800BC080000C8080000D1080000D608000069
:1064E800DC080000E3080000E8080000EB080000F2
:1064F800F1080000FD080000050900000709000078
:1065080000090000F0080000DF080000D7080000BC
:10651800D5080000D4080000D1080000CC0800000D
:10652800C9080000C5080000BB080000A808000052
:106538009308000082080000740800006408000046
:10654800520800004508000041080000400800000B
:1065580038080000290800001B0800001508000082
:1065680015080000160800001408000010080000B4
:106578000B08000001080000F6070000EE07000005
:10658800E7070000DD070000D4070000CA07000085
:10659800B80700009E0700008D070000860700006E
:1065A800820700007C070000780700007A070000D7
:1065B800810700008A070000930700009807000081
:1065C8009D070000A7070000B5070000BD070000F1
:1065D800BF070000C0070000C6070000D70700007B
:1065E800EA070000F6070000F9070000FC070000B2
:1065F800050800000B0800000A0800000B0800004E
:10660800160800002A08000041080000550800008C
:10661800640800006D080000750800007C08000090
:106628008508000093080000A3080000AF080000D8
:10663800B8080000C3080000CC080000CF0800001C
:10664800D5080000DE080000E8080000F208000095
:10665800FA08000003090000090900000A090000FF
:10666800090900000C0900000F09000014090000C6
:106678001A0900001C0900001B0900001B09000082
:106688001E0900001F0900001E0900001F09000064
:106698002409000026090000230900001C09000045
:1066A800150900001009000013090000190900006D
:1066B8001C0900001409000003090000ED0800008F
:1066C800D6080000C1080000B2080000A5080000B4
:1066D800950800008308000075080000660800009F
:1066E800520800003C0800002D08000023080000A4
:1066F8001708000008080000FA070000F00700006B
:10670800E9070000DF070000D1070000C00700000C
:10671800B2070000A30700008F0700007B070000F6
:106728006A070000560700003C0700001E0700002B
:1067380001070000E8060000D5060000C7060000B3
:10674800B5060000A20600009306000086060000B9
:106758007606000065060000590600005106000094
:106768004E0600004E0600005006000050060000CD
:1067780050060000550600005E0600006406000092
:10678800630600005D0600005B0600005E06000070
:106798005F0600005C0600005B0600005E06000065
:1067A8006006000061060000610600005E06000049
:1067B8005C0600005F060000680600007506000021
:1067C800820600008F0600009B060000AC06000051
:1067D800BD060000CE060000E2060000FB06000031
:1067E800150700002E0700004307000050070000AF
:1067F8005107000050070000530700005F07000022
:106808007107000080070000890700009207000058
:106818009D070000A4070000A9070000B5070000B5
:10682800CA070000E5070000FF0700001308000082
:10683800260800003C080000560800007108000007
:106848008B080000A3080000BB080000CC0800006B
:10685800D9080000E3080000EA080000EF0800007B
:10686800F5080000FC080000FD080000FC08000016
:10687800FC080000FE080000020900000A090000E8
:1068880014090000200900002E0900003809000042
:106898003A09000038090000370900003C090000E7
:1068A800470900005409000059090000590900006F
:1068B80057090000550900004C0900004109000073
:1068C8003B0900003A0900003809000034090000BB
:1068D8002F090000270900001F0900001609000001
:1068E80007090000F3080000E0080000D1080000D4
:1068F800C2080000B8080000B2080000AA0800009A
:106908009C0800008E080000840800007B08000036
:106918007308000071080000740800007208000085
:10692800680800005A0800004F08000049080000E5
:1069380048080000450800003B0800002B0800003C
:106948001C0800000C080000FC070000EB07000012
:10695800DE070000D6070000D3070000D3070000B9
:10696800D2070000D1070000D1070000D8070000B7
:10697800E3070000EE070000F4070000F707000037
:10698800F9070000FE070000050800000C080000D9
:106998001208000019080000240800002C08000054
:1069A8002A080000230800001F0800002208000031
:1069B80028080000350800004708000057080000B4
:1069C80065080000720800007D08000085080000C6
:1069D8008E0800009B080000A9080000B508000008
:1069E800C1080000CC080000D1080000D30800004E
:1069F800D5080000DA080000E2080000ED080000F1
:106A0800F7080000FD080000FF0800000309000067
:106A1800090900000E090000140900001809000007
:106A28001A0900001C0900001E0900001E090000C8
:106A38001E09000020090000250900002A0900009D
:106A48002C0900002B090000260900001E0900007F
:106A58001709000016090000190900001A090000AA
:106A680019090000150900000A090000FB080000C8
:106A7800E7080000D0080000BB080000AD080000CF
:106A8800A2080000930800008108000070080000B8
:106A9800610800004F0800003F08000031080000AE
:106AA800200800000F08000001080000F707000098
:106AB800ED070000E1070000D3070000C40700004D
:106AC800B7070000A9070000990700008707000022
