:020000040800F2
:100000000000022031260008490D00084B0D0008B1
:100010004D0D00084F0D0008510D000800000000B4
:10002000000000000000000000000000530D000868
:10003000550D000800000000570D0008590D00087C
:1000400081260008812600088126000881260008F4
:1000500081260008812600085D0600088126000828
:1000600081260008812600088126000881260008D4
:1000700081260008812600088126000881260008C4
:10008000610D0008812600088126000881260008ED
:1000900081260008812600088126000881260008A4
:1000A0008126000881260008812600088126000894
:1000B0008126000881260008812600088126000884
:1000C0008126000881260008812600088126000874
:1000D0008126000881260008812600088126000864
:1000E0008126000881260008812600088126000854
:1000F0008126000881260008812600088126000844
:100100008126000881260008812600088126000833
:100110008126000881260008812600088126000823
:100120008126000881260008812600088126000813
:100130008126000800000000000000008126000861
:1001400081260008812600088126000881260008F3
:1001500081260008812600088126000881260008E3
:1001600081260008812600088126000881260008D3
:100170008126000881260008812600080000000072
:1001800000000000812600080000000000000000C0
:100190008126000800000000000000008126000801
:1001A00000000000000000000000000081260008A0
:1001B0008126000881260008812600088126000883
:0401C000812600088C
:1001C40010B5054C237833B9044B13B10448AFF38D
:1001D40000800123237010BD944201200000000020
:1001E400DC26000808B5034B1BB103490348AFF3F1
:1001F400008008BD0000000098420120DC260008B1
:1002040053B94AB9002908BF00281CBF4FF0FF3179
:100214004FF0FF3000F088B9ADF1080C6DE904CE61
:1002240000F006F8DDF804E0DDE9022304B07047CD
:100234002DE9F047089D8E4604468846002B4AD196
:100244008A42174662D9B2FA82F64EB1C6F1200349
:1002540001FA06F820FA03F3B74043EA0808B44069
:100264004FEA174E1FFA87FCB8FBFEF1230C0EFB76
:10027400118843EA084301FB0CF29A4209D9FB189E
:1002840001F1FF3080F0EA809A4240F2E7800239BF
:100294003B449A1AA3B2B2FBFEF00EFB102243EACF
:1002A400024300FB0CFC9C4509D9FB1800F1FF320A
:1002B40080F0D6809C4540F2D3803B44023840EA2B
:1002C4000140A3EB0C0300211DB1F3400022C5E95A
:1002D4000032BDE8F0878B4205D90DB1C5E90001B4
:1002E40000210846F5E7B3FA83F1002946D17345A6
:1002F40002D3824200F20581841A6EEB03020120CC
:100304009046002DE5D0C5E90048E2E7002A00F058
:100314009080B2FA82F6002E40F0A4808A1A030C70
:100324004FEA174E80B2BCB20121B2FBFEFC0EFBB9
:100334001C2243EA024304FB0CF29A4207D9FB183D
:100344000CF1FF3802D29A4200F2E080C4469B1AB4
:10035400B3FBFEF20EFB123340EA034302FB04F448
:100364009C4207D9FB1802F1FF3002D29C4200F2F2
:10037400CA8002461B1B42EA0C40A5E7C1F12006D5
:100384008B4022FA06F71F430EFA01F420FA06F313
:100394002EFA06FE4FEA1749234300FA01F81FFA22
:1003A40087FCBEFBF9F01C0C09FB10EE44EA0E447A
:1003B40000FB0CFEA64502FA01F209D93C1900F132
:1003C400FF3A80F09C80A64540F2998002383C4474
:1003D400A4EB0E041FFA83FEB4FBF9F309FB1344E8
:1003E4004EEA044403FB0CFCA44508D93C1903F170
:1003F400FF3E80F08280A4457FD9023B3C4443EA1F
:100404000040A4EB0C04A0FB02EC64457346E146F7
:1004140062D35FD05DB1B8EB030264EB090404FA64
:1004240006F622FA01F31E43CC40C5E9006400211C
:100434004FE7B1FBF2FC010C41EA0E4180B240EA05
:1004440001423B4638463C46B846BE462026B1FBF0
:10045400F7F1A2EB080241EA0C4166E7014618E70E
:1004640010462CE7C6F120022EFA02F3B740B14041
:1004740020FA02F24FEA174E0A43B3FBFEF8BCB26D
:100484000EFB1833110C41EA034108FB04F9B04098
:1004940089454FEA104380B23ED9791808F1FF3CF0
:1004A40001D289451FD8A1EB0901B1FBFEF909FB73
:1004B40004F80EFB191192B242EA0142424529D2D4
:1004C400BA1809F1FF31C4D24245C2D2A9F10201DE
:1004D4003A44BEE7F0459DD2BEEB02036CEB070C39
:1004E4000138E14696E7A7EB09094944A8F1020C53
:1004F400B1FBFEF909FB04F8DBE773467FE75046DE
:1005040066E70846FDE63B44023A33E7ACF1020CE9
:100514003B441CE749469CE7A1EB0901C446B1FBF7
:10052400FEF909FB04F8C4E7704700BF2DE9F04F5A
:100534008BB00024059406940794089409940194BC
:10054400344B1A6B42F080021A631A6B02F0800279
:100554000192019A02941A6B42F001021A631A6B17
:1005640002F001020292029A03941A6B42F0020210
:100574001A631A6B02F002020392039A04941A6B30
:1005840042F004021A631B6B03F004030493049BFC
:100594004FF4404BCDF814B001260696DFF87CA04A
:1005A40005A9504601F04CFC4FF44079CDF8149065
:1005B400DFF86C8005A9404601F042FC4FF4104777
:1005C4000597154D05A9284601F03AFC22465946DF
:1005D400504601F025FD22464946404601F020FDE3
:1005E40022463946284601F01BFD05964FF4881330
:1005F4000693079605A9284601F022FC224602210B
:10060400062001F08FFF062001F09CFF0BB0BDE82F
:10061400F08F00BF00380240000002400008024092
:100624000004024000B583B000210191094B1A6B0C
:1006340042F400121A631B6B03F400130193019B31
:100644000A46102001F06EFF102001F07BFF03B07A
:100654005DF804FB0038024008B501F0D7FF344BC5
:100664001B68C01A312819D901F0D0FF304B18602B
:10067400304801F002FE30490A6801322F4BA3FBD7
:1006840002039B0803EB4303A2EB43030B60052B1C
:1006940012D8DFE803F00715202B3742012001F0C0
:1006A400C7FC0CE08023264A12682649214801F041
:1006B400AFFD254800F038FB012001F0B9FC08BD6E
:1006C40080231F4A126821491A4801F0A1FD2048DD
:1006D40000F02AFBF0E78023194A12681D491548E7
:1006E40001F096FD1C4800F01FFBE5E744F620638B
:1006F400134A126819490F4801F08AFD184800F09E
:1007040013FBD9E780230E4A12681649094801F001
:100714007FFD154800F008FBCEE78023084A1268E5
:100724001249044801F074FD114800F0FDFAC3E7D2
:10073400B4420120B8420120B0420120ABAAAAAAC7
:100744000000002088400120F4260008883E012093
:10075400FC260008883C012000270008080400202B
:100764000C270008080200201427000808000020B5
:100774001C27000872B6FEE700B58FB000230A9369
:100784000B930C930D930893099301930293039392
:10079400049305930693079336484FF08042026012
:1007A40043608360344A1268013AC2600361836122
:1007B40000F0A2FC002850D14FF480530A930AA9F8
:1007C4002C4800F0FFFD002849D12A4800F0C0FC65
:1007D400002846D100230893099308A9254800F06E
:1007E40083FF00283FD100220192029203920592D6
:1007F40001A9204800F03CFD002836D100230093D5
:100804001E4A116B41F400111163126B02F40012C1
:100814000092009A1A481B4A02604FF0C06242607C
:1008240040228260C3604FF4806202614FF48052C0
:1008340042614FF4804282614FF48072C2614FF48E
:1008440000320262436201F07DFC80B9094A0C4B1C
:1008540053629A630FB05DF804FBFFF78BFFFFF759
:1008640089FFFFF787FFFFF785FFFFF783FFFFF798
:1008740081FF00BF604301200400002000380240D3
:10088400B84201208860024000B58FB000230A936B
:100894000B930C930D930893099301930293039381
:1008A40004930593069307931E481F4A026043600E
:1008B400836040F6FF72C2600361836100F01CFC38
:1008C40028BB4FF480530A930AA9164800F07AFD16
:1008D400F8B9144800F068FCE8B9002308930993B8
:1008E40008A9104800F000FFB8B960230193002361
:1008F400029303930593082201A90A4800F0E7FC38
:1009040068B9084800F09AFA0FB05DF804FBFFF7E5
:1009140031FFFFF72FFFFFF72DFFFFF72BFFFFF747
:1009240029FF00BF184301200004004000B595B022
:100934003422002107A801F0A2FE002302930393AE
:100944000493059306930093194A116C41F0805166
:100954001164126C02F080520092009A01931549BE
:100964000A6822F4404242F480420A600A6802F4AF
:1009740040420192019A0222079201220A92102215
:100984000B920D9307A801F039F868B90F2302936D
:100994000021039104910591069102A800F0EAFE5A
:1009A40020B915B05DF804FBFFF7E4FEFFF7E2FEA3
:1009B400003802400070004008B501F001FEFFF766
:1009C400B5FFFFF7B3FDFFF72DFEFFF7D5FEFFF7E9
:1009D4005BFF00F069F90D4800F0D2F808210C48DB
:1009E40000F000FE0B4C0021204600F079FD44F697
:1009F4002063094A12680949094801F009FC226880
:100A0400D36843F40073D360FEE700BFF426000804
:100A14001843012060430120000000208840012089
:100A2400B842012082B000EB40000023019304E0AF
:100A340000BF00BF019B01330193019B8342F7D3A5
:100A440002B0704710B51420FFF7ECFF094CA369FE
:100A540043F40043A3611420FFF7E4FFA36943F0C8
:100A64000043A3611420FFF7DDFFA36943F40043AF
:100A7400A36110BD0008024010B504463D4A9369C5
:100A840043F48043936110F0800F41D13A4A936953
:100A940043F00043936114F0400F40D0364A936909
:100AA40043F48053936114F0200F3ED0334A93698A
:100AB40043F40073936114F0100F3CD02F4A9369F0
:100AC40043F480739361FFF7BDFF14F0080F38D02F
:100AD400294A936943F40043936114F0040F36D018
:100AE400254A936943F48053936114F0020F34D080
:100AF400224A936943F40073936114F0010F32D0D6
:100B04001E4A936943F480739361FFF79BFF10BD02
:100B1400A2F50062936943F400439361BBE7164A6C
:100B2400936943F080539361BDE7144A936943F09A
:100B340000739361BFE7114A936943F08073936133
:100B4400C1E70D4A936943F000439361C5E70A4A3C
:100B5400936943F080539361C7E7084A936943F06C
:100B640000739361C9E7054A936943F08073936105
:100B7400CBE700BF0008024000000240000402402E
:100B840038B50546002403E0FFF776FF0134E4B2EC
:100B9400285D0028F8D138BD10B504463F4A936952
:100BA40043F08043936110F0800F45D13C4A936930
:100BB40043F00043936114F0400F44D0384A9369E2
:100BC40043F48053936114F0200F42D0354A936963
:100BD40043F40073936114F0100F40D0314A9369C9
:100BE40043F480739361FFF72DFF14F0080F3CD09A
:100BF4002B4A936943F40043936114F0040F3AD0F1
:100C0400274A936943F48053936114F0020F38D058
:100C1400244A936943F40073936114F0010F36D0AE
:100C2400204A936943F480739361FFF70BFF40F606
:100C3400B830FFF7F7FE10BDA2F50062936943F4E4
:100C440000439361B7E7164A936943F08053936175
:100C5400B9E7144A936943F000739361BBE7114AFF
:100C6400936943F080739361BDE70D4A936943F040
:100C740000439361C1E70A4A936943F08053936147
:100C8400C3E7084A936943F000739361C5E7054AD3
:100C9400936943F080739361C7E700BF0008024083
:100CA400000002400004024008B5194B1A6B42F0E0
:100CB40001021A631A6B42F002021A631A6B42F0C1
:100CC40004021A63134A136843F08243136002F563
:100CD4008062136843F4A023136002F580621368F2
:100CE40043F0A043136047F23050FFF79BFE3320DC
:100CF400FFF752FF3220FFF74FFF0C20FFF74CFFA6
:100D04002820FFF749FF0120FFF746FF08BD00BF79
:100D1400003802400000024008B50248FFF730FFE7
:100D240008BD00BF2427000810B504468020FFF743
:100D340033FFFFF7F1FF8020FFF72EFF2046FFF778
:100D44001FFF10BDFEE7FEE7FEE7FEE7FEE7704784
:100D54007047704708B501F04DFC08BD08B502485E
:100D640001F09EFA08BD00BFB842012082B0002104
:100D740000910B4B5A6C42F480425A645A6C02F450
:100D840080420092009A01911A6C42F080521A64D7
:100D94001B6C03F080530193019B02B0704700BFAA
:100DA4000038024010B582B00368B3F1804F04D01C
:100DB4001E4A93422CD002B010BD04460023009377
:100DC4001B4A116C41F001011164126C02F0010222
:100DD4000092009A1748184A02604FF0C0624260BD
:100DE4008360C3604FF4806202614FF480524261B9
:100DF4004FF480428261C3610362436201F0A2F94D
:100E040018B90C4B63629C63D5E7FFF7B3FCF8E7B2
:100E140000230193064B1A6C42F002021A641B6C05
:100E240003F002030193019BC5E700BF00040040E7
:100E340000380240B84201208860024000B587B003
:100E440000230193029303930493059302680E4BCA
:100E54009A4202D007B05DF804FB002300930B4BC9
:100E64001A6B42F002021A631B6B03F00203009335
:100E7400009B0123019302230293059301A90448D3
:100E840000F0DEFFE6E700BF000400400038024047
:100E94000004024030B4036A026A22F001020262D2
:100EA4004268846924F0730C0C6844EA0C0423F04F
:100EB400020C8B6843EA0C03114DA84203D005F5DC
:100EC4008065A84205D123F00803CD682B4323F0A5
:100ED40004030B4DA84203D005F58065A84207D151
:100EE40022F440724D6945EA020C8A6942EA0C0216
:100EF400426084614A684263036230BC704700BF49
:100F04000000014030B4036A026A22F48072026273
:100F14004268C46924F0730C0C6844EA0C0523F499
:100F240000738C6843EA0423114CA04203D004F5F7
:100F34008064A04206D123F40063CC6843EA04230E
:100F440023F480630A4CA04203D004F58064A042D9
:100F540007D122F440524C6942EA04128C6942EAF5
:100F640004124260C5614A68C263036230BC7047C0
:100F74000000014030B4036A026A22F48052026223
:100F84004468C26922F4E6420D6842EA052223F469
:100F940000538D6843EA0533094DA84203D005F593
:100FA4008065A84204D124F480444D6944EA851440
:100FB4004460C2614A680264036230BC704700BF87
:100FC4000000014010B4036A046A24F001040462BE
:100FD400846924F0F00C4CEA021223F00A030B4358
:100FE400826103625DF8044B704710B4036A046ABB
:100FF40024F010040462846924F4704C4CEA023234
:1010040023F0A00343EA0113826103625DF8044BF9
:101014007047836823F070030B4343F00703836036
:1010240070477047704700000368324A904212D0FC
:10103400B0F1804F0FD0A2F57C4290420BD002F564
:101044008062904207D002F58062904203D002F59C
:101054007842904203D123F070034A681343254A2F
:1010640090422AD0B0F1804F27D0A2F57C42904222
:1010740023D002F5806290421FD002F58062904234
:101084001BD002F57842904217D002F5705290427C
:1010940013D002F5806290420FD002F58062904234
:1010A4000BD0A2F59832904207D002F580629042AC
:1010B40003D002F58062904203D123F44073CA68DE
:1010C400134323F080034A6913438A68C2620A689F
:1010D4008262084A904203D002F58062904201D1B4
:1010E4000A690263026842F004020260012242615A
:1010F400036070470000014040B310B5044690F807
:101104003D30F3B1022384F83D30214651F8040BFD
:10111400FFF78AFF012384F8463084F83E3084F8D0
:101124003F3084F8403084F8413084F8423084F809
:10113400433084F8443084F8453084F83D3000204E
:1011440010BD80F83C30FFF72DFEDBE7012070472F
:1011540040B310B5044690F83D30F3B1022384F84F
:101164003D30214651F8040BFFF75EFF012384F85C
:10117400463084F83E3084F83F3084F8403084F8B8
:10118400413084F8423084F8433084F8443084F8A1
:10119400453084F83D30002010BD80F83C30FFF726
:1011A40040FFDBE70120704740B310B5044690F8D8
:1011B4003D30F3B1022384F83D30214651F8040B4D
:1011C400FFF732FF012384F8463084F83E3084F878
:1011D4003F3084F8403084F8413084F8423084F859
:1011E400433084F8443084F8453084F83D3000209E
:1011F40010BD80F83C30FFF715FFDBE70120704796
:1012040030B4036A026A22F01002026244688269FE
:1012140022F4E6420D6842EA052223F020038D6899
:1012240043EA0513114DA84203D005F58065A84291
:1012340006D123F08003CD6843EA051323F040036D
:101244000A4DA84203D005F58065A84207D124F4CD
:1012540040644D6944EA85048D6944EA8504446028
:1012640082614A688263036230BC704700000140B7
:1012740090F83C30012B28D010B50446012380F8A7
:101284003C300C2A1CD8DFE802F0071B1B1B0C1B8C
:101294001B1B111B1B1B16000068FFF7FBFD002026
:1012A4000FE00068FFF7ACFF00200AE00068FFF7DA
:1012B40029FE002005E00068FFF75CFE002000E046
:1012C4000120002384F83C3010BD0220704738B55B
:1012D40090F83C30012B66D004460D46012380F87B
:1012E4003C300C2A5AD8DFE802F0075959591B59E7
:1012F40059593059595944000068FFF7CBFD226809
:10130400936943F0080393612268936923F004030B
:1013140093612268936929690B43936100203EE03D
:101324000068FFF76DFF2268936943F400639361DB
:101334002268936923F4806393612268936929691D
:1013440043EA01239361002029E00068FFF7DAFDF6
:101354002268D36943F00803D3612268D36923F078
:101364000403D3612268D36929690B43D361002044
:1013740015E00068FFF7FEFD2268D36943F40063BB
:10138400D3612268D36923F48063D3612268D3696B
:10139400296943EA0123D361002000E001200023EE
:1013A40084F83C3038BD0220FCE710B4846824F48F
:1013B4007F4C42EA03220A4342EA0C0282605DF84F
:1013C400044B704790F83C30012B78D010B504469C
:1013D400012380F83C30022380F83D300268936892
:1013E40023F47F4323F0770393600B68602B4CD086
:1013F40023D8402B54D011D8202B03D00AD80BB1BA
:10140400102B05D119462068FFF703FE002028E0C1
:10141400012026E0302BF5D0012022E0502B0AD108
:10142400CA6849680068FFF7CDFD50212068FFF7BE
:10143400F0FD002015E0012013E0B3F5805F3AD001
:10144400B3F5005F14D0702B37D1CB684A68896834
:101454000068FFF7AAFF2268936843F0770393605C
:101464000020012384F83D30002384F83C3010BD73
:10147400CB684A6889680068FFF797FF2268936819
:1014840043F4804393600020EBE7CA68496800682E
:10149400FFF7ABFD60212068FFF7BBFD0020E0E70C
:1014A400CA6849680068FFF78DFD40212068FFF78E
:1014B400B0FD0020D5E70020D3E70120D1E70220CA
:1014C400704701F01F014FF0010C0CFA01FC036A94
:1014D40023EA0C030362036A8A40134303627047DE
:1014E40010B504460846002942D194F83E30DBB2D8
:1014F400013B18BF0123002B6ED1002851D10223D8
:1015040084F83E30012201462068FFF7DAFF2368A1
:10151400334A934203D002F58062934203D15A6C5A
:1015240042F400425A6423682D4A934249D0B3F1ED
:10153400804F46D0A2F57C42934242D002F58062AD
:1015440093423ED002F5806293423AD002F578424B
:10155400934236D002F57052934232D0A2F59432BF
:1015640093422ED01A6842F001021A60002032E041
:10157400042908D008290DD094F84130DBB2013B8E
:1015840018BF0123B7E794F83F30DBB2013B18BF23
:101594000123B0E794F84030DBB2013B18BF0123CC
:1015A400A9E7042805D0082807D0022384F841308D
:1015B400A8E7022384F83F30A4E7022384F84030EC
:1015C400A0E79A6802F00702062A07D01A6842F0D8
:1015D40001021A60002010BD0120FCE70020FAE798
:1015E4000000014010B504460846002942D194F891
:1015F4003E30DBB2013B18BF0123002B6ED1002823
:1016040051D1022384F83E30012201462068FFF7BD
:1016140058FF2368334A934203D002F58062934211
:1016240003D15A6C42F400425A6423682D4A93420F
:1016340049D0B3F1804F46D0A2F57C42934242D0C8
:1016440002F5806293423ED002F5806293423AD022
:1016540002F57842934236D002F57052934232D06A
:10166400A2F5943293422ED01A6842F001021A6015
:10167400002032E0042908D008290DD094F8413024
:10168400DBB2013B18BF0123B7E794F83F30DBB26C
:10169400013B18BF0123B0E794F84030DBB2013BB3
:1016A40018BF0123A9E7042805D0082807D002237E
:1016B40084F84130A8E7022384F83F30A4E70223EA
:1016C40084F84030A0E79A6802F00702062A07D09F
:1016D4001A6842F001021A60002010BD0120FCE7E4
:1016E4000020FAE70000014090F83C20012A3DD098
:1016F40010B40346012280F83C20022280F83D20E9
:1017040002685068946820F0700C086840EA0C0085
:1017140050601A68164882421AD0B2F1804F17D02E
:10172400A0F57C40824213D000F5806082420FD045
:1017340000F5806082420BD000F57840824207D0E9
:1017440000F57050824203D0A0F59430824204D157
:1017540024F08004496821439160012283F83D20EC
:10176400002083F83C005DF8044B7047022070476A
:1017740000000140002800F09B8070B50D4604462F
:101784004F4B1B6803F00F038B4208D2CBB24C4A79
:101794001370136803F00F038B4240F08B802368AF
:1017A40013F0020F17D013F0040F04D0454A9368C6
:1017B40043F4E0539360236813F0080F04D0414AC4
:1017C400936843F4604393603E4A936823F0F003C4
:1017D400A1680B439360236813F0010F32D0636850
:1017E400012B21D09A1E012A25D9364A126812F0FB
:1017F400020F61D033498A6822F0030213438B60DD
:1018040000F004FF06462F4B9B6803F00C0362684C
:10181400B3EB820F16D000F0F9FE801B41F288333F
:101824009842F0D9032042E0264A126812F4003F9D
:10183400E0D101203BE0234A126812F0007FD9D1A5
:10184400012034E01E4B1B6803F00F03AB4207D9A1
:10185400EAB21B4B1A701B6803F00F03AB422DD185
:10186400236813F0040F06D0164A936823F4E05358
:10187400E1680B439360236813F0080F07D0114A03
:10188400936823F46043216943EAC103936000F041
:1018940021F80C4B9B68C3F303130B4AD35CD84069
:1018A4000A4B18600A4B186800F064FE002070BDF3
:1018B400012070470120FAE70120F8E70120F6E74C
:1018C400003C0240003802404027000890420120BA
:1018D4008C42012008B5464B9B6803F00C03082B8F
:1018E40005D00C2B43D0042B7FD1424819E0404B48
:1018F4005A6802F03F025B6813F4800F12D03C4B2D
:101904005968C1F388113B480023A1FB0001FEF78D
:1019140077FC374B5B68C3F3014301335B00B0FBD7
:10192400F3F008BD324B5868C0F388104FEA401CEE
:10193400BCEB000C6EEB0E0E4FEA8E1343EA9C6375
:101944004FEA8C11B1EB0C0163EB0E03DB0043EAAD
:101954005173C90011EB000C43F1000399020023F9
:101964004FEA8C2041EA9C51FEF74AFCD1E7204B18
:101974005A6802F03F025B6813F4800F10D01C4BCE
:101984005968C1F388111B480023A1FB0001FEF72D
:1019940037FC174B5B68C3F30273B0FBF3F0C0E78B
:1019A400134B5868C0F388104FEA401CBCEB000C82
:1019B4006EEB0E0E4FEA8E1343EA9C634FEA8C11D2
:1019C400B1EB0C0163EB0E03DB0043EA5173C90076
:1019D40011EB000C43F10003990200234FEA8C2021
:1019E40041EA9C51FEF70CFCD3E7034899E700BF9A
:1019F4000038024040787D010024F400002800F003
:101A0400018270B582B00446036813F0010F41D01F
:101A1400994B9B6803F00C03042B32D0964B9B68C4
:101A240003F00C03082B27D0934B9B6803F00C03A3
:101A34000C2B59D06368B3F5803F5BD0B3F5A02F6E
:101A44005ED08D4B1A6822F480321A601A6822F430
:101A540080221A606368002B5CD000F0D7FD054635
:101A6400854B1B6813F4003F14D100F0CFFD401BDD
:101A74006428F5D90320CCE17F4B5B6813F4800F15
:101A8400D2D07D4B1B6813F4003F03D06368002B56
:101A940000F0BA81236813F0020F60D0764B9B6884
:101AA40013F00C0F4AD0744B9B6803F00C03082B03
:101AB4003FD0714B9B6803F00C030C2B69D0E36897
:101AC400002B75D06D4B01221A6000F09FFD054676
:101AD400694B1B6813F0020F61D100F097FD401BA6
:101AE4000228F5D9032094E1634B5B6813F4800F5B
:101AF400A0D0C6E7604A136843F480331360A9E7B3
:101B04005D4B1A6842F480221A601A6842F48032EB
:101B14001A609FE700F07AFD0546574B1B6813F4E3
:101B2400003FB7D000F072FD401B6428F5D90320B4
:101B34006FE1514B5B6813F4800FBAD14E4B1B68B5
:101B440013F0020F03D0E368012B40F05F814A4A8F
:101B5400136823F0F803216943EAC103136023687F
:101B640013F0080F49D06369002B33D0434B012293
:101B7400C3F8802E00F04AFD05463F4B5B6F13F01F
:101B8400020F3AD100F042FD401B0228F5D9032090
:101B94003FE1394B5B6813F4800F90D1CEE7364AAE
:101BA400136823F0F803216943EAC1031360D6E7FD
:101BB400324B00221A6000F029FD05462E4B1B68AB
:101BC40013F0020FCBD000F021FD401B0228F5D901
:101BD40003201EE1294B0022C3F8802E00F016FDDD
:101BE4000546254B5B6F13F0020F06D000F00EFD87
:101BF400401B0228F5D903200BE1236813F0040FDE
:101C040076D01D4B1B6C13F0805F33D100230193FE
:101C1400194B1A6C42F080521A641B6C03F0805307
:101C24000193019B0125164B1B6813F4807F29D077
:101C3400A368012B3AD0052B3ED00F4B1A6F22F02C
:101C440001021A671A6F22F004021A67A368002BB4
:101C54003CD000F0DBFC0646074B1B6F13F0020F71
:101C640045D100F0D3FC801B41F288339842F3D96C
:101C74000320CEE00025D6E70038024000004742AA
:101C8400007000406B4A136843F48073136000F0E3
:101C9400BDFC0646674B1B6813F4807FC8D100F077
:101CA400B5FC801B0228F5D90320B2E0624A136F09
:101CB40043F001031367C9E75F4B1A6F42F0040254
:101CC4001A671A6F42F001021A67BFE700F09EFC20
:101CD4000646594B1B6F13F0020F08D000F096FC18
:101CE400801B41F288339842F3D9032091E0EDB987
:101CF400A369002B00F08C804F4A926802F00C021A
:101D0400082A54D0022B17D04C4B00221A6600F03C
:101D14007DFC0446484B1B6813F0007F45D000F05F
:101D240075FC001B0228F5D9032072E0424A136CAB
:101D340023F080531364DBE7404B00221A6600F063
:101D440065FC05463C4B1B6813F0007F06D000F091
:101D54005DFC401B0228F5D903205AE0E369226A9E
:101D64001343626A43EA8213A26A5208013A43EABD
:101D74000243E26A43EA0263226B43EA02732E4A95
:101D840053602E4B01221A6600F040FC04462A4B95
:101D94001B6813F0007F06D100F038FC001B0228FA
:101DA400F5D9032035E0002033E0002031E0012B99
:101DB40031D0214B5B6803F48001E26991422CD15C
:101DC40003F03F02216A8A4229D1616A47F6C07250
:101DD4001A40B2EB811F24D103F44031A26A5208A5
:101DE400013AB1EB024F1ED103F07062E16AB2EB2B
:101DF400016F1AD103F0E043226BB3EB027F16D1DB
:101E0400002006E001207047012002E0012000E0EC
:101E1400002002B070BD0120FBE70120F9E701209A
:101E2400F7E70120F5E70120F3E70120F1E70120BE
:101E3400EFE700BF00700040003802400000474256
:101E440000230F2B00F2E38070B582B065E0856853
:101E54004FEA430E032404FA0EF425EA0405CC6881
:101E640004FA0EF42C438460446824EA02044A68A9
:101E7400C2F300129A40224342605CE0DC0808345A
:101E840050F8242003F00705AD004FF00F0E0EFAB2
:101E940005FE22EA0E0E0A69AA4042EA0E0240F842
:101EA40024205CE0062200E0002202FA0EF22A431B
:101EB4000234574D45F82420564A94686FEA0C02C0
:101EC40024EA0C054E6816F4801F01D04CEA040580
:101ED400504CA560E46802EA04054E6816F4001F3D
:101EE40001D04CEA04054B4CE560646802EA040541
:101EF4004E6816F4003F01D04CEA0405454C656079
:101F0400246822404D6815F4803F01D04CEA040255
:101F1400404C226001330F2B77D801229A400C6881
:101F240004EA020C32EA0404F4D14C6804F0030419
:101F3400013C012C8BD94A6802F00302032A09D020
:101F4400C4685D000322AA4024EA02048A68AA4005
:101F54002243C2604A6802F00302022A8ED0046857
:101F64004FEA430E032202FA0EF224EA02044A68FC
:101F740002F0030202FA0EF2224302604A6812F4EB
:101F8400403FC7D000220192234A546C44F4804459
:101F94005464526C02F480420192019A9C08A51C7C
:101FA4001B4A52F8255003F0030E4FEA8E0E0F22FF
:101FB40002FA0EF225EA0205184A90423FF474AF81
:101FC40002F58062904216D002F58062904214D0ED
:101FD40002F58062904212D002F58062904210D0E5
:101FE40002F5806290420ED002F5806290423FF486
:101FF40059AF072259E7012257E7022255E7032286
:1020040053E7042251E705224FE702B070BD704741
:1020140000380140003C014000380240000002400A
:102024000AB18161704709048161704770470000FB
:1020340008B5054B5B69034200D108BD024B5861EA
:10204400FFF7F4FFF9E700BF003C014030B4056836
:102054002C6824F480242C60046863608368402B1B
:1020640005D0036899600368DA6030BC7047036880
:102074009A600368D960F8E710B40368D9B21039DC
:102084000A4AA2FB01421209094CA25CC2655F29FB
:1020940007D96FF3090304338365806D5DF8044B3E
:1020A40070476FF309038365F7E700BFABAAAAAAD9
:1020B40038270008836A826992B9012B0AD0022B5F
:1020C40002D00BB100207047C36A13F0807F28D17F
:1020D40000207047C36AB3F1C07F24D0002070474A
:1020E400B2F5005F09D0022B25D9032B25D1C36A91
:1020F40013F0807F23D100207047032B03D8DFE83F
:1021040003F01404140A00207047C36A13F0807F9C
:102114000DD100207047C36AB3F1C07F09D00020FD
:10212400704701207047012070470120704701204B
:10213400704701207047012070470020704701203C
:102144007047000070B5044600F060FA002C5BD0C4
:102154000546022384F83530002384F8343022689D
:10216400136823F00103136023681A6812F0010F47
:102174000AD000F04BFA431B052BF5D920236365E5
:10218400032084F8350070BD1A6820491140626844
:10219400A0680243E0680243206902436069024385
:1021A400A0690243E0690243206A02430A43616A68
:1021B40004291ED01A602668756925F00705636A2C
:1021C4001D43042B07D1A36A1D43E36A1BB12046B8
:1021D400FFF770FF90B975612046FFF74DFFE26D80
:1021E4003F239340836000206065012384F83530E9
:1021F400C9E7E16A206B01430A43DBE740236365D7
:10220400012084F83500BEE70120BCE73F8010F0D0
:1022140038B50446856D90F8340001282BD0012090
:1022240084F8340094F83500C0B2012804D00023A7
:1022340084F83430022038BD022084F835000020B0
:1022440060652046FFF702FFE26D3F239340AB60D9
:102254002268136843F016031360236C23B12268C9
:10226400136843F0080313602268136843F0010302
:1022740013600020DFE70220DDE790F83530DBB2A1
:10228400022B03D08023436501207047052380F887
:1022940035300268136823F001031360002070478F
:1022A400F0B583B0044600230193724B1D68724B52
:1022B400A3FB0535AD0A876D3E68C26D08239340C4
:1022C400334210D003681A6812F0040F0BD01A6856
:1022D40022F004021A60C26D08239340BB60436D70
:1022E40043F001034365E26D01239340334209D077
:1022F4002268526912F0800F04D0BB60636D43F012
:1023040002036365E26D04239340334209D02268DB
:10231400126812F0020F04D0BB60636D43F0040333
:102324006365E26D10239340334224D0226812681F
:1023340012F0080F1FD0BB6023681A6812F4802FB4
:102344000DD01B6813F4002F04D1236C9BB12046DD
:10235400984710E0A36C73B1204698470BE01A68C5
:1023640012F4807F03D11A6822F008021A60236CE9
:102374000BB120469847E26D20239340334255D059
:102384002268126812F0100F50D0BB6094F83530F8
:10239400DBB2052B0ED023681A6812F4802F33D0D9
:1023A4001B6813F4002F2AD1636C002B3ED0204607
:1023B40098473BE02268136823F0160313602268F1
:1023C400536923F080035361236CA3B1226813681B
:1023D40023F008031360E26D3F239340BB600123A5
:1023E40084F83530002384F83430236D002B3FD03B
:1023F400204698473CE0A36C002BE7D1EBE7E36B66
:10240400A3B12046984711E01A6812F4807F09D1DD
:102414001A6822F010021A60012384F83530002370
:1024240084F83430E36B0BB120469847636DFBB1FD
:10243400636D13F0010F17D0052384F8353022683B
:10244400136823F001031360019B01330193AB4232
:1024540004D823681B6813F0010FF5D1012384F815
:102464003530002384F83430E36C0BB120469847B0
:1024740003B0F0BD90420120B5814E1B002807DB5C
:1024840000F01F02400901239340024A42F8203021
:10249400704700BF00E100E0002808DB0901C9B271
:1024A40000F1604000F5614080F80013704700F0CF
:1024B4000F000901C9B2014B1954704714ED00E033
:1024C40000B500F00700C0F1070CBCF1040F28BFF1
:1024D4004FF0040C031D062B0FD9C31E4FF0FF3E13
:1024E4000EFA0CF021EA000199400EFA03FE22EAEA
:1024F4000E0241EA02005DF804FB0023EEE700004F
:10250400074AD36823F4E0631B041B0C000200F4A5
:10251400E060034343F0BF6343F40033D360704788
:1025240000ED00E010B50446054BD868C0F3022066
:10253400FFF7C6FF01462046FFF7AEFF10BD00BF00
:1025440000ED00E008B5FFF799FF08BD0138B0F1D0
:10255400807F0BD24FF0E0235861054AF02182F8C6
:1025640023100020986107221A61704701207047E8
:1025740000ED00E010B504460E4B1A784FF47A7360
:10258400B3FBF2F30C4A1068B0FBF3F0FFF7DEFF85
:1025940068B90F2C01D901200AE0002221464FF02E
:1025A400FF30FFF7BFFF054B1C60002000E0012057
:1025B40010BD00BF88420120904201208C420120BE
:1025C40008B50B4B1A6842F400721A601A6842F498
:1025D40080621A601A6842F480721A600320FFF75E
:1025E4008FFF0F20FFF7C6FFFEF7C0FB002008BDDA
:1025F400003C0240034A1168034B1B780B441360F0
:10260400704700BFA843012088420120014B18688D
:10261400704700BFA8430120034AD2F8883043F42E
:102624007003C2F88830704700ED00E0DFF834D062
:10263400FFF7F2FF0C480D490D4A002302E0D4587D
:10264400C4500433C4188C42F9D30A4A0A4C0023F8
:1026540001E013600432A242FBD300F019F8FEF744
:10266400ABF97047000002200000002094420120D2
:102674006027000894420120AC430120FEE7024495
:102684000346934200D1704703F8011BF9E70000A9
:1026940070B50D4D0D4C641BA4100026A64209D143
:1026A4000B4D0C4C00F018F8641BA4100026A64235
:1026B40005D170BD55F8043B98470136EEE755F84F
:1026C400043B98470136F2E75827000858270008CA
:1026D400582700085C270008F8B500BFF8BC08BC00
:1026E4009E467047F8B500BFF8BC08BC9E467047CC
:1026F40053696E650000000053617700547269618C
:102704006E676C65000000005069616E6F00000028
:102714004472756D000000004775697461720000B1
:1027240020202020202020202020202020202020A5
:10273400000000000006101600061016000000003D
:0C27440000000000010203040607080961
:08275000E4DAFF7F0100000044
:04275800E90100088B
:04275C00C5010008AB
:102760003C04004002000000B20A0000420B0000DE
:10277000830A00003A0B0000B506000002070000C3
:1027800064050000210800002A0A00001B05000063
:10279000370700009606000032070000FF07000020
:1027A000070B0000640A000045080000C40A00008E
:1027B0005F060000C705000021060000E7070000D3
:1027C000E407000074060000E5080000910700001F
:1027D0004D090000C80900006D0900004408000010
:1027E0001B07000011070000D30500004007000090
:1027F0002806000095090000EA0800001A070000FA
:10280000530A00006C0900008D08000079070000E1
:102810002F080000FC0500000D070000EC08000078
:1028200057060000FE06000051080000F40A0000F0
:10283000EA080000AF08000073080000FA05000075
:1028400081070000910700002208000040070000F7
:10285000CD070000E60700005E080000FF0800004A
:10286000B3080000900A0000700600008606000011
:10287000EA070000CC06000034070000C80700008B
:1028800020090000DB070000FA0900004B090000E6
:10289000E0060000E40600004C080000DF0800002D
:1028A00013060000DC070000DF0600001007000030
:1028B0002809000027090000700900004A080000EC
:1028C0009D0800007E070000330700009C06000002
:1028D000C6070000540800003C060000050900007F
:1028E00038090000A80800006B0800009E080000DE
:1028F0004908000029070000BD080000E5060000A7
:10290000BC05000039070000A4090000B808000059
:10291000CF070000470900006107000060080000C1
:1029200092080000070800005E070000D3060000C0
:10293000CC07000082070000D907000059080000FA
:10294000CB090000070800005C070000EB0800004E
:10295000AF070000600700003E07000010080000FD
:10296000C7070000080800009B080000F2070000ED
:102970000608000001080000FB0700000108000035
:10298000FB07000004080000FF070000FD0700002F
:10299000FA07000001080000F60700000708000021
:1029A000F7070000FF070000FE070000FE07000019
:1029B00000080000080800000108000003080000EB
:1029C000F707000001080000F107000005080000FB
:1029D000FC07000008080000FA070000FF070000DD
:1029E000F6070000FB070000EF07000005080000E5
:1029F000F90700000C080000F807000008080000B4
:102A0000FE07000008080000F7070000110800009A
:102A1000FA07000009080000EB0700003F0700006C
:102A2000BB070000EF08000096080000AD0500009D
:102A3000AC0700008D0C0000FF0F00003E090000F5
:102A4000000000007B00000000000000360B0000CA
:102A5000FF0F0000FF0F00003A0C000022000000F2
:102A60006C000000000000003D080000E70F0000BF
:102A7000E30F0000F00F0000230C00000D04000025
:102A800041010000BE020000EA070000C90A000080
:102A90002608000035030000D90000001A020000DB
:102AA000A70400005B070000EB06000052060000D0
:102AB000530500001607000050060000E90600005C
:102AC0002C090000C60A0000490C00009A0D000005
:102AD000D80D0000500E00009C0F0000EE0F00000B
:102AE000960F0000DA0D0000D30A00004309000031
:102AF0006808000060080000F407000031070000CB
:102B00009403000000000000170000000000000017
:102B10001900000000000000D5010000730400004F
:102B2000AE060000150A0000FE0A0000960A00002A
:102B3000560A0000D709000060090000D80B000009
:102B4000BD0C0000E50C00001D0D0000640C000031
:102B5000470B0000100D00000B0E00009E0E000041
:102B6000C30E00002A0C0000FF070000FF07000052
:102B7000FF070000FF070000FF070000FF0700003D
:102B8000FF070000FF070000FF070000FF0700002D
:102B9000FF070000FE070000FE070000000800001D
:102BA000FF070000FF070000FD070000FF0700000F
:102BB00000080000FF070000FE07000000080000FA
:102BC00000080000FE07000000080000FF070000EA
:102BD00000080000080600003C070000080700008D
:102BE000E90900003B060000720A00005F060000D1
:102BF000010C0000CC060000610E0000680500001A
:102C0000660500008C060000A8080000B006000061
:102C10009C09000006070000E6090000C507000047
:102C2000140D000074080000E80300008E06000088
:102C3000F60700002C0700002A080000AE0700007D
:102C4000C308000080080000010A00007B0A0000A1
:102C5000E7030000590700008A0700001E08000073
:102C600090070000D8080000C907000073090000A1
:102C700076080000490C0000000400001307000063
:102C8000F30600009E0800009B0600003B090000C0
:102C9000C8060000380A0000D6060000B30C000089
:102CA000B60400003B070000970600001C09000066
:102CB0003D060000ED09000056060000A40A0000D1
:102CC00056060000DA0C00000D060000E6060000C3
:102CD0002E06000055090000E2050000C3090000AF
:102CE00000060000930A000025060000E00B00002B
:102CF0001F070000F5060000FC0500007F0900002A
:102D0000FB050000D00900005F060000220A000059
:102D100082060000130B000059080000F3060000B3
:102D2000BB0500003E090000310600004509000017
:102D3000A7060000A10900001D070000C00900004F
:102D4000160900001E070000DA050000F90800005F
:102D5000CC060000A408000062070000DC080000A8
:102D6000E4070000B3080000F60900005007000067
:102D7000EA0500002308000093070000CE070000CA
:102D80000308000014080000B0080000D907000084
:102D9000370A0000AA070000630600007F07000052
:102DA0004408000034070000AE0800007E07000061
:102DB000440900003E0700004E0A000023080000FE
:102DC000D80600009C060000B6080000D2060000ED
:102DD000CA080000ED060000970900000B0700007C
:102DE000D909000052080000590700003806000009
:102DF000E6080000C0060000FC080000C406000051
:102E0000B20900001A0700007B090000C108000099
:102E1000DC070000FB050000E5080000B20600002A
:102E2000DF080000B6060000670900007007000018
:102E3000E6080000C50800004C080000F30500008B
:102E4000E3080000E70600009608000030070000D5
:102E5000AF0800000F0800003C0800001B0900003C
:102E600084080000430600005108000075070000B8
:102E7000310800007A070000360800005108000001
:102E800002080000C7080000DF0800006306000019
:102E9000EC070000BA07000008080000E407000083
:102EA000F107000084080000FC0700009008000003
:102EB00049090000CA06000057070000F307000098
:102EC000CB07000013080000AD0700007A080000DF
:102ED00018080000330800005E09000049070000E0
:102EE0000407000010080000B207000032080000CC
:102EF000970700005608000032080000060800008E
:102F000033090000FE070000AE06000022080000A2
:102F10008407000040080000960700002908000010
:102F20004F08000002080000CE08000093080000CF
:102F3000A60600000C0800008407000046080000F8
:102F4000AE0700000B08000047080000260800003C
:102F50006D08000016090000BC060000DA0700003A
:102F60009C07000030080000CB070000EF070000BE
:102F7000400800002D0800001A0800003009000079
:102F8000080700009E070000A507000018080000C1
:102F9000EF070000EF0700001908000067080000B5
:102FA000CE0700003C090000620700006007000037
:102FB000C4070000F8070000FF070000DF0700005B
:102FC0000108000087080000AD070000F7080000B6
:102FD000D607000031070000D4070000DA07000020
:102FE00027080000EE070000F00700008508000039
:102FF000CD070000A80800004608000015070000E3
:10300000D1070000C00700001F08000003080000EF
:10301000EB070000690800001208000045080000E6
:10302000A80800002E070000C2070000BC0700002F
:103030001008000004080000EB0700003F08000033
:10304000450800000A080000B20800005A07000006
:10305000B0070000C30700000C080000FE070000D6
:10306000FB0700000E08000059080000E3070000FD
:10307000B90800009D07000098070000C60700007F
:1030800014080000F807000008080000EB07000023
:1030900064080000D507000096080000DB07000068
:1030A00078070000C30700000F080000F8070000C1
:1030B00006080000ED07000057080000E4070000C4
:1030C00078080000170800007F070000B007000024
:1030D000190800000308000018080000D9070000C4
:1030E00056080000F80700005008000044080000DF
:1030F0008807000097070000F40700001808000088
:1031000006080000DC0700003C0800000908000079
:10311000270800005B080000B007000089070000D6
:10312000E10700002208000017080000F007000077
:103130002E080000250800000D080000700800009F
:10314000C307000099070000C20700001B08000029
:1031500008080000F50700000B0800003E0800000A
:10316000F007000067080000D9070000A007000072
:10317000C30700000608000008080000FF07000061
:10318000090800004C0800000B080000500800006F
:10319000F5070000AF070000AF07000009080000B6
:1031A000F0070000FD070000FD07000039080000DF
:1031B0001F0800003808000022080000BE070000B9
:1031C000B1070000F7070000FA070000FF07000042
:1031D000F20700002C080000150800002B08000072
:1031E00028080000E1070000AC070000EF0700001E
:1031F000F507000003080000F407000020080000A5
:10320000150800000D08000024080000E807000071
:10321000C0070000E00700000A080000FF070000E8
:10322000FF070000140800002E0800000D08000031
:1032300023080000FC070000D3070000D6070000A9
:1032400009080000F0070000030800000108000062
:1032500027080000060800001A08000008080000FF
:10326000DF070000D507000008080000EE07000097
:1032700004080000F40700002F080000F507000014
:103280001B080000FA070000F9070000CB07000048
:103290000C080000DC07000004080000EC07000038
:1032A00034080000FC0700001908000005080000B1
:1032B00009080000CA07000009080000DF07000035
:1032C00003080000E0070000270800000F080000C6
:1032D000140800000608000021080000CF070000C5
:1032E0000B080000DC07000004080000D7070000FE
:1032F0000F08000019080000100800000308000073
:1033000023080000CD07000006080000E6070000C3
:10331000FD070000E4070000E907000012080000B4
:103320000E0800000D08000022080000EF07000052
:10333000F6070000F2070000FA0700000508000089
:10334000EA070000000800001E0800000608000050
:103350001D08000000080000EA070000F107000057
:10336000F307000003080000F1070000EB0700006E
:1033700023080000FC070000100800000D080000F2
:10338000F5070000ED070000F1070000000800004D
:103390000D080000F40700001708000009080000ED
:1033A000030800001B080000F1070000EF07000001
:1033B000E9070000F60700000C080000EF07000016
:1033C0000E08000003080000F60700001F080000B8
:1033D000F9070000F6070000DD070000F60700000F
:1033E00008080000FA0700000508000016080000A1
:1033F000EA07000026080000F80700000D0800009A
:10340000E50700000208000002080000FF070000B6
:10341000EE0700001C080000DB0700002008000089
:10342000F607000007080000E6070000F8070000A4
:103430000208000001080000E80700002108000061
:10344000E70700001F080000060800000B08000046
:10345000F0070000F0070000FE0700000B08000066
:10346000DD0700001A080000E3070000170800004D
:103470000208000014080000F3070000F307000032
:10348000F907000017080000DB0700001108000022
:10349000E50700000B080000030800001208000008
:1034A000FC07000006080000EF07000025080000E8
:1034B000DA07000008080000F1070000FC07000020
:1034C0000408000008080000FC07000002080000D3
:1034D000FC0700001A080000F4070000F4070000D1
:1034E00002080000F907000000080000FF070000C4
:1034F000FE070000F807000006080000150800009D
:1035000002080000EC0700000A080000F9070000AC
:1035100001080000F007000005080000E1070000B6
:10352000050800000A0800000D080000E60700007A
:1035300017080000FC07000014080000E407000062
:1035400009080000E9070000090800000908000058
:1035500011080000E607000018080000F607000048
:103560001C080000D60700000B080000E707000059
:103570000B0800000608000012080000E907000020
:103580000D080000F407000023080000DE0700001B
:10359000FE0700003507000031080000A307000007
:1035A00070080000BC07000056080000D5070000A6
:1035B0007C080000BE070000DD08000031070000A5
:1035C0001E080000A00700004F080000CF07000001
:1035D00070080000B60700006F080000BF07000079
:1035E000C208000068070000C7070000AF0700001E
:1035F00036080000C10700004C080000C2070000A8
:103600006A080000B40700008D080000BF07000032
:10361000B9070000D90700002F080000DF070000ED
:1036200050080000D00700004D080000DD07000032
:103630005D0800000108000083070000D5070000B6
:1036400009080000E10700002C080000E90700005D
:10365000310800000C0800001608000043080000B4
:1036600086070000F0070000F5070000FC070000D7
:103670000B08000009080000FF0700003D080000DB
:10368000E80700007D0800007D070000DD0700005E
:10369000E007000002080000E70700002308000020
:1036A000D80700005A080000BF0700008708000084
:1036B000A3070000E5070000DF0700001608000070
:1036C000D907000047080000C30700007108000088
:1036D000B807000089080000C4070000D5070000F3
:1036E000C00700001F080000BD07000046080000DA
:1036F000B30700006B080000B30700006E0800006D
:10370000E0070000E3070000B307000032080000F4
:10371000B90700004E080000BD0700005E08000069
:10372000D30700004E080000FF070000E10700007B
:10373000AA07000028080000B507000040080000A4
:10374000C407000049080000F0070000240800003A
:103750001F080000E7070000BB0700002108000069
:10376000CB07000029080000E40700002108000042
:10377000180800000A0800003A080000EA070000E4
:10378000C107000009080000DB0700000A0800006C
:1037900000080000FA07000029080000E807000000
:1037A0003D080000ED070000CE070000F207000012
:1037B000F8070000EC07000021080000DD0700000A
:1037C0003B080000E10700004C080000FA07000079
:1037D000D9070000D507000007080000D307000044
:1037E00030080000C507000040080000DA070000AC
:1037F000490800000D080000E8070000C5070000A8
:1038000018080000D107000033080000C8070000B6
:1038100029080000F40700002C080000340800000C
:10382000EF070000C807000001080000E1070000E2
:1038300019080000E6070000010800000108000068
:10384000050800003608000001080000C707000056
:10385000FB070000EB07000012080000FA07000059
:10386000FE0700000B0800000308000032080000FB
:1038700015080000D0070000F1070000EC07000069
:10388000FE07000000080000F50700000E08000019
:10389000F60700002508000016080000DD070000FC
:1038A000E8070000FC070000F80700000A08000015
:1038B000F307000018080000F90700001B080000CB
:1038C0001B080000E6070000D50700000408000000
:1038D000F70700000E080000F307000013080000BF
:1038E000FF0700000E0800001C080000EC070000A5
:1038F000CF070000FF070000FF0700000C080000D2
:10390000F60700000D080000080800000908000084
:1039100016080000F9070000D0070000FA070000B1
:103920000208000003080000F90700000408000076
:1039300011080000070800000F080000020800003E
:10394000D6070000F307000008080000FD0700008C
:10395000FC070000FF0700000B0800000D08000036
:103960000908000012080000DF070000ED07000052
:103970000908000001080000FC070000FD07000026
:10398000FD07000013080000FA0700001A080000F5
:10399000E8070000E90700000D0800000208000029
:1039A000FB07000006080000F807000010080000F0
:1039B000F307000016080000F1070000DD07000013
:1039C0000A08000009080000F70700000B080000C3
:1039D000F607000013080000F607000014080000B6
:1039E00000080000DE070000FD07000014080000CA
:1039F000F60700000E080000F007000011080000A4
:103A0000F50700000B08000008080000E4070000AC
:103A1000EC07000016080000F2070000060800008E
:103A2000F50700000608000001080000010800007A
:103A30000E080000E2070000EE0700001608000074
:103A4000040800000108000002080000FE07000052
:103A50000D080000F807000017080000E20700004A
:103A6000EE070000FE0700000F080000F30700004B
:103A70000C08000077040000D1060000380900009F
:103A8000600700005407000081070000330A0000AF
:103A9000FC06000096090000EE0A00002007000066
:103AA000A20500004B0700008A0900005207000031
:103AB00070060000B80800004F090000CC060000A6
:103AC0005B0A0000C00900009A08000038050000E9
:103AD000E506000030090000F30500002908000099
:103AE000770700001D0900003E0700004B09000099
:103AF000CA0A0000BB050000BF0700003C0600002A
:103B0000F5090000B606000025070000B109000015
:103B1000D2060000910900007F080000440A00005E
:103B2000D1060000E2050000D1080000690700008E
:103B30009C0700000F070000F8080000BB0700000A
:103B40000D0800008A0900001A0900007206000032
:103B5000BF060000530800001708000064070000BB
:103B60004E07000086090000FA0600004009000028
:103B7000440900009F0800001D070000C205000066
:103B8000DE09000052060000F7070000AC07000045
:103B90003D080000BD080000F5060000300B0000E5
:103BA000BE0600005A0700002F0700002B08000087
:103BB000530800001C060000810900009407000063
:103BC0001E080000DC080000480900003108000061
:103BD00005060000240800001F080000510700002F
:103BE0007507000090080000DF0700002C080000A7
:103BF00095080000B1090000FF060000AF060000B4
:103C0000830800006F0700004B0800008B060000CF
:103C10006D09000090070000D7070000FE090000B2
:103C2000A707000093080000A80500001409000081
:103C3000B0070000EB060000F408000011070000C8
:103C40002309000019070000C30900006D080000E7
:103C50009E060000F307000088070000940800009B
:103C6000020700003A0800006B080000AB070000E4
:103C700078080000170900001B0800003A07000040
:103C8000420700003E080000EC070000F2060000BA
:103C9000F508000057070000A80800000C08000005
:103CA000E00800008F080000FA050000030900008A
:103CB000000700009908000067070000E307000004
:103CC00011090000950600000D0A0000BD07000064
:103CD0006E080000FC06000069070000E90800000B
:103CE000A60600009C0800009F0700005D08000079
:103CF000B6070000EB080000830800007007000012
:103D00007D0700009F0700009508000020070000C5
:103D10009C080000B00700003808000010080000F0
:103D2000A8080000D3080000EA060000060800000A
:103D30004407000080080000630700002F0800000F
:103D4000310800009E070000AB0800004508000095
:103D5000D6080000EA060000C4070000DF070000E4
:103D6000E907000005080000AD070000A3080000F7
:103D700063070000DC0800006A0800007608000005
:103D8000350700006C0700004508000079070000B7
:103D900021080000A507000073080000A507000027
:103DA00087080000D4080000B3070000A80700003F
:103DB0004007000099080000590700002C08000087
:103DC000FA07000008080000440800004E08000040
:103DD0000709000061070000CC0700007E07000013
:103DE0001A080000BC070000B00700005B080000D4
:103DF00095070000890800002E080000C708000091
:103E0000770700008E070000F3070000B4070000EA
:103E1000410800008E0700008108000093070000A1
:103E20007A0800008C08000042080000E507000046
:103E3000300700005308000092070000410800000E
:103E4000B20700000E080000F60700001808000086
:103E5000E4080000B2070000070800002C0700007B
:103E600049080000DC0700000708000017080000F0
:103E7000A807000057080000FA070000DC0800004F
:103E8000C9070000D407000093070000E407000002
:103E900029080000A20700003B0800009507000069
:103EA0005C0800001008000089080000EA07000014
:103EB0009C070000F2070000C00700006C0800002B
:103EC0009F0700003C080000AE0700004908000002
:103ED0005008000022080000350800004F070000CD
:103EE00028080000AE07000058080000C5070000C1
:103EF000D407000016080000ED0700009A08000033
:103F0000EB070000280800005E0700000008000022
:103F10000B0800001008000003080000B0070000B4
:103F200052080000E8070000900800000F08000099
:103F3000E6070000AB070000B00700004D080000D6
:103F4000C50700001E080000A10700004908000086
:103F500002080000B10500009408000057070000A7
:103F6000B50800003C080000CD080000EC07000088
:103F700050080000210900000E0A000002050000A0
:103F800027080000EC06000047080000ED070000CD
:103F9000B6080000460800006A0800008708000014
:103FA000EE0A0000920500008B0700006B0600007F
:103FB000510800005F070000A6080000820700000B
:103FC000B50800009A070000B10A00009F06000033
:103FD000540700002C07000026080000CF0700004F
:103FE000F308000074070000CC0800008F070000F1
:103FF000DE0A00006007000003070000FB06000067
:104000000608000056070000E40800005207000000
:104010007308000071070000F40900006008000048
:10402000A306000057070000EE0700008D07000000
:10403000E6080000B20700006B08000068070000F7
:104040009709000053090000CC060000F7060000A5
:10405000D80700008607000064080000E807000099
:1040600017080000B307000015080000ED09000064
:10407000140700000B07000093070000D70700009B
:104080004C0800002E080000200800001208000064
:10409000CD070000DF090000F10700001107000054
:1040A00046070000CB070000D80700007608000094
:1040B00094070000930800005407000092090000D4
:1040C000230800006607000039070000DA07000037
:1040D000AB070000AA080000B20700007C0800003F
:1040E0008D07000046090000820800008A070000D2
:1040F000FC060000170800002B070000CF08000096
:104100007C0700007D0800007D070000F808000023
:10411000AE0800009907000005070000270800000E
:104120005207000080080000CC0700004D08000086
:10413000B3070000B2080000F8080000F90700000B
:10414000C30600004C0800006E0700004508000090
:10415000C60700001F080000CF0700000F0800007E
:104160001309000026080000D5060000D007000053
:10417000E607000001080000170800000C08000016
:1041800016080000CB0700000D090000B70800006A
:104190001B07000065070000FF070000D5070000AF
:1041A0002A080000C5070000550800009707000016
:1041B000BD080000A4080000A10700002C070000B3
:1041C0000D080000B60700005D080000A30700000E
:1041D00051080000D707000069080000BD08000072
:1041E00003080000320700000D0800007B070000F4
:1041F0008E0800007D07000059080000AE0700008F
:1042000074080000760800004F0800002A0700002C
:104210000C0800006E0700005E080000AE070000FA
:104220002B080000CD070000420800008A080000AB
:10423000A2080000110700003D0800007D070000F3
:1042400031080000BD07000019080000CE0700007B
:104250002408000077080000D308000022070000AF
:10426000CD070000CC070000FC070000E0070000BD
:10427000E1070000E9070000000800004508000011
:10428000120900008307000089070000DE07000014
:10429000F607000023080000AD0700001508000025
:1042A000DF07000033080000F408000018080000D1
:1042B00031070000EA070000C80700004F080000AF
:1042C000A3070000FA070000EE070000F607000051
:1042D000AA0800007B0800002A070000F40700007D
:1042E0009907000085080000A007000026080000CC
:1042F000D2070000280800003C080000C6080000A3
:1043000052070000E5070000930700005A0800006C
:10431000ED070000EC070000DD07000023080000A7
:1043200021080000D808000072070000F307000011
:104330007607000030080000E00700001E080000BB
:104340009C07000043080000F3070000E808000095
:1043500091070000DF070000CE070000E307000020
:10436000110800000B080000CA0700001E0800002A
:10437000DC070000D7080000A9070000D4070000F0
:10438000D207000008080000EE0700000D0800003A
:10439000D70700001E080000E50700009008000095
:1043A00020080000760700000B080000E707000067
:1043B00028080000E3070000D50700001F080000E0
:1043C000D807000060080000610800008B070000AB
:1043D000D6070000E407000038080000FB070000D3
:1043E000D5070000EE07000010080000F3070000EA
:1043F000C30800007407000001080000B8070000AF
:10440000350800001E080000DB070000ED07000073
:1044100012080000ED070000C8080000AD0700000A
:10442000E8070000B00700000208000016080000BE
:1044300016080000F70700000C080000AE06000098
:10444000240900007708000062070000110700003F
:10445000A4080000B6080000D00700002C070000E8
:104460006E08000045080000A5070000E8070000EE
:104470008E080000FE0700004B070000C207000086
:10448000C30900003B0700007C0700005407000040
:104490002F090000EA070000B1060000BF08000075
:1044A000740800004D070000BA070000B8080000BB
:1044B000F108000080060000E60700002E09000059
:1044C0002A080000AB0600004B080000A00800000E
:1044D0003B0800000207000099080000B308000034
:1044E000530700008A070000670800005208000018
:1044F0004907000082070000D908000043080000B7
:1045000090070000C1070000EF080000100800003D
:10451000700700006E070000B608000001080000E8
:104520005B0700004C0800005D0800003B0800002D
:104530003707000082080000A4080000F70600000A
:104540009C070000F9070000D00800009D0700004C
:1045500049070000C60800006C080000C8070000FA
:10456000C3070000490800002408000049070000B4
:10457000AD07000028090000CF0700005607000023
:10458000E3070000180900004D080000BD06000008
:10459000020800009F080000920700005907000071
:1045A00063080000D608000034070000AD070000D3
:1045B000E1080000A9080000C5060000AF070000E0
:1045C000B2080000670800003C070000B1070000C7
:1045D00001090000F90700006E0700005308000001
:1045E00060080000EE070000C30600009408000009
:1045F000B4080000840700005907000063080000A9
:10460000C6080000C60700002D070000B40800001F
:104610002C08000061070000CE070000860800009B
:104620005508000049070000EA07000020090000C3
:10463000CC0700007E070000A0070000A8080000CB
:10464000FD070000370700001D0800008708000074
:10465000DA07000090070000570800008F080000EC
:104660009D0700005E070000720800009C08000023
:1046700050070000AA07000070080000B9080000F9
:104680005607000084070000CE0800000408000060
:1046900054070000F5070000A0080000F70700001D
:1046A00028070000520800008F080000A107000042
:1046B000D10700000F0800000508000006080000F0
:1046C000E407000016080000DC07000011080000E5
:1046D0004F080000C6070000FC070000EF070000BD
:1046E0001308000015080000DB070000FE070000AB
:1046F000FB070000FE07000021080000E70700009C
:104700000B080000F2070000E1070000F2050000BE
:10471000AE070000B5080000C2070000190900003C
:10472000C00600005A090000860A00000F080000B9
:104730004605000075060000F708000008080000A4
:1047400023090000BF0600006D090000160A0000E2
:1047500026090000460500005A0600008A080000ED
:1047600075070000060900007A060000DA0800005C
:1047700042090000B8090000C2050000C706000099
:10478000D5080000850700006009000094060000BD
:10479000FC080000FA080000530A0000CE050000E3
:1047A000890600007F08000068070000D9080000A3
:1047B00096060000F40800001D0800001D0A000015
:1047C000FE050000F50600007B0800007C070000E5
:1047D0004C090000A3060000EC0800001B080000C4
:1047E000770A0000640600006E06000067080000FB
:1047F0007C070000050900009D060000D7080000A6
:104800009A070000790A0000A90600008A06000045
:10481000540800008E07000002090000CD060000C9
:10482000190900009D070000260A00004D0700003E
:104830007B060000460800006D070000F808000035
:10484000DB060000EA080000530700003E0A0000F3
:104850004F070000630600003A08000098070000B8
:10486000E0080000CD0600003409000073070000D6
:10487000DC090000E90700007706000020080000BE
:104880008E070000B9080000FD060000E4080000E3
:104890007F070000B10900002F0800007206000029
:1048A000EE0700009D070000F7080000E106000089
:1048B000B108000087070000950900009208000079
:1048C000A5060000D10700009B070000AB08000010
:1048D00034070000900800007F070000080900006E
:1048E000C2080000FF060000D4070000790700009E
:1048F000C308000021070000AC080000900700007A
:10490000D0080000BF08000008070000780700007A
:10491000CD0700005E08000034070000DD0800003D
:1049200087060000EB090000230800002A080000A9
:10493000D2060000BC08000097080000C606000070
:10494000FB080000BE060000C8090000DA070000EE
:104950007A080000990600007E0800007A0800002E
:10496000640700004B080000E00600006709000033
:10497000D2070000A80800003C06000080080000E4
:1049800021080000C3070000BE080000D306000095
:1049900049090000AC0700000009000012060000F1
:1049A000BE080000CF070000D00700006B08000021
:1049B000AD070000EB080000530700006709000086
:1049C000E9050000C0080000E0070000BF07000084
:1049D0001908000042070000AF0900004F0700005F
:1049E00078090000C3050000D80800009A070000FD
:1049F0003C080000C807000061070000040900002F
:104A0000B0070000E4090000980500009F080000BE
:104A10009C0700005F080000E20700004C07000050
:104A2000040900001B070000350A00000D06000005
:104A3000B108000049070000900800009607000038
:104A4000B9070000F70800001B070000DD0900009F
:104A50001B0600001D090000210700009908000046
:104A60008E070000620700000F0900002407000005
:104A7000070A0000E7050000B10800007C070000FD
:104A8000B20800006F07000081070000E108000085
:104A900022070000FB0900005B060000A2080000DE
:104AA0003507000015090000A107000037070000C6
:104AB000DE08000011070000E20900007B0600008C
:104AC0009D0800003607000093080000DB07000087
:104AD0009807000096080000ED060000F4090000A9
:104AE000AA0600007308000024070000EA0800007E
:104AF00099070000B407000001090000FC0600004F
:104B000077090000CE0600006A0800004407000094
:104B100097080000AD070000B0070000D8080000AB
:104B20004907000049090000E00600004F080000A6
:104B300018070000E5080000A7070000AC07000008
:104B40008B08000076070000AC0900001C0700007D
:104B50000508000014070000CA080000A5070000AF
:104B600096070000AC0800007F0700001009000055
:104B7000A10700003D080000E1060000B7080000A2
:104B8000A9070000D507000053080000D207000065
:104B9000A708000005080000D307000099070000DF
:104BA00013080000FF070000A3070000250800000D
:104BB000FC0700007008000057080000950700007F
:104BC000B307000060080000C90700009F0700004D
:104BD0002408000020080000410800002908000007
:104BE000D7070000B60700002608000028080000CC
:104BF000AF070000D90700002708000026080000C2
:104C000076080000B3070000AF070000420800006C
:104C1000FD0700000C080000C30700001608000094
:104C2000180800004E080000D80700009C0700008C
:104C300026080000E8070000EF070000E407000076
:104C400067080000E20700004F080000C6070000E8
:104C5000B307000032080000D30700000808000076
:104C6000BE0700006C08000026080000380800009D
:104C7000E0070000950700001B080000F407000093
:104C80000C08000099070000560800000508000005
:104C90009B080000C7070000950700002C080000D3
:104CA000BC0700002E0800008E0700006F080000FF
:104CB000EB070000750800003108000091070000B4
:104CC000E8070000E1070000100800009D07000051
:104CD00046080000F70700008808000008080000E8
:104CE000CB070000FD070000B00700001E08000011
:104CF000960700004D080000F80700004D0800006E
:104D000028080000CD07000025080000D707000094
:104D1000D7070000A90700003E080000F9070000BF
:104D2000440800002D080000CE0700000A0800001B
:104D3000F1070000400800007907000009080000A2
:104D40000C0800002A08000020080000C707000027
:104D50000C080000050800000E080000EA0700002B
:104D6000FE070000E2070000260800001B08000004
:104D7000D607000006080000FB070000210800001D
:104D8000E107000035080000EA070000F207000014
:104D90002D080000B6070000D90700000E0800002B
:104DA0001C080000E5070000FA0700001D080000CD
:104DB0001B08000013080000CC070000F7070000E4
:104DC000E307000010080000EE07000026080000BE
:104DD000030800000A0800003B080000D407000098
:104DE000DE07000010080000E0070000D107000007
:104DF0003507000025080000B10400000D0B00007D
:104E000091060000C1080000C70A00004109000027
:104E1000240A0000130400007307000014090000B6
:104E2000C4050000D90B00006C060000AE0B0000AA
:104E30005709000056030000480900001305000050
:104E4000F90900001F080000870700004A0B000056
:104E5000DC0700009906000038060000E2070000A9
:104E60007D0900007F060000BE0A00006B070000FD
:104E7000390B00001A05000058060000DB0800008E
:104E80009C060000560900001F080000DE07000015
:104E9000360C0000F70200005B0900000706000066
:104EA0003209000010080000B3070000E809000004
:104EB0007209000038060000E3060000AD0600009D
:104EC000B6090000A1050000A00A000009070000C3
:104ED000B70A000074060000FE050000AE080000DE
:104EE000560700000B08000062090000CF06000012
:104EF0002D0C0000FD040000DB070000FF06000091
:104F0000A90700007B080000CC070000DE080000B5
:104F100090090000F5060000330700007B06000042
:104F20006409000038060000230A0000950700000D
:104F30005F090000C30800005B0500009408000042
:104F40001A070000BD07000065090000B406000054
:104F5000DE0A000042070000CA060000A3070000A6
:104F600048070000CF080000B0070000C908000093
:104F7000D2080000AC080000D0060000B106000016
:104F8000BF0800003D070000720800009308000001
:104F900097070000640A0000150500001D080000C6
:104FA000AB0700009F07000023090000470700002F
:104FB0004E09000032090000080600001008000039
:104FC000BC060000280900001A07000011090000B3
:104FD000030800003009000025070000AF060000AC
:104FE0005C080000B00700009F0700006A0900008D
:104FF00002070000BC0A0000FE0500006A0700006E
:10500000140800006C0700006E0800000308000090
:105010002C080000C009000075060000040800000C
:10502000F5060000C408000040070000C7080000A3
:1050300032080000E2080000F507000085060000C5
:10504000E60700004408000017070000B30900004D
:10505000C0060000050A00009E070000960600003A
:105060005A0800006D0700002808000088080000AA
:10507000A9070000A0090000AB07000033070000EB
:10508000660700002D0800009C070000840800004F
:10509000FB070000C0080000A708000097060000FA
:1050A000D40700001F080000940700007E080000DD
:1050B000F707000098080000E808000076060000E6
:1050C000D8070000EF070000A90700004008000013
:1050D000D3070000A5080000D20800001007000058
:1050E000D1070000C4070000A2080000A6070000C6
:1050F00063080000AA0700006A090000CC0600004F
:10510000A207000034080000AF070000A20800005A
:10511000EF070000BF070000ED08000011070000C6
:10512000B1070000E9070000640800009F070000C5
:10513000E1080000BF070000E80800003207000097
:1051400087070000D607000048080000F0070000AD
:1051500053080000FA07000014090000440700008B
:10516000D50600003608000005080000D50700003D
:10517000B008000093070000800900009F070000AE
:1051800013070000B307000028080000EB07000029
:105190002F08000024080000A608000044080000B2
:1051A0003A0700009A0700000A080000D50700002F
:1051B00066080000A6070000DE08000012080000D4
:1051C0002807000030080000EC0700009D070000E1
:1051D00062080000EF0700009408000016080000B5
:1051E00023070000F50700006B080000E00700003F
:1051F000CC0700002A0800004D0800008A080000C3
:105200002C070000C007000048080000100800003C
:10521000FA070000F7070000FE070000C4080000BE
:10522000D8060000E707000041080000F70700006B
:105230006C080000D4070000F107000074080000AB
:1052400056070000F0070000D107000077080000B3
:10525000DA07000088080000E907000029080000BC
:1052600085070000590700006008000003080000DF
:105270001F0800005C0800000000000000000000A3
:10528000000000000000000000000000000000001E
:10529000000000000000000000000000000000000E
:1052A00000000000000000000000000000000000FE
:1052B00000000000000000000000000000000000EE
:020000040801F1
:1063E000000000000000000000000000410000006C
:1063F00082000000C300000004010000450100000D
:1064000086010000C70100000802000049020000E8
:106410008A020000CB0200000C0300004D030000C4
:106420008E030000CF0300001004000051040000A0
:1064300092040000D304000014050000550500007C
:1064400096050000D7050000180600005906000058
:106450009A060000DB0600001C0700005D07000034
:106460009E070000DF070000200800006108000010
:10647000A2080000E30800002409000065090000EC
:10648000A6090000E7090000280A0000690A0000C8
:10649000AA0A0000EB0A00002C0B00006D0B0000A4
:1064A000AE0B0000EF0B0000300C0000710C000080
:1064B000B20C0000F30C0000340D0000750D00005C
:1064C000B60D0000F70D0000380E0000790E000038
:1064D000BA0E0000FB0E00003C0F00007D0F000014
:1064E000BE0F0000FF0F0000BE0F00007D0F000078
:1064F0003C0F0000FB0E0000BA0E0000790E0000F9
:10650000380E0000F70D0000B60D0000750D0000FC
:10651000340D0000F30C0000B20C0000710C000000
:10652000300C0000EF0B0000AE0B00006D0B000004
:106530002C0B0000EB0A0000AA0A0000690A000008
:10654000280A0000E7090000A6090000650900000C
:1065500024090000E3080000A20800006108000010
:1065600020080000DF0700009E0700005D07000014
:106570001C070000DB0600009A0600005906000018
:1065800018060000D705000096050000550500001C
:1065900014050000D3040000920400005104000020
:1065A00010040000CF0300008E0300004D03000024
:1065B0000C030000CB0200008A0200004902000028
:1065C00008020000C701000086010000450100002C
:1065D00004010000C3000000820000004100000030
:1065E000000000000000000000000000200000008B
:1065F000400000006100000081000000A1000000D8
:10660000C1000000E20000000201000022010000C1
:10661000420100006301000083010000A3010000AB
:10662000C3010000E4010000040200002402000095
:10663000440200006502000085020000A50200007F
:10664000C5020000E6020000060300002603000069
:10665000460300006703000087030000A703000053
:10666000C7030000E803000008040000280400003D
:10667000480400006904000089040000A904000027
:10668000C9040000EA0400000A0500002A05000011
:106690004A0500006A0500008B050000AB050000FC
:1066A000CB050000EB0500000C0600002C060000E6
:1066B0004C0600006C0600008D060000AD060000D0
:1066C000CD060000ED0600000E0700002E070000BA
:1066D0004E0700006E0700008F070000AF070000A4
:1066E000CF070000EF07000010080000300800008E
:1066F000500800007008000091080000B108000078
:10670000D1080000F1080000120900003209000061
:10671000520900007209000093090000B30900004B
:10672000D3090000F3090000140A0000340A000035
:10673000540A0000740A0000950A0000B50A00001F
:10674000D50A0000F50A0000150B0000360B00000A
:10675000560B0000760B0000960B0000B70B0000F4
:10676000D70B0000F70B0000170C0000380C0000DE
:10677000580C0000780C0000980C0000B90C0000C8
:10678000D90C0000F90C0000190D00003A0D0000B2
:106790005A0D00007A0D00009A0D0000BB0D00009C
:1067A000DB0D0000FB0D00001B0E00003C0E000086
:1067B0005C0E00007C0E00009C0E0000BD0E000070
:1067C000DD0E0000FD0E00001D0F00003E0F00005A
:1067D0005E0F00007E0F00009E0F0000BF0F000044
:1067E000DF0F0000FF0F0000000800006408000039
:1067F000C80800002C0900008F090000F109000002
:10680000520A0000B10A00000F0B00006B0B0000E1
:10681000C50B00001C0C0000710C0000C30C000034
:10682000120D00005F0D0000A70D0000ED0D00002F
:106830002E0E00006C0E0000A60E0000DC0E000004
:106840000D0F00003A0F0000630F0000870F0000DB
:10685000A70F0000C20F0000D80F0000E90F0000D2
:10686000F50F0000FD0F0000FF0F0000FD0F0000FE
:10687000F50F0000E90F0000D80F0000C20F000064
:10688000A70F0000870F0000630F00003A0F000001
:106890000D0F0000DC0E0000A60E00006C0E0000C4
:1068A0002E0E0000ED0D0000A70D00005F0D000092
:1068B000120D0000C30C0000710C00001C0C000045
:1068C000C50B00006B0B00000F0B0000B10A0000AD
:1068D000520A0000F10900008F0900002C09000095
:1068E000C808000064080000000800009B070000C2
:1068F00037070000D3060000700600000E060000F7
:10690000AD0500004E050000F004000094040000F6
:106910003A040000E30300008E0300003C03000083
:10692000ED020000A0020000580200001202000068
:10693000D101000093010000590100002301000073
:10694000F2000000C50000009C000000780000007C
:10695000580000003D000000270000001600000065
:106960000A00000002000000000000000200000019
:106970000A00000016000000270000003D00000093
:1069800058000000780000009C000000C5000000D6
:10699000F2000000230100005901000093010000F3
:1069A000D10100001202000058020000A002000005
:1069B000ED0200003C0300008E030000E303000032
:1069C0003A04000094040000F00400004E050000AA
:1069D000AD0500000E06000070060000D3060000A2
:1069E000370700009B0700000100000010000000B6
:0469F0000024F4008B
:040000050800263198
:00000001FF
